:400000000010002011000000610500006105000010B500F0C5FAC04670B5134C23688022D20213432360182000F06AFD22680F4B134023600E4A0F4B1A6010220E4B1A6061
:40004000802212060D4B1A60002525600C4A0D4B1A600D49092000F01FFD092000F010FD0A4B1D6070BDC04600010B40FFFFFBFF0600008004010B403002024008010B408A
:400080000100008000000240110D00000C020B4070B572B600240FE037486200131959000B00411889881A5AC31858880004104300F04CFA0134E4B2022CEDD9002411E03B
:4000C0002D4EA2001319590071188D8AC88A000428430A8B498B09041143802200F03CFA0134E4B2002CEBD0234920312348343000F012FAC0229204214B1A60214A224BFB
:400100001A6099231B04214A136080218905204A1160204A1360204A1360204A1360982212061F4B1A601F490B783C22934314221343DBB20B701C4A117816230B43DBB27F
:400140001370C122194B1A60194A1A4B1A60C0225203194B1A604022184B1A6080221203174B1A60F022174B1A60174A174B1A60FFF752FF70BDC046981200001814000097
:400180000000014000EE03030C00014000500F4008500F4010500F4020500F4030500F4038500F4001700F4000700F4000000440820D5800080004400801044000020440DA
:4001C0000802044000030440B66D59000803044010B5064C2378002B07D1054B002B02D0044800E000BF0123237010BD480100200000000094120000084B10B5002B03D009
:400200000749084800E000BF07480368002B00D110BD064B002BFBD09847F9E7000000004C01002094120000C00000200000000030B583B0050000240CE06300585F631C3D
:400240005B00595F064B00930B00020000F01AFB013424B22C23FF339C42EEDD03B030BDFF0F000070B582B005000C0016001300082200F089FA28000F382A000F320096F4
:400280002300210000F0FEFA21000F3923000F3300962A00280000F0F5FA02B070BDC046F0B583B000900E0015000193002407E0019B22003100009800F066FA013424B28C
:4002C0002F002837BC42F3DB002407E0002322003100009800F058FA013424B2A742F5DC0898FFF7A5FFFF22120131000098FFF7B9FF03B0F0BDC04670B50D001400C0B281
:4003000000F080FDE8B200F089FDE0B200F092FD70BDC046F0B5474680B47C4CA54496229200002102A800F0C6FE002409E000F0CBFE842100F084FE620002ABD1520134D8
:4003400024B22C23FF339C42F1DD62B600F0C0F9002000F083F9012000F0EAFA02A8FFF767FFFF2212013E213E20FFF77BFF002201210120FFF7C0FF012701239846002667
:400380003E253E24624B9E4206D1012200210120FFF7B2FF012398465E4B9E4222D1002201210120FFF7A8FF01271BE0002229002000FFF757FF02A8FFF73AFF013C24B2C2
:4003C00000F000FD002801D101352DB200F00AFD002801D1013D2DB2FF22120129002000FFF740FF00F0E6FC0028DFD01BE0002229002000FFF736FF02A8FFF719FF013519
:400400002DB200F0D7FC002801D1013C24B200F0E1FC002801D1013424B2FF22120129002000FFF71FFF00F0CDFC0028DFD01BE0002229002000FFF715FF02A8FFF7F8FE14
:40044000013424B200F0BEFC002801D101352DB200F0C8FC002801D1013D2DB2FF22120129002000FFF7FEFE00F0B4FC0028DFD01BE0002229002000FFF7F4FE02A8FFF719
:40048000D7FE013D2DB200F095FC002801D1013C24B200F09FFC002801D1013424B2FF22120129002000FFF7DDFE00F09BFC0028DFD000F09FFC002826D1002F11D002AB19
:4004C00000930F23002229002000FFF7E9FE012201210020FFF710FF002700239846002612E04346002B0FD002AB0093F023002229002000FFF7D4FE012201210020FFF7D1
:40050000FBFE00239846002601363BE7A0FDFFFF20A1070040420F00F0B50025002711E0BB00C658F3B2FF22964308E06A008A181478A419527822700135013BDBB2002B31
:40054000F4D10137082FEBD9F0BDC04610B50A00002100F0B0FD10BD10B500F0A3FD10BD10B500F073FD03680C2B00D1FEE7FEE710B50300084A1068C318084A9A1A802AD5
:4005800002DC054A136005E000F060FD0C2303600120404210BDC046C40000209801002070B50F4E0F4D13E029686B68AC68002202E001C901C30432A242FAD1E868002292
:4005C00002E0002102C304328242FAD11035013E002EE9D100F040FDFFF79CFEFEE7C046010000004415000010B500230AE0032B03D89A000949505800E009489900094A74
:40060000885001332F2BF2D9FFF742FD8022D205116801230B43136010BDC04600000000610500000000002010B5040000F0B8F911230342FAD0A0B200F0BEF910BDC046AB
:4006400010B580246400204384B200F0A9F911230342FAD0200000F0AFF910BD70B505002B20FFF7E1FF0020FFF7EAFF8320FFF7E7FF2A20FFF7D8FF0020FFF7E1FF832041
:40068000FFF7DEFF2C20FFF7CFFF00260FE02811FF242040FFF7D4FF280120402B121843FFF7CEFF20002840FFF7CAFF0136024B9E42ECD970BDC0468321000010B57F242A
:4006C00004402520FFF7B0FF2000FFF7B9FF10BD10B500F0BBF9142000F008FA002000F033F9C82000F0EAF9FF2000F02DF9C82000F0E4F91120FFF797FF0320FFF794FF58
:400700002920FFF791FF3A20FFF78EFF0320FFF797FF3620FFF788FF2520FFF785FF3020FFF78EFF0020FFF77FFF3C20FFF7C6FF0020FFF793FF10BDF8B5150083235E1AF9
:400740001C1A2B20FFF770FFFF273C402000FFF777FF2000FFF774FF2A20FFF765FF34003C402000FFF76CFF2000FFF769FF2C20FFF75AFF28113840FFF762FF2801384045
:40078000FFF75EFFF8BDC046F0B55F4656464D464446F0B485B08346884614001D00019301239B1A9946D3079B1A5A00924661182A00FFF7C1FF4346191B2A005846FFF7A6
:4007C000BBFF5B46E0182A004146FFF7B5FF5B46181B2A004146FFF7AFFF0026002348E04A46002A04DB013C02229446E244D14401369A1C02920333994459468F19414640
:400800006318019A039319003800FFF795FF5846851B019A03992800FFF78EFF41460B1B019A039319003800FFF786FF019A03992800FFF781FF5946671841468D19019AAC
:4008400029003800FFF778FF59460B1B019A290003931800FFF770FF41468D1B019A29003800FFF769FF019A29000398FFF764FF029BA642B4DB05B03CBC90469946A2466F
:40088000AB46F0BDF0B55F4656464D464446F0B483B004000D0001929B465B1A171A002B04DA5B4201225242924601E001229246002F04DA7F4201225242914601E0012224
:4008C00091465B0098467F000C9A29002000FFF733FFB84512DA7B104246D61A0AE0002E01DB5544F61B4C4446440C9A29002000FFF722FF019B9C42F1D111E043465E1084
:40090000BE1B0BE0002E02DB4C444346F61A5544F6190C9A29002000FFF70EFF5D45F1D103B03CBC90469946A246AB46F0BDC046044A1368DBB201218B430840184310607C
:400940007047C0460003044004490A68D2B202239A43400018401043086070470003044010B500F07FFA0B4A117820230B43DBB2137009490A7810231A43D2B20A70074A7D
:4009800011780B43DBB2137000F070FA00F06EF810BDC04691000F4092000F4090000F40014B1878C0B2704762000F40014B1878C0B2704760000F40034B1B785B07FBD5B0
:4009C000024B18807047C04662000F4084100F4010B501E00E4B1B880E4B1B789B06F9D400F040FA0C490A78012401231A43D2B20A700A78A2430A70084A11780B43DBB289
:400A000013701378A343137000F030FA10BDC046A4100F4060000F4092000F4093000F4010B51122064B1A70FFF7D2FFFFF7B8FFFFF7BCFF0023034A1370034A137010BD55
:400A400081000F4082000F4080000F4010B5064B1B78002B04D1FFF7E3FF0122024B1A70FFF77EFF10BDC04664010020034A1368802109060B4313607047C0460000024088
:400A80001F2318401E3B8340014A13607047C04600E100E001BE704770B504000D001F2802D90020FFF7F6FF1034A40080239B059C4664442068256070BDC04610B50400AD
:400AC00006E0084B586800F0C3F9074B9C46644480231B029C42F4D8024B9868604300F0B7F910BDC80000200080FFFF10B5034B1B7B584300F0ACF910BDC046C8000020B4
:400B0000F0B557464E46C0B483B0040000F0AAF90190E71E2D2F74D83F4B1B78DBB29C4208D83E4B1B78DBB29A463D4B1B78DBB2994631E03B4B1B78DBB29C4208D83A4BF1
:400B40001B78DBB29A46394B1B78DBB2994623E0374B1B78DBB29C4208D8364B1B78DBB29A46354B1B78DBB2994615E0334B1B78DBB29C4208D8324B1B78DBB29A46314B45
:400B80001B78DBB2994607E02F4B1B78DBB29A462E4B1B78DBB299462D4BDE5D2F2E09D92A2C07D919222B4B1A60052000F050F9192503E0274B1D683F231D40B54206D9FF
:400BC000234BDA5D234B1A60052000F041F91F4B9C4664442378DBB21F4A13601F4B52461A601F4B4A461A600520FFF77FFFB5420AD2174BDA5D174B1A60052000F028F91A
:400C000002E00020FFF746FF019800F02FF903B00CBC91469A46F0BDC0F1FF0FC1F1FF0FC2F1FF0FC3F1FF0FC4F1FF0FC5F1FF0FC6F1FF0FC7F1FF0FC8F1FF0FC9F1FF0F44
:400C4000CAF1FF0FCBF1FF0FCCF1FF0FCDF1FF0FF01400002CFF0B4028FF0B401CFF0B4020FF0B40034B1868C0231B02184000D00120704700010B4010B500F0F3F8044A86
:400C80001368C02109020B43136000F0EFF810BD00010B4010B500F0E5F808490A68084B1A408024E40122430A600A6813408022120213430B6000F0D9F810BD00010B40AC
:400CC000FF3FFFFF70B5050000F0CCF80400FFF7C9FF002803D0FFF7DDFF012100E0002108482840084A1568084B2B40184310601368012901D1FFF7BFFF200000F0B6F82F
:400D000070BDC0460404040010020B40FBFBFBFF10B5244B1B685B0715D5234B1B685B070ED5224BD969042001401F4C22688A432260DA698243DA611B69002B00D09847F5
:400D40000420FFF7BFFF174B1B685B0518D5164B1B685B0510D5154BD9698022D2001140114802688A430260D969114A0A40DA615B69002B00D098478020C000FFF7A2FF30
:400D8000084B1B685B030CD5074B1B685B0304D5064B9B69002B00D098478020C002FFF791FF10BD10020B40DC00002068010020FFFBFFFF024B1868C0090123184070478B
:400DC00004000440024B1868C00901231840704704030440024B1B68012018407047C04604000440024B1868400901231840704704030440024B186880090123184070472C
:400E00000402044004490A68D2B240239A43800118401043086070470001044004490A68D2B204239A43800018401043086070470000044004490A68D2B208239A43C00075
:400E4000184010430860704700000440000000000230800804D0C0460138FDD1C046C046C0467047EFF3108072B6704780F310887047C04603460B437FD4002243088B42C3
:400E800074D303098B425FD3030A8B4244D3030B8B4228D3030C8B420DD3FF22090212BA030C8B4202D31212090265D0030B8B4219D300E0090AC30B8B4201D3CB03C01A7F
:400EC0005241830B8B4201D38B03C01A5241430B8B4201D34B03C01A5241030B8B4201D30B03C01A5241C30A8B4201D3CB02C01A5241830A8B4201D38B02C01A5241430A44
:400F00008B4201D34B02C01A5241030A8B4201D30B02C01A5241CDD2C3098B4201D3CB01C01A524183098B4201D38B01C01A524143098B4201D34B01C01A524103098B4244
:400F400001D30B01C01A5241C3088B4201D3CB00C01A524183088B4201D38B00C01A524143088B4201D34B00C01A5241411A00D201465241104670475DE0CA0F00D0494233
:400F8000031000D34042534000229C4603098B422DD3030A8B4212D3FC22890112BA030A8B420CD3890192118B4208D3890192118B4204D389013AD0921100E08909C30952
:400FC0008B4201D3CB01C01A524183098B4201D38B01C01A524143098B4201D34B01C01A524103098B4201D30B01C01A5241C3088B4201D3CB00C01A524183088B4201D355
:401000008B00C01A5241D9D243088B4201D34B00C01A5241411A00D20146634652415B10104601D34042002B00D54942704763465B1000D3404201B5002000F005F802BD75
:401040000029F8D016E770477047C046014B18687047C046400100200E4B70B500251E000D4CE41AA410A54204D0AB00F35898470135F8E700F054FA084B00251E00084C8B
:40108000E41AA410A54204D0AB00F35898470135F8E770BD2C1500002C1500002C15000034150000002310B59A4203D0CC5CC4540133F9E710BD03008218934202D019701B
:4010C0000133FAE770470000154B10B51C68A36B002B15D1182000F033F8124BA0630380114B01224380114B8380114BC380114B03810523438106338381002302614361B3
:40110000A46B0D4A206961690C4B00F097F80122002380185941206161614800400810BD400100200E330000CDABFFFF341200006DE6FFFFECDEFFFF2D7F954C2DF451583A
:4011400010B5034B0100186800F004F810BDC04640010020032370B5CD1C9D43083506000C2D01D20C2501E0002D01DBA94202D90C23336048E0300000F05EF8234B1C6825
:401180001A002100002913D00B685B1B0DD40B2B02D90B60CC181EE08C4202D1636813601AE04B6863600C0016E00C004968E9E7174C2368002B03D1300000F02BF8206032
:4011C0002900300000F026F8431C18D00323C41C9C43A0420DD12560300000F02EF8200007220B30231D9043C31A0ED05A42E2500BE0211A300000F00DF8431CEBD10C231C
:401200003000336000F019F8002070BD8C01002088010020002370B5064C050008002360FFF7A6F9431C03D12368002B00D02B6070BDC0469001002070477047F0B54F46B8
:401240004646C0B41604360C9946330005042C0C070C150C63437E436F4365431C0CAD1964199C46A64203D980235B02984647446346250CEF191D044B464A4343432D0C70
:40128000240464199918C91920000CBC90469946F0BDC0460000000000300F40000280320F40800100400F400004000000320F40701400008000000081110405060A0C0EC6
:4012C0001C031E0428042A09360F3880544058045B045F01810782018338842E85048680882289808A4C8B048C208D048ED08F8090D89184920194D1958496089802995624
:401300009A0C9B099C109D019E26A0D9A184A50AA710A8D9ACD9AD60B17FB201B380B40EB6F0B780B902BAA0BE04BF44D602D724D804D904DB04DF0101800320055006C0A5
:4013400007200A010E55132015011602171019801C101D401E04260827822E022F21360537A03E556010625067086D016E5A6F51760287808980C0F5C2F1C4D2CAD0CCF0AD
:40138000CEF0D82EE002E680860296039A039C01B403C023C101C260C7B0C820C901CAFFCBFFCC23CE80CF08D004D804DA04DF01E2C0E440E501E610E711E8C0E901EB11E2
:4013C000EC40ED01EE40EF01000405120602072009A80E16175118041DB01E431F202408254827282F203502372838083B083E0141A845A84A084D0A4E08530156905D1892
:401400005E405F026401880189528C0492149601970A9A029B539D109E909F20A208A720C0F4C2E7C4D0CA40CCE0CE80D07ED224D6F0D81061208920D84087015B015F086D
:401440008F089B01D603E4020101100101000F403F300F4028310F4020320F4036330F4003400F4001420F4006430F4002600F40029900621C002300210018001A0000005C
:40148000000400000210186818CC0030130024001800020000AE0051180002001A000000200000070F78138000002028000001402301600000CEFD000FFFFFFF020070085F
:4014C000040000000900000004040404000000010000C00040011011C00100114001400100000000000000000000000000000000030405060708090A0B0C0E0F10111213AA
:401500001415161718191B1C1D1E1F2021222325262728292A2B2E2F3031323334354300F8B5C046F8BC08BC9E467047F9010000E9050000F8B5C046F8BC08BC9E467047B2
:40154000D101000058150000C00000208800000050000000000000000000000098010020010000000000E02EC05D00001800000000366E01040404000000000000000000C6
:401580000000000000000000000000000000000000000000000000001E150000000000000000000000000000000000000000000000000000000000000000000000000000F8
:4015C000000000000000000000000000000000000000000000000000E0000020000000000000000000000000000000000000000000000000000000000000000000000000EB
:4016000000000000000000000000000000000000000000000000000000000000000000000000000000000000000000000000000000000000000000000000000000000000AA
:40164000000000000000000000000000000000000000000000000000000000000000000000000000000000000000000000000000000000000000000000000000000000006A
:40168000000000000000000000000000000000000000000000000000000000000000000000000000000000000000000000000000000000000000000000000000000000002A
:4016C00000000000000000000000000000000000000000000000000000000000000000000000000000000000000000000000000000000000000000000000000000000000EA
:0200000490303A
:020000007FA1DE
:0200000490402A
:200000000000000000000000000000000000000000000000000000000000000000000000E0
:0200000490501A
:0C000000000204C81193110104CF9134D8
:0200000490600A
:0100000001FE
:00000001FF