:4000000000100020110000008D0400008D04000010B500F05BFAC04670B5174C23688022D20213432360182000F010FF2268134B13402360124A134B1A602023124A1360B0
:40004000124A13601022124B1A6080221206114B1A6000252560104A104B1A60104A114B1A601149092000F0BDFE092000F0AEFE0E4B1D6070BDC04600010B40FFFFFBFFCF
:400080000600008004010B4020020240240202403002024008010B400100008000000240BF5D0080400002405D1000000C020B4010B572B60122374B1A7000240FE0364882
:4000C0006200131959000B00411889881A5AC31858880004104300F0D3F90134E4B2012CEDD92D490C312D482C3000F0AFF9C0239B042B4A13602B4A13602B4A2B4B1A60D1
:4001000099231B042A4A136080218905294A1160294A13608A21C905284A1160284A1360284A136098225205274B1A601F22274B1A60123A264B1A60033A264B1A602649E6
:400140000B783232934314221343DBB20B70234A117816230B43DBB21370C122204B1A60204A214B1A604023204A1360C02149031F4A11601F4A1360802212031E4B1A60CC
:40018000F0221E4B1A601E4A1E4B1A60FFF744FF10BDC0461C700F40684E0000E8500000000001400400014000EE03030C00014000500F4008500F4010500F4018500F40B7
:4001C00020500F4030500F4038500F40600105402000004000800F4001700F4000700F4000000440820D580008000440000104400801044000020440080204400003044062
:40020000B66D59000803044010B5064C2378002B07D1054B002B02D0044800E000BF0123237010BD4801002000000000584E0000084B10B5002B03D00749084800E000BF1E
:4002400007480368002B00D110BD064B002BFBD09847F9E7000000004C010020584E0000C000002000000000F0B587B0029003911400180004F02EF906000F00200004F090
:4002800029F9214A214B03F021FB0022204B02F0F9FE04000D0001F059F802000B003000390003F013FB04900591029804F012F9049A059B02F0BAFB0490059120002900DB
:4002C00001F08AF802000B003000390003F0FEFA04000D00039E300004F0FCF822002B0002F0A4FB04F0C0F804000498059904F0BBF802000C9B009323003100029800F0D7
:40030000F1FA07B0F0BDC046182D4454FB21094000806640F0B583B062B600F06FF900F079FB00F069FB00F0BFFB00F0AFFB00F0FDFB00F0EDFB00F047FC00F037FC00F0B6
:400340008FFC00F07FFC012000F022FB012000F0E3FE012000F0D4FE00F0B8FF00F03EFF002000F0E5FE344C344F22683449380004F044F9334D002600962B000A220A218C
:40038000380000F091FA00962B0032220A212E4800F08AFA6368A2689342E4D0FA22520093421FDDF53BFF3B234C5B422360E26800230093283341215020FFF755FFB4207F
:4003C00063685843FA21890002F006FA02005A32E260FF231B010093282341215020FFF743FF1DE0144C2360E26800230093283341215020FFF738FF6068F538FF385A2328
:400400005843FA21490002F0E7F902005A32E260FF231B010093282341215020FFF724FF054B5A689A60FF231B0105224121502000F040F997E7C04664010020A4010020DA
:40044000604E0000FF0F0000644E0000F0B50025002711E0BB00C658F3B2FF22964308E06A008A181478A419527822700135013BDBB2002BF4D10137092FEBD9F0BDC04645
:4004800010B50A00002104F0B1F810BD10B504F081F803680C2B00D1FEE7FEE710B50300084A1068C318084A9A1A802A02DC054A136005E004F06EF80C2303600120404242
:4004C00010BDC046C4000020C001002070B50F4E0F4D13E029686B68AC68002202E001C901C30432A242FAD1E868002202E0002102C304328242FAD11035013E002EE9D139
:4005000004F04EF8FFF706FFFEE7C04601000000345A000010B500230AE0032B03D89A000949505800E009489900094A885001332F2BF2D9FFF7BCFD8022D205116801238A
:400540000B43136010BDC046000000008D0400000000002010B5040000F0C8FB11230342FAD0A0B200F0CEFB10BDC04610B580246400204384B200F0B9FB11230342FAD04C
:40058000200000F0BFFB10BD70B505002B20FFF7E1FF0020FFF7EAFF8320FFF7E7FF2A20FFF7D8FF0020FFF7E1FF8320FFF7DEFF2C20FFF7CFFF00260FE02811FF24204077
:4005C000FFF7D4FF280120402B121843FFF7CEFF20002840FFF7CAFF0136024B9E42ECD970BDC0468321000010B57F2404402520FFF7B0FF2000FFF7B9FF10BD10B500F021
:40060000CBFB142000F018FC002000F043FBC82000F0FAFBFF2000F03DFBC82000F0F4FB1120FFF797FF0320FFF794FF2920FFF791FF3A20FFF78EFF0320FFF797FF362079
:40064000FFF788FF2520FFF785FF3020FFF78EFF0020FFF77FFF3C20FFF7C6FF0020FFF793FF10BDF8B5150083235E1A1C1A2B20FFF770FFFF273C402000FFF777FF200037
:40068000FFF774FF2A20FFF765FF34003C402000FFF76CFF2000FFF769FF2C20FFF75AFF28113840FFF762FF28013840FFF75EFFF8BDC046F0B55F4656464D464446F0B485
:4006C00085B08346884614001D00019301239B1A9946D3079B1A5A00924661182A00FFF7C1FF4346191B2A005846FFF7BBFF5B46E0182A004146FFF7B5FF5B46181B2A0070
:400700004146FFF7AFFF0026002348E04A46002A04DB013C02229446E244D14401369A1C02920333994459468F1941466318019A039319003800FFF795FF5846851B019A4C
:4007400003992800FFF78EFF41460B1B019A039319003800FFF786FF019A03992800FFF781FF5946671841468D19019A29003800FFF778FF59460B1B019A290003931800C8
:40078000FFF770FF41468D1B019A29003800FFF769FF019A29000398FFF764FF029BA642B4DB05B03CBC90469946A246AB46F0BDF0B55F4656464D464446F0B483B000932A
:4007C0008325AD1A8226761A364C23789A4663789B46A7781F387843C019431E99462B20FFF7B8FEFF23984618003040FFF7BEFE5E44013EF0B2FFF7B9FE2A20FFF7AAFE06
:4008000040462840FFF7B2FE5544013DE8B2FFF7ADFE2C20FFF79EFE013F4F443C1901235B429C46E34432E0631E01932378994601240023984623E04B46234201D10C9D07
:4008400000E0009D6400E4B24B461C4201D10C9E00E0009E6400E4B22811FF273840FFF785FE2D013D4033120F2018402843FFF77DFE38003040FFF779FE02239C46E0443B
:40088000D045D9DB01235B429C46E344019C5B46002BC9DA03B03CBC90469946A246AB46F0BDC0463C510000F0B585B0070002930A9E10310D000832039214000DE00137AC
:4008C0000096029B22002900FFF772FF0834832C01DD1035039C832D02DC38780028EED105B0F0BDF0B55F4656464D464446F0B483B004000D0001929B465B1A171A002BAF
:4009000004DA5B4201225242924601E001229246002F04DA7F4201225242914601E0012291465B0098467F000C9A29002000FFF799FEB84512DA7B104246D61A0AE0002E62
:4009400001DB5544F61B4C4446440C9A29002000FFF788FE019B9C42F1D111E043465E10BE1B0BE0002E02DB4C444346F61A5544F6190C9A29002000FFF774FE5D45F1D1ED
:4009800003B03CBC90469946A246AB46F0BDC046044A1368DBB201218B430840184310607047C046000304408423014AD05070470000002010B5040000F0A8FC044A1168E1
:4009C000044B0B40A4031C43146000F0A3FC10BD10E400E0FF3FFFFF80229202014B1A607047C04600E100E080229202014B1A607047C04680E100E010B5FFF7F5FF044808
:400A0000FFF7D2FF0320FFF7D5FFFFF7E5FF10BD250A000080229202014B1A607047C04680E200E010B500F093FB044B1860FFF7F1FF022000F0E2FB10BDC04668010020F6
:400A40008023014AD05070470000002010B5040000F05CFC044A1368C0218B43A4011C43146000F057FC10BD10E400E080225202014B1A607047C04600E100E0802252027C
:400A8000014B1A607047C04680E100E010B5FFF7F5FF0448FFF7D4FF0320FFF7D7FFFFF7E5FF10BDB90A000080225202014B1A607047C04680E200E010B5002000F038FB92
:400AC000FFF7F2FF012000F011FC10BD014B18647047C0460000002010B5040000F016FC044A1368C0218B43A4011C43146000F011FC10BD00E400E00122014B1A60704796
:400B000000E100E00122014B1A60704780E100E010B5FFF7F7FF0448FFF7D8FF0320FFF7DBFFFFF7E9FF10BD390B00000122014B1A60704780E200E010B500F0EFFB0128BD
:400B4000FBD0074A1368013B136000F0E7FB0028FBD0192000F058F9FFF7E8FF10BDC04668010020014B98647047C0460000002010B5040000F0CAFB044A1168044B0B40B3
:400B8000A4051C43146000F0C5FB10BD00E400E0FFFF3FFF0422014B1A60704700E100E00422014B1A60704780E100E010B5FFF7F7FF0448FFF7D6FF0320FFF7D9FFFFF745
:400BC000E9FF10BDD50B00000422014B1A60704780E200E010B500F0A9FB0128FBD006E0064A1368013B1360322000F00DF900F09DFB0028F4D0FFF7E7FF10BD68010020E0
:400C0000014BD8647047C0460000002010B5040000F07CFB044A13689B009B08A4071C43146000F077FB10BD00E400E00822014B1A60704700E100E00822014B1A60704798
:400C400080E100E010B5FFF7F7FF0448FFF7D8FF0320FFF7DBFFFFF7E9FF10BD6D0C00000822014B1A60704780E200E010B500F065FB0128FBD00022054B1A6000F05EFB2B
:400C80000028FBD0192000F0BFF8FFF7E9FF10BD6801002004490A68D2B202239A43400018401043086070470003044010B500F02DFB0B4A117820230B43DBB213700949E9
:400CC0000A7810231A43D2B20A70074A11780B43DBB2137000F01EFB00F06EF810BDC04693000F4091000F4090000F40014B1878C0B2704761000F40014B1878C0B270471F
:400D000060000F40034B1B785B07FBD5024B18807047C04661000F4080100F4010B501E00E4B1B880E4B1B789B06F9D400F0EEFA0C490A78012401231A43D2B20A700A78EF
:400D4000A2430A70084A11780B43DBB213701378A343137000F0DEFA10BDC046A0100F4060000F4090000F4091000F4010B51122064B1A70FFF7D2FFFFF7B8FFFFF7BCFFE7
:400D80000023034A1370034A137010BD83000F4081000F4080000F4010B5064B1B78002B04D1FFF7E3FF0122024B1A70FFF77EFF10BDC04674010020034A13688021090664
:400DC0000B4313607047C046000002401F2318401E3B8340014A13607047C04600E100E001BE704770B504000D001F2802D90020FFF7F6FF1034A40080239B059C466444B3
:400E00002068256070BDC04610B5040006E0084B586800F071FA074B9C46644480231B029C42F4D8024B9868604300F065FA10BDC80000200080FFFF10B5034B1B7B584359
:400E400000F05AFA10BDC046C8000020F0B557464E46C0B483B0040000F058FA0190E71E2D2F74D83F4B1B78DBB29C4208D83E4B1B78DBB29A463D4B1B78DBB2994631E0E9
:400E80003B4B1B78DBB29C4208D83A4B1B78DBB29A46394B1B78DBB2994623E0374B1B78DBB29C4208D8364B1B78DBB29A46354B1B78DBB2994615E0334B1B78DBB29C42F2
:400EC00008D8324B1B78DBB29A46314B1B78DBB2994607E02F4B1B78DBB29A462E4B1B78DBB299462D4BDE5D2F2E09D92A2C07D919222B4B1A60052000F0FEF9192503E0C1
:400F0000274B1D683F231D40B54206D9234BDA5D234B1A60052000F0EFF91F4B9C4664442378DBB21F4A13601F4B52461A601F4B4A461A600520FFF77FFFB5420AD2174BE5
:400F4000DA5D174B1A60052000F0D6F902E00020FFF746FF019800F0DDF903B00CBC91469A46F0BDC0F1FF0FC1F1FF0FC2F1FF0FC3F1FF0FC4F1FF0FC5F1FF0FC6F1FF0FB1
:400F8000C7F1FF0FC8F1FF0FC9F1FF0FCAF1FF0FCBF1FF0FCCF1FF0FCDF1FF0F4C5700002CFF0B4028FF0B401CFF0B4020FF0B40034B1868C0231B02184000D00120704789
:400FC00000010B4010B500F0A1F9044A1368C02109020B43136000F09DF910BD00010B4010B500F093F908490A68084B1A408024E40122430A600A68134080221202134367
:401000000B6000F087F910BD00010B40FF3FFFFF70B5050000F07AF90400FFF7C9FF002803D0FFF7DDFF012100E0002108482840084A1568084B2B4018431060136801298C
:4010400001D1FFF7BFFF200000F064F970BDC0460404040010020B40FBFBFBFF10B5244B1B685B0715D5234B1B685B070ED5224BD969042001401F4C22688A432260DA691D
:401080008243DA611B69002B00D098470420FFF7BFFF174B1B685B0518D5164B1B685B0510D5154BD9698022D2001140114802688A430260D969114A0A40DA615B69002B35
:4010C00000D098478020C000FFF7A2FF084B1B685B030CD5074B1B685B0304D5064B9B69002B00D098478020C002FFF791FF10BD10020B40DC00002078010020FFFBFFFF5B
:4011000004490A68D2B204239A43800018401043086070470000044004490A68D2B208239A43C0001840104308607047000004400004000C014B18607047C04648010540A2
:401140000004000C014B18607047C04654010540024B18680004000C7047C0464C01054070B504000D0000F0D1F8AC40024B1C6000F0D0F870BDC0460800054010B500F087
:40118000C5F8064A116802230B43136000F0C2F818210220FFF7E4FF10BDC04600000540014B18607047C0467801054010B580229204074B1A600C22064B1A600220FFF7B4
:4011C000EFFF0548FFF7BCFF0020FFF7B1FF10BD4001054064010540FFFF000010B5064B1B78002B04D1FFF7E1FF0122024B1A70FFF7C4FF10BDC04698010020014B1860C0
:401200007047C046700105400004000C014B18607047C046080105400004000C014B18607047C046140105400004000C014B18607047C0460C01054070B504000D0000F068
:4012400065F8AC40024B1C6000F064F870BDC0460800054010B500F059F8064A116801230B43136000F056F818210120FFF7E4FF10BDC04600000540014B18607047C046D2
:401280003801054010B50E4C8023DB042360236823600020FFF7B8FF236823600C22094B1A600120FFF7E8FF3122074B1A60FA208000FFF7B1FF6420FFF7B6FF10BDC04648
:4012C00000010540240105402801054010B5064B1B78002B04D1FFF7D5FF0122024B1A70FFF7B8FF10BDC04699010020014B18607047C046300105400230800804D0C0469E
:401300000138FDD1C046C046C0467047EFF3108072B6704780F310887047C046024B1B68012018407047C04604000440024B1868400901231840704704030440024B186815
:4013400080090123184070470402044030B5204A4B0087B05B0893421CDD1E4A934205DD02000B0002F02CFD07B030BD02AA00F07BF803231840049A059B012818D0022874
:401380000DD000281ED0029803990124009400F0DDFFE9E70022002300F06CFAE4E70298039900F067FA80231B069C466144DBE700900298039900F0C9FF80231B069C4691
:4013C0006144D1E70298039900F054FACCE7C046FB21E93FFFFFEF7F30B5214A4B0087B05B0893421EDD1F4A934205DD02000B0002F0E6FC07B030BD02AA00F035F803231A
:401400001840049A059B01281ED0022811D000281FD00298039900F02DFA80231B069C466144E7E7002300220093002300F08EFFE0E7012402980399009400F087FF802330
:401440001B069C466144D5E70298039900F012FAD0E7012402980399009400F077FFC9E7FB21E93FFFFFEF7FF0B54E4657464546E0B4DC4B4E0090B01700894676089E427C
:4014800000DC81E0D84B9E4220DCD84A002900DC89E1D74B02F094FCD54B04000D009E4200D18AE0D34AD44B02F08AFC02000B0020003A607B60290002F082FCCD4ACE4B50
:4014C00002F07EFCB860F960012066E0CB4B9E4200DC8DE0CA4B9E4265DCCA4932158A46924453461B05F51A2900040002F0BCFF02F0F0FF02000B00200029000A920B9320
:4015000002F05EFC0022C04B02F0E0F90290039102F0AAFF02F0DEFF04000D0002000B00029803990C940D9502F04AFC0022B64B02F0CCF9002200230E900F9101F048FA79
:40154000002800D14CE1002300222000290001F03FFA0222431E9841131AAC4A3900019202220AA80092524600F09EFA4B46002B13DA8022120694467B68404263447B6094
:40158000FB686344FB6008E002000B003A607B60002200230020BA60FB6010B01CBC90469946A246F0BD02000B0002F009FCB860F960386079600020EFE7D3228E4B52059F
:4015C00002F0FEFB924A934B04000D0002F0F8FB02000B0020003A607B60290002F0F0FB8B4A8C4B02F0ECFBB860F9600120D4E700F05CFF884A894B04000D0002F066F983
:401600000022874B01F012FA02F02EFF804602F061FF764A764B0690079102F057F902000B002000290002F0CBFB734B02900391069807996F4A02F049F9434604000D00DA
:40164000049405951F2B30DC013B764A9B009B589E422AD002000B000298039902F0B0FB02000B0005000C003A607B60029803992A00230002F0A4FB049A059B02F0A0FB2C
:4016800006000B003200BA60FB604B464046002B00DB82E780231B069C46644461443D607C60BE60F960404277E7049A059B0298039902F085FB0B0002003A607B604B0076
:4016C00036155B0D05000C00F31A102BCEDD06980799D322484B520502F0F8F804000D0002000B000298039902F06AFB02000B00029803990892099302F062FB22002B0074
:4017000002F05EFB04000D0006980799404A414B02F0DCF822002B0002F052FB02000B00049005910898099902F04AFB02000B003A607B604B005B0DF61A0500089A099B67
:401740000C0002920393312E90DD06980799B822304B920502F0BAF804000D0002000B000298039902F02CFB0A00010013000291039202000898099902F022FB22002B0046
:4017800002F01EFB04000D0006980799264A274B02F09CF822002B0002F012FB02000B000492059358E7124B01F040F9104B04000D009E423CD00F4A0F4B01F037F90200EC
:4017C0000B0020003A607B60290002F0F9FA094A094B01F02BF9B860F96001204042DCE60323BAE6FB21E93F7BD9024000004054FB21F93F3163621A61B4D03DFB21394159
:40180000FFFFEF7FEAFBFFFF00007041FC5700007370032E8A19A33B83C8C96D305FE43F0000E03F7C570000C14920259A837B39D3220D4B520501F0F9F80C4A0C4B040044
:401840000D0001F0F3F802000B0020003A607B60290002F0B5FA054A054B01F0E7F8B860F9600120404298E661B4D03D7370032E8A19A33BF0B54F464646C0B487B0009258
:401880000193754B4F00814688467F089F4263DC02F0EAFD002800D1DAE04A4643464846414602F013F804000D006C4A6C4B02F00DF86C4A6C4B01F0B9F822002B0002F0CF
:4018C00005F86A4A6A4B02F07BFA22002B0001F0FDFF684A684B01F0A9F822002B0001F0F5FF664A664B02F06BFA22002B0001F0EDFF644A644B01F099F822002B0001F0B9
:40190000E5FF029003910022604B2000290001F0DDFF029A039B06000F002000290001F0D5FF009A019B04000D004846414601F0CDFF02000B002000290002F041FA0200BF
:401940000B003000390002F03BFA02000B0000204F4902F035FA70E002000B0001F0B6FF04000D003D4A3E4B01F0B0FF3D4A3E4B01F05CF822002B0001F0A8FF3B4A3C4BDC
:4019800002F01EFA22002B0001F0A0FF394A3A4B01F04CF822002B0001F098FF374A384B02F00EFA22002B0001F090FF354A364B01F03CF82B00220001F088FF354B029067
:4019C00003919F429FDD344B00229F423ADC334900207B182E4916001F0002F0F1F9049005910022294B2000290001F06FFF32003B0002F0E5F9029A039B06000F00200093
:401A0000290001F063FF009A019B04000D004846414601F05BFF02000B002000290002F0CFF902000B003000390002F0C9F902000B000498059902F0C3F907B00CBC9046FF
:401A40009946F0BD164B002604920593154FC8E700200F49F1E7C046FFFF3F3ED43888BEE9FAA8BDC4B1B4BD9EEE213EAD529C804F7E923E9015CB19A001FA3E7751C1161D
:401A80006CC1563F4C5555555555A53F0000E03F0000F03F3233D33F0000E93F0000E0FF0000E73F0000D23FF0B556464D4644465F46F0B4904CA544099119001400A89A13
:401AC0000B938E4B9200D2580B000290013BE01E18211D0016000892009300F07DFEC3430200DB171A401300110001330E929A009B1ADB001B1906934C1B761918D4A99B6F
:401B0000A5009C46361926AF6544013607E0286802F0E0FC013403C70435B44208D0002CF5DA00200021013403C70435B442F6D1089B002B01DA00F0FDFB76AB0A939A466F
:401B4000009B0B9A9946089B94469B46D300E3449C46029A059362449046009B002B00DABBE14B46DC0026AB9C4600260027029D64442268636803CD01F0A8FE02000B00A3
:401B80003000390000F052FF083C06000F004545EFD15346C0C39A4601239C46E144D945DBD1089A564913008C4663449B0012A8844619000298614484460D910599043366
:401BC00061448B4612A98C4663440F930592059A0A98D30019000C938C46030063441E685F68002A34DD12AB99461300454A804694466344DB00984474AB9A460022424B48
:401C00003000390001F062FE02F02EFC02F062FC00223E4B04000D0001F058FE02000B003000390002F0CCF802F01EFC4B4601C39946434620001A685B68290000F0F6FE14
:401C400008235B429C46E04406000F00D045D5D1069B30001A003900994600F0C3FCFF2300229B0504000D0001F030FE00F022FC0022274B01F02AFE02000B0020002900EF
:401C800002F09EF804000D0002F0EEFB804602F021FC02000B002000290002F091F84C4606000F00002C00DCF8E0059B18205A1E920012AB9B58001B1900014188448140EE
:401CC0005B1A12A98B501722121B13410793079B002B4BDD01239C46059BE044002B00DCF2E280251096119712AB0021002409486D04059F19E0C04684FDFFFF04590000B5
:401D0000FEFFFF3FFFFFFF1F0000703E0000704100002040FFFFFF00002A02D0AA1A1A600134013104338F4209DD1A68002CF3D0821A01311A60012404338F42F5DC109E9C
:401D4000119F069B002B0EDD012B00D1B1E0022B09D1059B12A95A1E920012AB9B5810939B029B0A8B50079B022B7ED0002300223000390000F02CFE059B002800D16BE2C7
:401D800008995A1E914210DCBF490F988C4612A963448C4600219B0063441C68043B21438342FAD1002900D0B5E0089B12AA013B9B00D358002B00D084E201220D9B043B22
:401DC000596801320029FAD005990B008C46013362440792934242DC0E9A9446A99A634492460B9A9B00944626AA90469A44059B0A9A6344DB0098440C9B94469946079B95
:401E0000E144DB00634405935346186802F062FB434618605960009B002B23DB444600260027029D2268636803CD01F04FFD02000B003000390000F0F9FD083C06000F00F0
:401E40005D45EFD14B469E60DF6004239C460433E2449C46059BE144E0449945D4D1079B0593B4E600260027ECE732003B000020864901F0A5FF06000F00002C00D175E72B
:401E8000069A0020814900F0ADFB02000B003000390001F095FF06000F0067E7069B002B12D1059B12AA013B9B00D558EB1507930DE7059B12A95A1E920012AB9B5810934D
:401EC0005B025B0A8B504EE70022714B00F0A4FD00280ED10023079348E7534600260027C0C39A4601239C46E144D94500D034E657E601239C4601330793059BE044002B32
:401F000000DDEEE632003B000020604901F058FF06000F002AE743460B93069B12A8183B190006939300C3580092002B0FD156481300844612A8634484469B006344043B53
:401F40005868013A18390028F9D000920691069A00204E4900F046FB009B04000D00002B00DAB3E112AA94469F00DB0067449C460A9A0593624493461600386802F0AAFA8A
:401F800022002B0001F0A2FC424B3060716000222000290001F09AFC083E74AB04000D00043FB342E9D100239A464EAB0293089B99464B4600260027002B21DB8020364BC4
:401FC0005D469846C005354900260027002408E008239C460835E044A24511DB4346186859682A686B6801F071FC02000B003000390000F01BFD013406000F00A145E7DA87
:40200000029A53469446DB0063441E605F6001239C46093BE2449C4674ABE3449B45C8D1029B9946A89B022B00DD82E0002B37DC1DD1059B00254B441E000024326873685F
:402040002800210000F0F2FC009B05000C00083E5A1E0092F2D2079B002B03D080231B069C4664442A00230009990A604B6007200B9B18409F239B009D443CBC9046994677
:40208000A246AB46F0BDC046FFFFFF3F0000F03F0000E03F0000703E18590000FB21F93F059B00204B441E0000214CAF32687368083E00F0BBFCBE42F8D1079B002B24D022
:4020C0008023099A1B06CB18106053600B0002004E984F9901F074FE009B002B0BDD012450AD0CCD00F0A2FC009B0134A342F8DA079B002B03D080231B069C4661440B0081
:40210000020009998A60CB60B1E702000B00099C226063600B0002004E984F9901F050FE009B002BDBDC0B00020009998A60CB609DE7A89B032B9AD1009B002B00DCE3E037
:402140007F4A059B94464B441E685F68009B63449A46DB004B4498464CAB9B4643465C681B681800210032003B000290039100F05DFC04000D0002000B000298039901F0D4
:402180001FFE3B00320000F051FC43469860D9601C605D6008235B429C46E04426002F00C345DBD1009B012B00DCADE0059BC8464B441E685F685346DB009B46D8444346DA
:4021C00030005C681B683900009301941A00230000F02CFC04000D0002000B000098019901F0EEFD3B00320000F020FC43469860D9601C605D6008235B429C46E044260026
:402200002F00C145DBD15D460027002408354D4450AE2A686B683800210000F007FC083D07000C00AE42F4D1079B002B71D08021099A4E9B090613604B468C465B686444BA
:40224000634453604B469B68176193604B46DB6854616344D3600AE7994643460B93069B30005A42390000F0BDF90022354B04000D0000F0D1FB002832D0334B0022200006
:40228000290001F023FB02F0EFF84A460600970002F020F900222B4B01F018FB02000B002000290001F08CFD02F0DEF812AAD0514A46069B0132183300920693930012AA9B
:4022C000D65044E601227FE500243AE5A89B022B14DC002B0FDC00D0C9E600250024BAE64B46200029009E0002F0BEF812AB98514B4600932BE600200021DEE64EAB99460E
:40230000A89B032B00D0B2E6079B00270024002B8DD14E9A4F9B09990A604B604B469A68DB68009201938A60CB603A0023000A614B619CE676AB0A930B9BDB00059330E4D3
:40234000FFFFFF1F000070410000703EF0B54F464646C0B487B000920193464A4B00814688465B08934205DC02F07EF84146031E484666D04A4643464846414601F0A6FA2F
:4023800004000D0002000B004846414601F09EFA394A3A4B06000F002000290001F096FA374A384B01F00CFD22002B0001F08EFA354A364B00F03AFB22002B0001F086FAD3
:4023C000334A344B01F0FCFC22002B0001F07EFA314B324A00F02AFB0E9B02900391002B34D00098019900222D4B01F06FFA029A039B049005913000390001F067FA0200F0
:402400000B000498059901F0DBFC22002B0001F05DFA009A019B01F0D3FC224A04000D00214B3000390001F051FA02000B002000290000F0FBFA02000B004846414601F028
:40244000BFFC07B00CBC90469946F0BD02000B002000290001F03AFA124A134B01F0B0FC32003B0001F032FA4A46434600F0DEFAE7E7C046FFFF3F3E7CD5CF5A3AD9E53D85
:40248000EB9C2B8AE6E55A3E7DFEB157E31DC73ED561C119A0012A3F1111813FA6F810110000E03F495555555555C53F49004B0819007047454AF8B5564692464B005B0D56
:4024C0009A444D465F4644465246F0B4894605000C000E000700132A22DC002A47DB52463B4B134198460B0042461340034311D0384A394B00F09AFA0022002300F082FAEC
:40250000002805D0002C41DB4E46434600279E43380031003CBC90469946A246AB46F8BD5246332A08DD8023DB009A45F2D102000B0000F07BFAEDE7284A94460122634437
:402540005242DA4093460242E4D0224A224B00F06DFA0022002300F055FA0028D8D0002C1ADB5B464E469F4338003100D2E7194A194B00F05BFA0022002300F043FA002858
:40258000C6D0002C16DB00270026C1E7802352465B0313419944B7E75346142B12D03423524601279B1A9F407F19AF429B415B429944D6E76400640825430027002DA7D007
:4025C000074EA5E7133B9C46E144CAE701FCFFFFFFFF0F009C7500883CE4377EEDFBFFFF0000F0BF4B0070B55B0D14000A00002B1AD14B005B08034315D00022224B01F084
:4026000065F9224B0A009C4222DB4B005B0D363B1F4DE318AB4220DC002B0DDD1D4C1B0522401A43110070BD1B4DAB42F0D102000B0000F0FBF9F6E71D00353518DA174B1C
:4026400002009C420ADC0B001548164900F032F8134A144B01F03AF9E5E702000B001248124900F027F8104A104B01F02FF9DAE7084C363322401B051343190000220C4B80
:4026800001F024F9CFE7C04600005043B03CFFFFFE070000FFFF0F80FF07000050C3000059F3F8C21F6EA5019C7500883CE4377E0000903C30B54A00DB0FDB0752081A4303
:4026C000110030BD002243088B4274D303098B425FD3030A8B4244D3030B8B4228D3030C8B420DD3FF22090212BA030C8B4202D31212090265D0030B8B4219D300E0090A06
:40270000C30B8B4201D3CB03C01A5241830B8B4201D38B03C01A5241430B8B4201D34B03C01A5241030B8B4201D30B03C01A5241C30A8B4201D3CB02C01A5241830A8B42EF
:4027400001D38B02C01A5241430A8B4201D34B02C01A5241030A8B4201D30B02C01A5241CDD2C3098B4201D3CB01C01A524183098B4201D38B01C01A524143098B4201D363
:402780004B01C01A524103098B4201D30B01C01A5241C3088B4201D3CB00C01A524183088B4201D38B00C01A524143088B4201D34B00C01A5241411A00D201465241104671
:4027C0007047FFE701B5002000F0F0F802BDC0460029F7D076E7704703460B437FD4002243088B4274D303098B425FD3030A8B4244D3030B8B4228D3030C8B420DD3FF22AB
:40280000090212BA030C8B4202D31212090265D0030B8B4219D300E0090AC30B8B4201D3CB03C01A5241830B8B4201D38B03C01A5241430B8B4201D34B03C01A5241030B66
:402840008B4201D30B03C01A5241C30A8B4201D3CB02C01A5241830A8B4201D38B02C01A5241430A8B4201D34B02C01A5241030A8B4201D30B02C01A5241CDD2C3098B4264
:4028800001D3CB01C01A524183098B4201D38B01C01A524143098B4201D34B01C01A524103098B4201D30B01C01A5241C3088B4201D3CB00C01A524183088B4201D38B00BE
:4028C000C01A524143088B4201D34B00C01A5241411A00D201465241104670475DE0CA0F00D04942031000D34042534000229C4603098B422DD3030A8B4212D3FC22890103
:4029000012BA030A8B420CD3890192118B4208D3890192118B4204D389013AD0921100E08909C3098B4201D3CB01C01A524183098B4201D38B01C01A524143098B4201D30A
:402940004B01C01A524103098B4201D30B01C01A5241C3088B4201D3CB00C01A524183088B4201D38B00C01A5241D9D243088B4201D34B00C01A5241411A00D20146634644
:4029800052415B10104601D34042002B00D54942704763465B1000D3404201B5002000F005F802BD0029F8D016E770477047C0468446101C62468C46191C634600E0C046AA
:4029C0001FB500F019FF002801D40021C8421FBD10B500F06DFE4042013010BD10B500F00BFF002801DB002010BD012010BDC04610B500F001FF002801DD002010BD0120EA
:402A000010BDC04610B500F093FE002801DC002010BD012010BDC04610B500F089FE002801DA002010BD012010BDC046F8B556465F464D464446F0B40F00FD0FAA460903B1
:402A40007C002E005F00450F490A7F0D2943C5001803BC46400A570F640DDB0F3843D2009A4500D1AAE06646A61B002E00DCFFE06346002B39D10300134300D0D9E06B07B2
:402A800009D00F232B40042B05D02B1DAB42AD416D4249191D000B0200D482E0CA4B01349C4200D1FEE00A005646C84BED081A405007640552020543120B640D0021120309
:402AC0000B0D1B056405120B1A436308C04CF60714401C43640064083443280021003CBC90469946A246AB46F8BDB74B9C42C6D080231B041843382E00DDEBE01F2E00DDFE
:402B00001EE120239B1B9C4603006746BB40984613004746F3403B436746BA40571EBA4113430200F240EB1A9D42B6411D008A1A7642911B0B0231D54A02560A002E00D182
:402B4000B4E0300001F008FD0300083B1F2B00DDB5E020222900D21AD1409E400A009D4032439C4200DDB1E01C1B631C1F2B00DDD5E0202114002800C91A8C40D8408D4008
:402B80000443DA40681E854111002543002476E74146314300D134E2310045466B0700D06FE756464807ED08C9080543864B9C4235D00A036405120B640D7FE76346E31A7B
:402BC0009B46002B00DC8BE06746002F3CD07E4FBC4200D153E780273F0438435B46382B00DCF7E00243501E82410020D2B253194218AB4289411D00494289180B02CDD519
:402C0000714B01349C4200D13DE101206F4A6B080A4028401843D507054351082FE72B000B4300D1CBE180231B030B431A03120B44E7013E002E6DD1AE1AB5429B41091A16
:402C40005B42C91A350075E70700174300D116E701235B429C46E3445B46002B00D0E0E0AA18AA429B4109185B4259181500C5E7002E75D1661C7605760D012E00DCF3E0A2
:402C8000AE1AB0464545BF410E1A7F42F61B370200D48FE0551BAA42B641411A76428E1B9A464BE756460022002507E7280001F053FC20300300083B1F2B00DC49E72A00E6
:402CC0002838824000259C4200DC4DE73F49E41A1140D4E60243501E8241D3B2002222E7002B00D0F3E0631C9C465B055B0D012B00DC9FE0344B9C4500D1C3E0AA180918B3
:402D0000AA42804140424118CD075208154349086446B4E62C4B9C4200D0ECE6AFE611001F3CE1400C00202B00D17FE04021CB1A9A4015436A1E95410021254300242DE7B9
:402D400033000700203BDF403B00202E70D04027BE1BB0400243501E824113430022E2E6002C4FD0184CA44500D1ABE08024240476422143382E00DDDFE01F2E00DD43E1C4
:402D80002027BC1BA1460C004F46BC40A0462C004746F4403C434F46BD406F1EBD41F1402C43151BAA429241411A5242891A64469A46BFE641464546314300D0BEE6002692
:402DC00000240025F2E6C046FF070000FFFF7FFFFFFF0F801F2B59DC2027FF1ABC46070063469F405B46B9461700DF40B8464F4643461F4363469A40531E9A415B463A43EC
:402E0000D840F4E60C002C435CD0F643002E55D1551BAA42A441411A6442091B9A46644688E6964FBC4200D0D8E628E6002280E700208FE70B002B43002C00D0C2E0002B2E
:402E400000D101E10300134300D118E6AB18AB42B6410918764271180A0200D409E1884A1D00114064460AE6002C5BD10E002E4300D08AE00100114300D1C2E001001500DB
:402E80009A46FCE56446002100258FE620235B429C46DC4463460700DF405B46BC46202B00D1ACE040235F46DB1B98400243501E8241634613431A00002098E66F4CA44549
:402EC00000D057E70100150064469A46D7E5002C39D10C002C436ED0DB43002B1AD0674CA44568D0382B00DDA4E01F2B00DDAEE020240F00E41AA740B9462F00DF40B84676
:402F0000A3464F46444627435C46A5406C1EA541D9403D43AD1895429B4109185B42591864466BE60C002C4315D1010011437BD0010015009A46514CA1E50D43691E8D412E
:402F40000021ECB22DE74D4CA44534D0802424045B422143C6E7040014434ED0ED084C072C438025C9082D03294208D0C6082E4205D1D208410711430C009A463100620F4D
:402F8000C900E50011433D4C79E50600164300D175E5AE1AB0464545BF410E1A7F42F61B370200D4F4E5551BAA42B641411A7642891B9A4663E50100150064465FE500221E
:402FC00000257BE5002B3BD00300134315D0ED084B072B438025C9082D03294207D0C4082C4204D141070B002100D2081343C9005A0F1143DD00214C41E5204C3FE50020E2
:4030000054E700260025D1E534000F00203CE7403C00202E2BD04027BE1BB1400D43691E8D4100212C43BCE6802100260903134C0025BBE50D43691E8D410021EDB269E755
:40304000010015000D4C1AE50100150017E51C000F00203CE7403C00202B0CD04027FB1A99400D43691E8D410021254352E70021D4E71D0092E50021F3E7C046FF0700008C
:40308000FFFF7FFFF0B556464D4644465F46F0B41D000E034C00CB0F87B0070092468146360B640D98466AD06D4B9C4235D08022430F12041343F6001E43C3009946694B4A
:4030C00000279C460023644402932B0368001B0BED0F51469B46400D009500D178E0604B98426CD05B46DA004B0F802109040B4313439B465346D9005A4B9C4600236044A3
:403100004246201A6A40924601901F430F2F00D9B0E05548BF00C0598746374300D088E0002399460233082700260293CDE74346B34649460093029B009A9246022B00D038
:40314000BFE1002153460122002689461A40444B002136030C0D2405360B2643434C1B0526401E437600D207760816434846310007B03CBC90469946A246AB46F0BD330036
:4031800003434FD0002E00D1BCE1300001F0E4F903000B3B1C2B00DDADE11D220100D31A08393A008F408E40DA40B9461643304B00279C46002360444442029385E75346F3
:4031C0005A4613432CD1002300219B46023397E70B4320D05B46002B00D19EE1584601F0BBF903000B3B1C2B00DD8FE102005946083A91408B461D21CB1A5146D9400B0027
:4032000059460B4351469B469140194B9C4660444042002374E7002300219B4601336FE703236DE70023994601330427002602934BE703230C27029347E70122D51A382D64
:4032400000DCB0E153461A4000210023002689467EE700238026994600223603004B77E7FF07000001FCFFFF58590000FFFF0F80F30300005E4500D972E100D16DE1019BE5
:403280004D46013B01930023340002935B461E020B0E1E430B020393330C994633041B0C494620000093FFF70DFA009B370043430600494620009846FFF78AFA2C0C09047C
:4032C0000C43A04509D9E419731EA74200D95CE1A04500D859E1023EE4194346E41A49462000FFF7EFF90300009A80465343494620009B46FFF76CFA2A040904120C0A4358
:4033000093450DD94346D219013B974200D93AE1934500D837E102235B429C46D219E0445B46D21A4346360433439B460399180C0B0C1D00059309045B46090C0C001B04B6
:403340001B0C4443049159436B4368431B190D0CEB189C4203D980246402A44660441C0C09041B04090C20185D18824200D2DEE000D1D7E0161A029B9C465D1BAC459B418D
:403380005B42F61AB74200D106E149463000FFF799F9009B04004343494630009846FFF717FA2E0C09040E43B04509D9F619631EB74200D9F3E0B04500D8F0E0023CF61911
:4033C0004346F31A494618000293FFF77BF9009B06004343494602989846FFF7F9F92D0409042D0C0D43A84509D9ED19731EAF4200D9D6E0A84500D8D3E0023EED192404E8
:40340000210043463143049E059A3000ED1A0B040C0C1B0C58436643534354439A19030C9B189E4203D980225202944664441A0C00041B04000C14191B18A54250D34DD0B2
:4034400001231943964A019B94466344002B00DCF3E64A0709D00F220A40042A05D00A1D8A42894149428B4411005A46D20108D55A468C4B1A4093468022D2009446019B3B
:403480006344894A934200DD5BE65A46C908500708435602514601225B058146360B5B0D0A4055E680231B031E4211D05A461A420ED15E461E433603360B2A0089467B4B0A
:4034C00046E6032B00D1E1E0012BBBD11A40BBE61E433603360B4246744B39E6002BB1D07D194A1EAF4252D91100A542A8D1039A9A42A5D1A6E703003E00283B9E40002394
:40350000994654E601F028F8203041E603005246283B9A400021934677E6504601F01CF820305EE6029B0026AB4200D323E7039E0299B44661448846B045B6415B46764211
:40354000F619B218013B0291974213D290424FD800D18EE0161A9B460DE7894500D28EE674084B46F60735005B081D434B46DB0702938BE69742EDD10399029CA142E5D9A7
:403580003E1A9B46F7E69846CAE61E00A5E6AC423ED874D0110053E70121494252E71C000EE71E002BE71F2D3CDC20230A0058465B1B9840EA4099400243481E81415E4653
:4035C0001143EE404B0709D00F230B40042B05D00B00191D99429B415B42F61833023CD55346012200211A40002601238946AFE502235B429C46039CE344A446029B634438
:403600009846A045B6417642F6190293B218B1E603988A1E41008142B6417642F619AD19039161E71F225242D31A5A46DA401300202D29D040225846551BA8400143481E95
:40364000814107200B4318400026002809D00F2200261A401900042ABBD10B0070077602360BDB0803439946012253461A4000236EE502998D42BBD89B4600267BE6039841
:403680009842C5D3110032E70020D7E780265B4636031E433603360B009A8946034B57E5FF030000FFFFFFFEFE070000FF070000F0B55F4656464D464446F0B41F035C0015
:4036C000DB0F9A46194B0E034D00C90F8046360B6D0D8B4691463F0B640D9D4219D0134B9C421BD00123A54206D018003CBC90469946A246AB46F0BDBE42F6D1C845F4D1CE
:40370000D34510D0002DF0D1304303005A1E9341EBE7310001230143E7D1E0E73A430123002AE2D1DEE70023DFE7C046FF070000F0B55F46444656464D46F0B41F033C0BAF
:403740002C4F0E034D00A3465C008446360B6D0DC90F9046640DDB0FBD422BD0254FBC422ED0002D0ED130430700814678427841002C17D15F463A4314D14B460020002B7C
:403780000AD006E0002C02D15846024301D099421AD00123484218433CBC90469946A246AB46F0BD0028F2D058425841012240421043F1E737000743D0D002204042EBE711
:4037C0005F461743CDD0F8E7A542E2DC05DB5E45DFD808D000205E45DED248424841012340421843D8E7C445D3D80020C445F4D3D2E7C046FF070000F0B55F464D46444681
:403800005646F0B41C03240BA4462F4C0F034D005E00C90F80463F0B6D0D8B469146760DDB0FA54220D0284CA64222D0002D12D1384344424441002E20D0002C0DD05C42E1
:40384000634101245B421C4320003CBC90469946A246AB46F0BD002E17D05B4519D05B465C4201231C43EFE7390002240143EBD1D9E7614602241143E6D1D7E761460A4351
:40388000DBD100240028DFD0E9E761460A43E4D1E5E7B54203DD01225C421443D4E7B542CDDB6745DBD809D000246745CCD259464C426141012449420C43C5E7C845CED800
:4038C0000024C845F3D3BFE7FF070000F0B55F4656464D464446F0B40D0399464E002B0B87B00700924680469B46760DCC0F002E69D06D4B9E4235D05B468022DD001204B6
:40390000430F13432B439B46C3009846674B00279C460023664401934A4615035000D20F53462D0B400D914600D176E05E4A90426CD080225B0F120413435C4AED00944643
:403940001D4353460022DB00604449463618701C6140029017430F2F00D9AFE05448BF00C759BF465B461F4300D088E000239B469846023308270193CEE74946022A6AD0D2
:40398000032A00D109E2012A00D0BBE111400022002300259046CCB200212D030A0D12052D0B1543434A1B0515401D436D00E4076D0825434046290007B03CBC90469946BF
:4039C000A246AB46F0BD034352D05B46002B00D18AE1584600F0C0FD03000B3B1C2B00DD7BE11D22D31A3A0001005D46DA4008398D4013008F402B439B46B8462E4B0027BC
:403A00009C46002360444642019385E752462A432CD100250023022297E752462A4321D0002D00D154E1280000F096FD03000B3B1C2B00DD46E11D21CB1A51460200D9402C
:403A40005346083A954093400D431B4A944660444042002279E7012400220C40124B0025904699E70025002301226EE703226CE700239B4698460133042701934CE70323BB
:403A80000C27019348E700238025984600242D03054B81E75D464346019A6FE75D4643462100019A6AE7C046FF07000001FCFFFF98590000FFFF0F80F30300004246120CE7
:403AC00091461A0C9446424617044A461B041B0C5A43604690464A4642431000039262461C003F0C7A437C4342440192220C9246019A5244904506D98246802040028046A4
:403B0000C24450460390100C049048462404240C1204121905922A0C2D042D0C68432C00824648467C4350438146200C8046574357444744BA4503D9802040028046C144C8
:403B4000380C3F04B84648442404240C01900498A044404404905846000C814658460404200C8246070048465F434C464343604660436446834650464443380C8446E41876
:403B80006444A34203D980235B029C46E34448463F04230C3F0C2404E419574668436F4384464D46504655434243380C814662444A445B44944503D9802040028446654431
:403BC00003983F04834604983F0C8446E344C345804140428246100484460198674484466744A344BC46A345A4419946D44464428742BF41D4458041E144A04699459B41E1
:403C00007F424042C8440743120CBA18A045A4415F423B0064422343D71843467D19DB0D6D021D435B465A02059B1A43531E9A415B46DB0D1A4343465B021343EA0107D555
:403C400001225C0813402343EA07029E13436D08574AB218002A4BDD580709D00F201840042805D0181D98429B415B42ED180300E80104D54F4A15408022D200B2184E4817
:403C8000824200DDE7E60124DB08680718436D02530580462D0B5B0D0C407DE6802259461203114208D0154206D115432D0398462D0B4C46414B6FE65D4615432D032D0BC5
:403CC0003E4B69E603005546283B9D400023BCE6504600F041FC2030A8E60300283B9F400023BB46984689E600F036FC203073E60124A61A382E07DD00220C400023002542
:403D0000904649E6029EA3E71F2E20DC20222C001800921BF040944093400443581E83411C43F540630709D00F232340042B05D023001C1D9C4292415242AD182B021FD589
:403D4000012400220C4001230025904624E61F202C004042821AD440202E1CD04022961BB5402B43581E83410720234318400025002809D00F2200251A401C00042AD8D152
:403D8000230068076D022D0B0124DB08034398460C40002300E60025E3E780220124120315432D0398462D0B0C40044BF4E5C046FF030000FFFFFFFEFE070000FF0700005E
:403DC000F0B557464E464546E0B40E001100F20F9246C500420F180337037400400A4E0F7F0A3043CF4E17435A00640D520DDB0FC900B24200D1E5E001267340A61AB446E2
:403E0000534500D1AFE0002E00DC0DE1002A3AD103000B4300D0E4E06B0709D00F232B40042B05D02B1DAB42AD416D427F191D003B0200D488E0BB4B01349C4200D110E1B1
:403E40003A00B94B51461A4001235007ED08520264050543120B640D0B400021280012030D0D120B64052D0515436208AF4CDB072C401443640064081C4321001CBC904635
:403E80009946A246F0BDA74B9C42C5D080231B0418436346382B00DDFDE01F2B00DD30E1624620239B1A02009A40664690460A009940F24046464B1E9941324311436346BA
:403EC0000200DA40691A8D429B410D00BA1A5B42D71A3B0235D57A02530A98464346002B00D1C4E0404600F037FB0300083B1F2B00DDC5E020222900D21A4746D1409F4054
:403F00000A009D403A439C4200DDC0E01C1B631C1F2B00DDE4E0202114002800C91AD8408C408D400443DA40681E854117002543002471E7424663461A4300D14CE267462E
:403F400045466B0700D069E7012351467807ED08FA080B40054373498C4238D012036405120B640D79E7002E00DC9AE0002A47D06C4A944200D14FE7802212041043624657
:403F8000382A00DC08E10143481E81410022C9B24919D219A942BF410D007F42BF183A0200D442E15F4A0134944200D14EE101205D4A69083A4028400843D5070543570824
:403FC0009A4629E706000E4300D017E714E72900114300D1F9E1802109030A431203120B3BE701235B429846C4446346002B72D1691A8D429B413F1A5B42FF1A0D0068E7E4
:4040000002000A4300D107E7012252429046C4446246002A00D0E6E06918A942B6413F187642F7190D00BAE7002E00D080E0621C5205520D012A00DCF9E06A1A91464D45E6
:40404000B6413A1A7642921B9046120200D499E04D1BA9428941C71B49427A1A90469A463CE752460123002513400022F5E6280000F072FA20300300083B1F2B00DC39E7D1
:404080002A002838824000259C4200DC3EE7264FE41A1740C0E60143481E81410022C9B210E7002E00D0F1E0621C94465205520D012A00DCA0E01B4A944500D1C5E06918A7
:4040C000A94292413F185242D2194908D5070D4357086446A0E6134B9C4200D0D9E69BE611001F3CE1400C00202B00D180E04021CB1A9A4015436A1E954100272543002436
:404100001FE763460200203BDA406346202B71D0402366469B1B98400143481E814111430022CFE6FF070000FFFF7FFFFFFF0F80002C48D0CA4CA24200D1A2E07442A146B3
:404140008024240427434C46382C00DDDBE01F2C00DD44E14E462024A41B3E00A640A246B0464C462E00E640B4464646644626435446A5406C1EA54134002C434D46EF40C2
:404180000D1B28E04A4643464D461A4300D0A5E6002300240025DEE61F2A5ADC66462022921B060096409146B04662460E00D640424616434A4691404A1E91410200604688
:4041C0003143C240E4E63C002C435AD0F443A146002C52D14D1BA9428941C71B49427F1A14009A4675E69E4A944200D0C7E613E600227FE700208FE7002C00D0C8E03B009A
:404200002B4300D10FE103000B4300D104E66918A9429B413F185B42DF193B0200D41AE1904B0D001F406446F6E59A4689E63A002A43002C5CD1002A75D102000A4300D158
:40424000CAE007000D009A46E6E564460022002581E662460600203AD6406246B046202A00D1B7E040226646921B904001434246481E8141114300228AE6794CA24200D031
:4042800061E707000D0014009A46C5E5002C41D13C002C4378D0F443A146002C20D0704CA24271D04C46382C00DDB2E01F2C00DDBCE02026341BA2463C005646B4404E46B2
:4042C000A0462C00F440A446444666463443A4465446A54064466E1EB54125434C46E7406D188D4289413F184942CF19140056E6002A2FD102000A4300D184E007000D0031
:404300009A46574C88E53D436F1EBD41ECB200270D1B60E7524CA24236D0744280263604A1463743BEE702000A4300D174E56A1A90464545B6413A1A7642921B944612022F
:4043400000D4F7E54D1BA9428941C71B49427F1A9A4661E502000A433AD0ED087C072C438025FA082D032A4208D0C7082F4205D145072C003A009A46C9080C43670FD200D9
:40438000E5001743364C47E507000D00140043E53A002A4343D002000A4319D0ED087C072C438025FA082D032A4207D0C6082E4204D147073C003200C9080C43D700620F96
:4043C000E50017439A46264C26E50022002544E5234C21E5002049E700230025BBE54C463E00203CE6404C46B446202C31D040244E46A61BB7403D436C1EA54164462C4320
:4044000000270D1BE7E6802200231203144C0025A1E53D436F1EBD410027EDB260E707000D000F4CF8E407000D00F5E44E463C00203EF440A0464C46202C0ED040244E462F
:40444000A41BA7403D436F1EBD4144460027254346E70027CFE70D0073E50027F2E7C046FF070000FFFF7FFF0B0330B5134D1A0B4B005B0DC90F0024AB4211DD104CA34238
:4044800010DC8024640322430E4CE41A1F2C0CDD0D48C31ADA4013005C42002900D11C00200030BD094BCC18FAE7E040084CA44663449A4013000343EEE7C046FE030000C7
:4044C0001D0400003304000013040000FFFFFF7FEDFBFFFF70B5002830D0C317C4185C40C50F200000F038F8174B184A1B1AD21A1F2A18DD164AD21A9440002224035B054C
:40450000240B5B0D0021100024030A0D1205240B1443104A1B0514401C436400ED0764082C43210070BD210091400A000B21081AC4405B052403240B5B0DE3E700250023AC
:4045400000240022DEE7C0461E0400003304000013040000FFFF0F801C2101231B04984201D3000C10391B0A984201D3000A08391B09984201D30009043902A2105C40180C
:404580007047C04604030202010101010000000000000000014B18687047C046400100200E4B70B500251E000D4CE41AA410A54204D0AB00F35898470135F8E701F028FAC1
:4045C000084B00251E00084CE41AA410A54204D0AB00F35898470135F8E770BD1C5A00001C5A00001C5A0000245A000003008218934202D019700133FAE770470EB410B54D
:404600009DB002A9029008610B48822488604861012040421FABC881084804CBA400006801938C8100F06EF80023029A13701DB010BC08BC03B01847FFFFFF7F4001002097
:40464000F0B58E6885B007000C00039201939E4243D890238A89DB001A423ED003250969236801985B1A029363695D43EB0F5D19029B6D1001331B18AB4200D91D005305C8
:4046800010D52900380000F041FB061E14D0029A216900F0D0FAA289194B134080221343A38112E02A00380000F090FB061E0CD12169380000F0DEFA0C23402201203B60FB
:4046C000A38940421343A38117E0029B2661F61826606561019EED1AA560019BB34200D21E0032000399206800F0AEFA0020A3689B1BA36023689E19266005B0F0BDC046EF
:404700007FFBFFFFF0B59FB0029005938B890F0016001B0610D50B69002B0DD1402100F0F5FA38603861002804D10C23029A01381360D8E040237B61002306AD6B61203356
:404740006B761033AB7634002378002B03D1A31B049312D003E0252BF9D00134F4E7A31B320039000298FFF76BFF431C00D1B4E06A69049B944663446B612378002B00D1A6
:40478000ABE00122002352426A6002A95432521801342B60EB60AB601370AB65534E21780522300000F03CFA002807D00123801B83402A68013413432B60EFE72B68DA065D
:4047C00004D55322202102A8121811701A0704D553222B2102A81218117022782A2A03D0099B00200A210EE0059A111D12680591002A01DB099204E05242EA60022213436D
:404800002B6001340BE02278303A092A04D84B4301349B180120F6E7002800D0099323782E2B1ED163782A2B0AD1059B02341A1D1B680592002B01DA01235B42079310E04C
:4048400000230A201A0001346B6021783039092904D84243013452180123F6E7002B00D00792234E21780322300000F0D9F9002806D04023801B83402A68013413432B6080
:40488000217806221B48661C297600F0C9F9002812D0194B002B06D10722059B073393430833059314E005AB00933A00134B2900029800E000BF07E005AB00933A000F4BF6
:4048C0002900029800F08AF80390039B013304D06B69039A9B186B6135E7BB890B985B0601D5012040421FB0F0BDC046DA590000E0590000E45900000000000041460000CB
:40490000F7B5170001938A680B6900900C00934200DA130022003B6043321278002A01D001333B6023689B0602D53B6802333B60062523681D401ED0230043331B785A1EBB
:404940009341226892061CD53020E1184331087021005A1C45310978A2184332023311700FE022000123193201990098089EB047431C0ED00135E3683A689B1A9D42F0DB9A
:40498000DAE72200019943320098089DA847431C02D10120404220E006232068E1683A6803400025042B03D18D1AEB43DB171D40A3682269934201DD9B1AED180027BD42B0
:4049C0000AD0220001231A3201990098089EB047431CDED00137F2E70020FEBDF0B58BB006920A0043320793059004920A7E0C00109B6E2A00D1ABE011D8632A22D009D84B
:404A0000002A00D1B5E0582A00D0C5E045310A70814A4FE0642A1DD0692A1BD0BCE0732A00D1AAE009D86F2A29D0702A00D0B3E0202209680A43226037E0752A1FD0782A3F
:404A400033D0A9E00E001A684236111D196013683370A4E021681A68080606D4490604D5111D19600023D55E02E0111D19601568002D3BDA2D23049A6D42137036E021683A
:404A80001A68080606D4490604D51568111D1960ADB202E0111D196015685F4B227E039308276F2A1DD00A271BE022007821453211705A4A19680392081D226818600D6811
:404AC000100602D4500600D5ADB2D30702D520231A4322601027002D03D1202322689A4322602300002243331A7002E00A274A4B03936368A360002B09DB04222168914326
:404B00002160002D05D1049E002B11D07BE0002D79D0049E28003900FDF75AFE039B013E5B5C280033703900FDF7CCFD051EF1D1082F09D12368DB0706D563682269934265
:404B400002DC3023013E3370049B9B1B23612BE009681A68080607D4490605D5111D19601368A28A1A8004E0111D1960136862691A600023049E236116E01A68111D19609E
:404B8000166800216268300000F04AF8002801D0801B6060636803E0260042363270012323610023049A1370079B09AA00932100069B0598FFF7A4FE431C02D10120404248
:404BC00027E02369320006990598079DA847431CF4D0236800259B070FD4099BE068984217DA180015E022000123193206990598079EB047431CE1D00135E368099A9B1AB3
:404C00009D42F0DBE9E72600039B42361B7833708EE70BB0F0BDC046EB590000FC590000C9B28218904204D003788B4202D00130F8E700207047002310B59A4203D0CC5C91
:404C4000C4540133F9E710BD10B5884202D98B18984201D3002305E09B1A013A08D3995C8154FAE7934203D0CC5CC4540133F9E710BD000070B50500002944D00C1F23681C
:404C8000002B00DAE418280000F0D8F81E4A13681100002B02D16360146031E0A3420DD92268A018834203D118685B688218226063600C6024E0A24203D813005A68002ADB
:404CC000F9D11E689819A0420BD12168711858181960824214D110685268411819605A600EE0A04202D90C232B6009E021686018824203D1106852684118216062605C6022
:404D0000280000F09CF870BDA0010020032370B5CD1C9D43083506000C2D01D20C2501E0002D01DBA94202D90C23336048E0300000F084F8234B1C681A002100002913D0D6
:404D40000B685B1B0DD40B2B02D90B60CC181EE08C4202D1636813601AE04B6863600C0016E00C004968E9E7174C2368002B03D1300000F051F820602900300000F04CF8CA
:404D8000431C18D00323C41C9C43A0420DD12560300000F054F8200007220B30231D9043C31A0ED05A42E2500BE0211A300000F033F8431CEBD10C233000336000F03FF851
:404DC000002070BDA00100209C010020F8B506000C001500002904D11100FFF797FF040018E0002A03D1FFF745FF2C0012E000F027F885420ED929003000FFF787FF071E70
:404E000007D021002A00FFF716FF21003000FFF731FF3C002000F8BD002370B5064C050008002360FBF73AFB431C03D12368002B00D02B6070BDC046B801002070477047AE
:404E40000B1F1A68101F002A04DA891804390B68D0180438704700000000000000000000253564006D73000000300F40000400400F400004831100840407063808800A0478
:404E80000C0A0E1010041280145615011609180119021C842060248428042E8032803301347F350238203E043F1440434106425045CE46FD47D0482F49FF4AFF4BFF4C027D
:404EC0004E704F0850045440580459045A045B045F0162C0644065016610671168C069016B116C406D016E406F019514970999139B049D0EAD15AF0AB10FB310B902BF04C4
:404F0000C013C106C250C5B0C802C901CAFFCBFFCC23CE80CF08D004D409D904DA04DB04DF01E2C0E440E501E610E711E8C0E901EB11EC40ED01EE40EF010004010103067B
:404F400009080A440B0110A2120818101A042110231027E02F023004331035243780410843024508460249AA4A804C804D204E01500252505C405D185E01601062506680BD
:404F80008350840485128A04C00FC20FC40FCA10CC76D053D23CD6F0D81EE20C00400449068608130AAC0CE50E1A18021A0D21012902308032703301340F35023A283E01D5
:404FC0003F14580459045F0181108368849A85018620870689688A048B048CD18D118F269008916C92C694E09517961E974098C0996C9CD19D6CA010A4C1A610A811A90894
:40500000AAC0AB13ACC0AD6CAE11B078B178B206B307B498B601BA02BB0ABE40D602D724D804D904DB04DF01009404800526060209080A880B010E0810281140128018949D
:4050400019A01A831B021C401D1C1E082105220C272829602E202F803020310433413880391A6110686869516A406B457140730183A087088C109444950196439701990293
:405080009A209DA49E029F04A280A420A508A608A702AAA0AB20AD10B310C0F7C24FC40FCAACCC0FCE0FD804E608EE8001020C8063206F04730477088310C010C280D840FA
:4050C000DA80DC60E6804F10630281028304871199029F04A880AF04B308D220D640E290E420E610E820EA400A01834086018B04C202E4040F8022805F02670486808F02B0
:405100009304A740C204C808D601D801E00801011001000001000F4062300F4031310F4046320F4042330F400D400F4011410F4006420F400D430F4002600F4008101000F7
:4051400000000000000000000000000008101000000000000000000000000000000000000000000000000000000000000000183C3C3C18181800181800000000006363639A
:4051800022000000000000000000000000000036367F3636367F3636000000000C0C3E6361603E030343633E0C0C000000000000006163060C183363000000000000001CFB
:4051C00036361C3B6E66663B000000000030303060000000000000000000000000000C18183030303018180C000000000000180C0C060606060C0C180000000000000000D7
:4052000042663CFF3C6642000000000000000000181818FF18181800000000000000000000000000000018181830000000000000000000FF000000000000000000000000A1
:4052400000000000000018180000000000000103070E1C3870E0C0800000000000003E6363636B6B6363633E0000000000000C1C3C0C0C0C0C0C0C3F0000000000003E63D1
:4052800003060C183061637F0000000000003E6303031E030303633E000000000000060E1E3666667F06060F0000000000007F6060607E030363733E0000000000001C308E
:4052C00060607E636363633E0000000000007F630306060C0C1818180000000000003E6363633E636363633E0000000000003E636363633F0303063C000000000000000095
:4053000000181800000018180000000000000000001818000000181818300000000000060C18306030180C06000000000000000000007E00007E00000000000000000060F5
:4053400030180C060C1830600000000000003E6363060C0C0C000C0C0000000000003E63636F6B6B6E60603E000000000000081C366363637F6363630000000000007E3348
:4053800033333E333333337E0000000000001E33616060606061331E0000000000007C36333333333333367C0000000000007F3331343C343031337F0000000000007F3339
:4053C00031343C34303030780000000000001E336160606F6363371D000000000000636363637F63636363630000000000003C18181818181818183C0000000000000F068E
:40540000060606060666663C000000000000733336363C36363333730000000000007830303030303031337F00000000000063777F6B63636363636300000000000063635C
:40544000737B7F6F676363630000000000001C36636363636363361C0000000000007E3333333E30303030780000000000003E6363636363636B6F3E0607000000007E33D7
:4054800033333E36363333730000000000003E6363301C060363633E000000000000FFDB991818181818183C0000000000006363636363636363633E0000000000006363E8
:4054C0006363636363361C0800000000000063636363636B6B7F3636000000000000C3C3663C18183C66C3C3000000000000C3C3C3663C181818183C0000000000007F63CA
:4055000043060C183061637F0000000000003C30303030303030303C00000000000080C0E070381C0E0703010000000000003C0C0C0C0C0C0C0C0C3C00000000081C366301
:40554000000000000000000000000000000000000000000000000000FF00000018180C0000000000000000000000000000000000003C46063E66663B000000000000703083
:40558000303C36333333336E0000000000000000003E63606060633E0000000000000E06061E36666666663B0000000000000000003E63637E60633E0000000000001C3697
:4055C00032307C30303030780000000000000000003B666666663E06663C00000000703030363B33333333730000000000000C0C001C0C0C0C0C0C1E0000000000000606C2
:40560000000E060606060666663C000000007030303333363C3633730000000000001C0C0C0C0C0C0C0C0C1E0000000000000000006E7F6B6B6B6B6B000000000000000014
:40564000006E3333333333330000000000000000003E63636363633E0000000000000000006E333333333E303078000000000000003B666666663E06060F000000000000A3
:40568000006E3B33303030780000000000000000003E63380E03633E0000000000000818187E181818181B0E0000000000000000006666666666663B00000000000000009D
:4056C00000636336361C1C080000000000000000006363636B6B7F3600000000000000000063361C1C1C366300000000000000000063636363633F03063C0000000000008B
:40570000007F660C1830637F0000000000000E18181870181818180E00000000000018181818180018181818180000000000701818180E18181818700000000000003B6EEB
:40574000000000000000000000000000030405060708090A0B0C0E0F101112131415161718191B1C1D1E1F2021222325262728292A2B2E2F3031323334350000FB21F93FE5
:40578000FB2109407CD91240FB2119407A6A1F407CD92240BBFD2540FB2129403A462C407A6A2F405C4731407CD932409C6B3440BBFD3540DB8F3740FB2139401BB43A404B
:4057C0003A463C405AD83D407A6A3F404C7E40405C4741406C1042407CD942408CA243409C6B4440AC344540BBFD4540CBC64640DB8F4740EB584840FB21494083F9A200E4
:40580000444E6E00FC291500D1572700DD34F50062DBC0003C999500419043006351FE00BBDEAB00B761C5003A6E2400D24D42004906E00009EA2E001C92D100EB1DFE0089
:4058400029B11C00E83EA700F535820044BB2E009CE98400B4267000417E5F00D6913900538339009CF439008B5F840028F9BD00F81F3B00DEFF97000F980500112FEF00B6
:405880000A5A8B006D1F6D00CF7E360009CB2700464FB7009E663F002DEA5F00BA277500E5EBC7003D7BF100F739070092528A00FB6BEA001FB15F00085D8D003003560048
:4058C0007BFC4600F0AB6B0020BCCF0036F49A00E3A91D005E619100081BE60085996500A0145F008D40680080D8FF0027734D0006063100CA561500C9A873007BE2600058
:405900006B8CC000020000000300000004000000060000000000000000000040FB21F93F000000002D44743E000000809846F83C0000006051CC783B00000080831BF039E1
:405940000000004020257A38000000802282E336000000001DF369357432000042310000483200003831000048320000523200004832000038310000423100004231000042
:4059800052320000383100002E3100002E3100002E310000A4340000BC3A00007C3900007C3900007A390000943A0000943A0000863A00007A390000943A0000863A000055
:4059C000943A00007A3900009C3A00009C3A00009C3A00009C3C00004300232D302B2000686C4C006566674546470030313233343536373839414243444546003031323332
:405A000034353637383961626364656600000000F8B5C046F8BC08BC9E4670473102000015050000F8B5C046F8BC08BC9E46704709020000485A0000C000002088000000DC
:405A4000780000000000000000000000C0010020010000000000E02EC05D00001800000000366E0104040400000000000000000000000000000000000000000000000000D8
:405A80000000000000000000D859000000000000000000000000000000000000000000000000000000000000000000000000000000000000000000000000000000000000B5
:405AC0000000000000000000E000002000000000000000000000000000000000000000000000000000000000000000000000000000000000000000000000000000000000A6
:405B00000000000000000000000000000000000000000000000000000000000000000000000000000000000000000000000000000000000000000000000000000000000065
:405B40000000000000000000000000000000000000000000000000000000000000000000000000000000000000000000000000000000000000000000000000000000000025
:405B800000000000000000000000000000000000000000000000000000000000000000000000000000000000000000000000000000000000000000000000000000000000E5
:405BC00000000000000000000000000000000000000000000000000000000000000000000000000000000000000000000000000000000000000000000000000000000000A5
:0200000490303A
:02000000B8A89E
:0200000490402A
:200000000000000000000000000000000000000000000000000000000000000000000000E0
:0200000490501A
:0C000000000204C81193110104E5CA3B82
:0200000490600A
:0100000001FE
:00000001FF