:400000000010002011000000DD030000DD03000010B500F003FAC04670B5194C23688022D20213432360182000F0F2FC2268154B13402360144A154B1A602022144B1A607A
:400040001032144B1A60203A134B1A6082221206124B1A6000252560114A124B1A60124A124B1A60124A134B1A601349092000F075FC092000F066FC104B1D6070BDC046F1
:4000800000010B40FFFFFBFF0600008004010B401C020240200202403002024008010B40010000800000024003000080400002405F09008080000240210C00000C020B40A2
:4000C00010B572B600240FE02C486200131959000B00411889881A5AC31858880004104300F058F90134E4B2012CEDD923490C312348503000F034F9C0229204214B1A609C
:40010000214A224B1A6099231B04214A136080218905204A1160204A1360204A1360204A1360C42292051F4B1A601F490B783C22934314221343DBB20B701C4A11781623D7
:400140000B43DBB213704022194B1A60194A1A4B1A60C0225203194B1A600323184A1360184A13605022184B1A60184A184B1A60FFF752FF00F024F910BDC046702800006D
:40018000702A00000000014000EE03030C00014000500F4008500F4010500F4020500F4030500F4038500F4001700F4000700F4000000440800D18000800044008010440C8
:4001C000000204401802044000030440B66D18000803044010B5064C2378002B07D1054B002B02D0044800E000BF0123237010BD48010020000000005C280000084B10B514
:40020000002B03D00749084800E000BF07480368002B00D110BD064B002BFBD09847F9E7000000004C0100205C280000C00000200000000010B584B000F088F9012000F0AC
:400240007BFA002000F048F93222404903A801F0D7FE0F2300933E4B0A226E2103A800F04DFA00F08BFE00F099FE00F09BFD002000F04CFD00F0BCFA012000F03BFD01208E
:4002800000F02CFD012000F01DFD62B63224012000F08EFE00283FD0002000F09DFE2D4B98421EDD2C23FF339C421ADC01342100294800F049FF013800F030FD2200234988
:4002C00003A801F09DFE72B60F230093204B0A226E2103A800F012FA62B6002000F016FD1AE0632818DC322C16DD013C21001A4800F02AFF013800F011FD2200134903A8CF
:4003000001F07EFE72B60F230093114B0A226E2103A800F0F3F962B6104B1B68822BB6DD00220E4B1A602200084903A801F068FE72B6002000F0D0F80F230093044B0A22E5
:400340006E2103A800F0DAF962B6A0E760280000FF0F00006C0700001027000064010020F0B50025002711E0BB00C658F3B2FF22964308E06A008A181478A4195278227029
:400380000135013BDBB2002BF4D10137072FEBD9F0BDC04610B50A00002101F029FE10BD064B1B68002803D080221206134301E05B005B08014A13607047C04680031A40BE
:4003C00010B50323034A1360034A13600120FFF7E7FF10BD00031A4040031A4010B501F0DBFD03680C2B00D1FEE7FEE710B50300084A1068C318084A9A1A802A02DC054AB9
:40040000136005E001F0C8FD0C2303600120404210BDC046C4000020A801002070B50F4E0F4D13E029686B68AC68002202E001C901C30432A242FAD1E868002202E00021C4
:4004400002C304328242FAD11035013E002EE9D101F0A8FDFFF7EEFEFEE7C04601000000C831000010B500230AE0032B03D89A000949505800E009489900094A8850013391
:400480002F2BF2D9FFF71CFE8022D205116801230B43136010BDC04600000000DD0300000000002010B5040000F0DCF911230342FAD0A0B200F0E2F910BDC04610B5802433
:4004C0006400204384B200F0CDF911230342FAD0200000F0D3F910BD70B505002B20FFF7E1FF0020FFF7EAFF8320FFF7E7FF2A20FFF7D8FF0020FFF7E1FF8320FFF7DEFF11
:400500002C20FFF7CFFF00260FE02811FF242040FFF7D4FF280120402B121843FFF7CEFF20002840FFF7CAFF0136024B9E42ECD970BDC0468321000010B57F2404402520F5
:40054000FFF7B0FF2000FFF7B9FF10BD10B500F0DFF9142000F052FA002000F057F9C82000F034FAFF2000F051F9C82000F02EFA1120FFF797FF0320FFF794FF2920FFF7D7
:4005800091FF3A20FFF78EFF0320FFF797FF3620FFF788FF2520FFF785FF3020FFF78EFF0020FFF77FFF3C20FFF7C6FF0020FFF793FF10BDF8B5150083235E1A1C1A2B2039
:4005C000FFF770FFFF273C402000FFF777FF2000FFF774FF2A20FFF765FF34003C402000FFF76CFF2000FFF769FF2C20FFF75AFF28113840FFF762FF28013840FFF75EFFF5
:40060000F8BDC046F0B55F4656464D464446F0B483B000938325AD1A8226761A364C23789A4663789B46A7781F387843C019431E99462B20FFF736FFFF23984618003040EA
:40064000FFF73CFF5E44013EF0B2FFF737FF2A20FFF728FF40462840FFF730FF5544013DE8B2FFF72BFF2C20FFF71CFF013F4F443C1901235B429C46E34432E0631E019319
:400680002378994601240023984623E04B46234201D10C9D00E0009D6400E4B24B461C4201D10C9E00E0009E6400E4B22811FF273840FFF703FF2D013D4033120F20184086
:4006C0002843FFF7FBFE38003040FFF7F7FE02239C46E044D045D9DB01235B429C46E344019C5B46002BC9DA03B03CBC90469946A246AB46F0BDC046E02A0000F0B585B073
:40070000070002930A9E10310D000832039214000DE001370096029B22002900FFF772FF0834832C01DD1035039C832D02DC38780028EED105B0F0BD044A1368DBB201218E
:400740008B430840184310607047C0460003044010B5012000F02CFC002816D0012000F03BFC01F0B9FB0B4A0B4B01F005F900220A4B00F0D5FD0A4B1C68621C1A6001F006
:4007800075FB0F222100FFF715FF012000F01AFB10BDC046BA490C022B87A6BF00005940640100208023014AD05070470000002010B5040000F036FC044A1368C0218B43E6
:4007C000A4011C43146000F031FC10BD10E400E080225202014B1A607047C04600E100E080225202014B1A607047C04680E100E010B5FFF7F5FF0448FFF7D4FF0320FFF7F2
:40080000D7FFFFF7E5FF10BD5107000004490A68D2B202239A43400018401043086070470003044010B500F0FDFB0B4A117820230B43DBB2137009490A7810231A43D2B239
:400840000A70074A11780B43DBB2137000F0EEFB00F06EF810BDC04693000F4090000F4092000F40014B1878C0B2704760000F40014B1878C0B2704762000F40034B1B78D7
:400880005B07FBD5024B18807047C04660000F4084100F4010B501E00E4B1B880E4B1B789B06F9D400F0BEFB0C490A78012401231A43D2B20A700A78A2430A70084A1178F6
:4008C0000B43DBB213701378A343137000F0AEFB10BDC046A4100F4062000F4092000F4093000F4010B51122064B1A70FFF7D2FFFFF7B8FFFFF7BCFF0023034A1370034A8B
:40090000137010BD83000F4080000F4082000F4010B5064B1B78002B04D1FFF7E3FF0122024B1A70FFF77EFF10BDC04668010020034A1368802109060B4313607047C046B5
:40094000000002401F2318401E3B8340014A13607047C04600E100E001BE704770B504000D001F2802D90020FFF7F6FF1034A40080239B059C4664442068256070BDC04675
:4009800070B504000E00032902D90020FFF7E4FF1F2C02D90020FFF7DFFF03252540ED00063500F03FFBA408A400074B9C46644421680323AB4099430B003100A9401943E4
:4009C000216000F033FB70BD00E400E010B5040006E0084B586800F01BFB074B9C46644480231B029C42F4D8024B9868604300F00FFB10BDC80000200080FFFF10B5034B29
:400A00001B7B584300F004FB10BDC046C8000020F0B557464E46C0B483B0040000F002FB0190E71E2D2F74D83F4B1B78DBB29C4208D83E4B1B78DBB29A463D4B1B78DBB296
:400A4000994631E03B4B1B78DBB29C4208D83A4B1B78DBB29A46394B1B78DBB2994623E0374B1B78DBB29C4208D8364B1B78DBB29A46354B1B78DBB2994615E0334B1B78B1
:400A8000DBB29C4208D8324B1B78DBB29A46314B1B78DBB2994607E02F4B1B78DBB29A462E4B1B78DBB299462D4BDE5D2F2E09D92A2C07D919222B4B1A60052000F0A8FA10
:400AC000192503E0274B1D683F231D40B54206D9234BDA5D234B1A60052000F099FA1F4B9C4664442378DBB21F4A13601F4B52461A601F4B4A461A600520FFF77FFFB5429C
:400B00000AD2174BDA5D174B1A60052000F080FA02E00020FFF720FF019800F087FA03B00CBC91469A46F0BDC0F1FF0FC1F1FF0FC2F1FF0FC3F1FF0FC4F1FF0FC5F1FF0F4C
:400B4000C6F1FF0FC7F1FF0FC8F1FF0FC9F1FF0FCAF1FF0FCBF1FF0FCCF1FF0FCDF1FF0FF03000002CFF0B4028FF0B401CFF0B4020FF0B40034B1868C0231B02184000D063
:400B80000120704700010B4010B500F04BFA044A1368C02109020B43136000F047FA10BD00010B4010B500F03DFA08490A68084B1A408024E40122430A600A68134080223C
:400BC000120213430B6000F031FA10BD00010B40FF3FFFFF70B5050000F024FA0400FFF7C9FF002803D0FFF7DDFF012100E0002108482840084A1568084B2B4018431060B6
:400C00001368012901D1FFF7BFFF200000F00EFA70BDC0460404040010020B40FBFBFBFF10B5244B1B685B0715D5234B1B685B070ED5224BD969042001401F4C22688A43D6
:400C40002260DA698243DA611B69002B00D098470420FFF7BFFF174B1B685B0518D5164B1B685B0510D5154BD9698022D2001140114802688A430260D969114A0A40DA61A3
:400C80005B69002B00D098478020C000FFF7A2FF084B1B685B030CD5074B1B685B0304D5064B9B69002B00D098478020C002FFF791FF10BD10020B40DC0000206C010020B4
:400CC000FFFBFFFF04490A68D2B240239A43800118401043086070470001044004490A68D2B204239A43800018401043086070470000044004490A68D2B208239A43C00009
:400D00001840104308607047000004400004000C014B18607047C046080105400004000C014B18607047C0461401054070B504000D0000F077F9AC40024B1C6000F076F931
:400D400070BDC0460800054010B500F06BF9064A116801230B43136000F068F918210120FFF7E4FF10BDC04600000540014B18607047C0463801054010B580229204074B42
:400D80001A600C22064B1A600120FFF7EFFF3820FFF7C4FF0020FFF7B9FF10BD000105402401054010B5064B1B78002B04D1FFF7E3FF0122024B1A70FFF7C6FF10BDC04656
:400DC0008C010020014B18607047C0463001054010B503210E20FFF7D3FD42490E20FFF7BDFD0322404B1A60404B1B68002B01DA3F4900E03F49404A13680B4313603F4A8C
:400E00003F4B1A603F4A404B1A6000233F4A13603F4A40490A6040490A60404A116880204002014311603E490A6802430A603D4A13603D4A136001333C4A136002213C4A86
:400E400011603C4908683C4A024013430B60002445E03A49A2005058DC239B0103400919097A0B4336498C4662441360C30707D52C490A680123A3401B041B0C13430B6097
:400E8000A3002E4A9B589B0707D527490A680123A3401B041B0C13430B60A300274A9B589A0502D58020400001E080204001DB0504D463000021234A995203E0630000219C
:400EC000204A9952204B5843204B9C466044204900F03AF900B2A2001E4BD0500134012CB7D910BD0510000020001A4080031A40702010107020001000001A408C0000805C
:400F000004001A400000FF0718001A401C001A400400040010001A4014001A4000031A4040031A4028021A4038021A4018021A40000F1A4030001A40FFFFFFDF20310000DF
:400F400080001A40A001002010270000E40C0000C81900009801002010B5074B1B68002B08DB054A1368802109060B4313600A20FFF744FD10BDC04600001A4010B5064B8E
:400F80001B78002B04D1FFF723FF0122024B1A70FFF7E2FF10BDC0468D010020034A1368802149020B4313607047C04604001A40020083070CD0074B1B680120184001D11C
:400FC0009307F8D4002804D00122024B1A6000E00020704710021A4010B50400012802D90020FFF7B9FC012C07D8A400044B9C46644420680004000C00E0002000B210BD4A
:4010000080011A40014B1A681A60704710021A400230800804D0C0460138FDD1C046C046C0467047EFF3108072B6704780F310887047C046002243088B4274D303098B4293
:401040005FD3030A8B4244D3030B8B4228D3030C8B420DD3FF22090212BA030C8B4202D31212090265D0030B8B4219D300E0090AC30B8B4201D3CB03C01A5241830B8B42EF
:4010800001D38B03C01A5241430B8B4201D34B03C01A5241030B8B4201D30B03C01A5241C30A8B4201D3CB02C01A5241830A8B4201D38B02C01A5241430A8B4201D34B0282
:4010C000C01A5241030A8B4201D30B02C01A5241CDD2C3098B4201D3CB01C01A524183098B4201D38B01C01A524143098B4201D34B01C01A524103098B4201D30B01C01AB7
:401100005241C3088B4201D3CB00C01A524183088B4201D38B00C01A524143088B4201D34B00C01A5241411A00D20146524110467047FFE701B5002000F0F0F802BDC04643
:401140000029F7D076E7704703460B437FD4002243088B4274D303098B425FD3030A8B4244D3030B8B4228D3030C8B420DD3FF22090212BA030C8B4202D31212090265D065
:40118000030B8B4219D300E0090AC30B8B4201D3CB03C01A5241830B8B4201D38B03C01A5241430B8B4201D34B03C01A5241030B8B4201D30B03C01A5241C30A8B4201D35F
:4011C000CB02C01A5241830A8B4201D38B02C01A5241430A8B4201D34B02C01A5241030A8B4201D30B02C01A5241CDD2C3098B4201D3CB01C01A524183098B4201D38B01BF
:40120000C01A524143098B4201D34B01C01A524103098B4201D30B01C01A5241C3088B4201D3CB00C01A524183088B4201D38B00C01A524143088B4201D34B00C01A524109
:40124000411A00D201465241104670475DE0CA0F00D04942031000D34042534000229C4603098B422DD3030A8B4212D3FC22890112BA030A8B420CD3890192118B4208D350
:40128000890192118B4204D389013AD0921100E08909C3098B4201D3CB01C01A524183098B4201D38B01C01A524143098B4201D34B01C01A524103098B4201D30B01C01AAF
:4012C0005241C3088B4201D3CB00C01A524183088B4201D38B00C01A5241D9D243088B4201D34B00C01A5241411A00D20146634652415B10104601D34042002B00D54942F2
:40130000704763465B1000D3404201B5002000F005F802BD0029F8D016E770477047C046F8B556465F464D464446F0B40F00FD0FAA4609037C002E005F00450F490A7F0DA7
:401340002943C5001803BC46400A570F640DDB0F3843D2009A4500D1AAE06646A61B002E00DCFFE06346002B39D10300134300D0D9E06B0709D00F232B40042B05D02B1D43
:40138000AB42AD416D4249191D000B0200D482E0CA4B01349C4200D1FEE00A005646C84BED081A405007640552020543120B640D002112030B0D1B056405120B1A4363085C
:4013C000C04CF60714401C43640064083443280021003CBC90469946A246AB46F8BDB74B9C42C6D080231B041843382E00DDEBE01F2E00DD1EE120239B1B9C460300674611
:40140000BB40984613004746F3403B436746BA40571EBA4113430200F240EB1A9D42B6411D008A1A7642911B0B0231D54A02560A002E00D1B4E0300000F090FD0300083B9C
:401440001F2B00DDB5E020222900D21AD1409E400A009D4032439C4200DDB1E01C1B631C1F2B00DDD5E0202114002800C91A8C40D8408D400443DA40681E854111002543F9
:40148000002476E74146314300D134E2310045466B0700D06FE756464807ED08C9080543864B9C4235D00A036405120B640D7FE76346E31A9B46002B00DC8BE06746002F89
:4014C0003CD07E4FBC4200D153E780273F0438435B46382B00DCF7E00243501E82410020D2B253194218AB4289411D00494289180B02CDD5714B01349C4200D13DE1012080
:401500006F4A6B080A4028401843D507054351082FE72B000B4300D1CBE180231B030B431A03120B44E7013E002E6DD1AE1AB5429B41091A5B42C91A350075E7070017439A
:4015400000D116E701235B429C46E3445B46002B00D0E0E0AA18AA429B4109185B4259181500C5E7002E75D1661C7605760D012E00DCF3E0AE1AB0464545BF410E1A7F42FA
:40158000F61B370200D48FE0551BAA42B641411A76428E1B9A464BE756460022002507E7280000F0DBFC20300300083B1F2B00DC49E72A002838824000259C4200DC4DE772
:4015C0003F49E41A1140D4E60243501E8241D3B2002222E7002B00D0F3E0631C9C465B055B0D012B00DC9FE0344B9C4500D1C3E0AA180918AA42804140424118CD07520849
:40160000154349086446B4E62C4B9C4200D0ECE6AFE611001F3CE1400C00202B00D17FE04021CB1A9A4015436A1E95410021254300242DE733000700203BDF403B00202E49
:4016400070D04027BE1BB0400243501E824113430022E2E6002C4FD0184CA44500D1ABE08024240476422143382E00DDDFE01F2E00DD43E12027BC1BA1460C004F46BC4076
:40168000A0462C004746F4403C434F46BD406F1EBD41F1402C43151BAA429241411A5242891A64469A46BFE641464546314300D0BEE6002600240025F2E6C046FF0700001E
:4016C000FFFF7FFFFFFF0F801F2B59DC2027FF1ABC46070063469F405B46B9461700DF40B8464F4643461F4363469A40531E9A415B463A43D840F4E60C002C435CD0F6435E
:40170000002E55D1551BAA42A441411A6442091B9A46644688E6964FBC4200D0D8E628E6002280E700208FE70B002B43002C00D0C2E0002B00D101E10300134300D118E63C
:40174000AB18AB42B6410918764271180A0200D409E1884A1D00114064460AE6002C5BD10E002E4300D08AE00100114300D1C2E0010015009A46FCE56446002100258FE6A7
:4017800020235B429C46DC4463460700DF405B46BC46202B00D1ACE040235F46DB1B98400243501E8241634613431A00002098E66F4CA44500D057E70100150064469A46D8
:4017C000D7E5002C39D10C002C436ED0DB43002B1AD0674CA44568D0382B00DDA4E01F2B00DDAEE020240F00E41AA740B9462F00DF40B846A3464F46444627435C46A54042
:401800006C1EA541D9403D43AD1895429B4109185B42591864466BE60C002C4315D1010011437BD0010015009A46514CA1E50D43691E8D410021ECB22DE74D4CA44534D0E5
:40184000802424045B422143C6E7040014434ED0ED084C072C438025C9082D03294208D0C6082E4205D1D208410711430C009A463100620FC900E50011433D4C79E50600CE
:40188000164300D175E5AE1AB0464545BF410E1A7F42F61B370200D4F4E5551BAA42B641411A7642891B9A4663E50100150064465FE5002200257BE5002B3BD00300134310
:4018C00015D0ED084B072B438025C9082D03294207D0C4082C4204D141070B002100D2081343C9005A0F1143DD00214C41E5204C3FE5002054E700260025D1E534000F008E
:40190000203CE7403C00202E2BD04027BE1BB1400D43691E8D4100212C43BCE6802100260903134C0025BBE50D43691E8D410021EDB269E7010015000D4C1AE50100150067
:4019400017E51C000F00203CE7403C00202B0CD04027FB1A99400D43691E8D410021254352E70021D4E71D0092E50021F3E7C046FF070000FFFF7FFFF0B55F4656464D4632
:401980004446F0B40D0399464E002B0B87B00700924680469B46760DCC0F002E69D06D4B9E4235D05B468022DD001204430F13432B439B46C3009846674B00279C460023BB
:4019C000664401934A4615035000D20F53462D0B400D914600D176E05E4A90426CD080225B0F120413435C4AED0094461D4353460022DB00604449463618701C61400290E3
:401A000017430F2F00D9AFE05448BF00C759BF465B461F4300D088E000239B469846023308270193CEE74946022A6AD0032A00D109E2012A00D0BBE111400022002300252C
:401A40009046CCB200212D030A0D12052D0B1543434A1B0515401D436D00E4076D0825434046290007B03CBC90469946A246AB46F0BD034352D05B46002B00D18AE15846C5
:401A800000F06CFA03000B3B1C2B00DD7BE11D22D31A3A0001005D46DA4008398D4013008F402B439B46B8462E4B00279C46002360444642019385E752462A432CD10025AE
:401AC0000023022297E752462A4321D0002D00D154E1280000F042FA03000B3B1C2B00DD46E11D21CB1A51460200D9405346083A954093400D431B4A9446604440420022E1
:401B000079E7012400220C40124B0025904699E70025002301226EE703226CE700239B4698460133042701934CE703230C27019348E700238025984600242D03054B81E7CC
:401B40005D464346019A6FE75D4643462100019A6AE7C046FF07000001FCFFFF2C310000FFFF0F80F30300004246120C91461A0C9446424617044A461B041B0C5A436046EF
:401B800090464A4642431000039262461C003F0C7A437C4342440192220C9246019A5244904506D98246802040028046C24450460390100C049048462404240C1204121990
:401BC00005922A0C2D042D0C68432C00824648467C4350438146200C8046574357444744BA4503D9802040028046C144380C3F04B84648442404240C01900498A044404430
:401C000004905846000C814658460404200C8246070048465F434C464343604660436446834650464443380C8446E4186444A34203D980235B029C46E34448463F04230C61
:401C40003F0C2404E419574668436F4384464D46504655434243380C814662444A445B44944503D9802040028446654403983F04834604983F0C8446E344C3458041404238
:401C80008246100484460198674484466744A344BC46A345A4419946D44464428742BF41D4458041E144A04699459B417F424042C8440743120CBA18A045A4415F423B00DB
:401CC00064422343D71843467D19DB0D6D021D435B465A02059B1A43531E9A415B46DB0D1A4343465B021343EA0107D501225C0813402343EA07029E13436D08574AB218DD
:401D0000002A4BDD580709D00F201840042805D0181D98429B415B42ED180300E80104D54F4A15408022D200B2184E48824200DDE7E60124DB08680718436D0253058046B0
:401D40002D0B5B0D0C407DE6802259461203114208D0154206D115432D0398462D0B4C46414B6FE65D4615432D032D0B3E4B69E603005546283B9D400023BCE6504600F0F0
:401D8000EDF82030A8E60300283B9F400023BB46984689E600F0E2F8203073E60124A61A382E07DD00220C4000230025904649E6029EA3E71F2E20DC20222C001800921BA7
:401DC000F040944093400443581E83411C43F540630709D00F232340042B05D023001C1D9C4292415242AD182B021FD5012400220C4001230025904624E61F202C004042EB
:401E0000821AD440202E1CD04022961BB5402B43581E83410720234318400025002809D00F2200251A401C00042AD8D1230068076D022D0B0124DB08034398460C40002386
:401E400000E60025E3E780220124120315432D0398462D0B0C40044BF4E5C046FF030000FFFFFFFEFE070000FF0700000B0330B5134D1A0B4B005B0DC90F0024AB4211DD8F
:401E8000104CA34210DC8024640322430E4CE41A1F2C0CDD0D48C31ADA4013005C42002900D11C00200030BD094BCC18FAE7E040084CA44663449A4013000343EEE7C046AD
:401EC000FE0300001D0400003304000013040000FFFFFF7FEDFBFFFF70B5002830D0C317C4185C40C50F200000F038F8174B184A1B1AD21A1F2A18DD164AD21A94400022F8
:401F000024035B05240B5B0D0021100024030A0D1205240B1443104A1B0514401C436400ED0764082C43210070BD210091400A000B21081AC4405B052403240B5B0DE3E793
:401F40000025002300240022DEE7C0461E0400003304000013040000FFFF0F801C2101231B04984201D3000C10391B0A984201D3000A08391B09984201D30009043902A2AE
:401F8000105C40187047C04604030202010101010000000000000000014B18687047C046400100200E4B70B500251E000D4CE41AA410A54204D0AB00F35898470135F8E736
:401FC00001F0F0F8084B00251E00084CE41AA410A54204D0AB00F35898470135F8E770BDB0310000B0310000B0310000B831000003008218934202D019700133FAE7704775
:402000000EB410B59DB002A9029008610B48822488604861012040421FABC881084804CBA400006801938C8100F06EF80023029A13701DB010BC08BC03B01847FFFFFF7F97
:4020400040010020F0B58E6885B007000C00039201939E4243D890238A89DB001A423ED003250969236801985B1A029363695D43EB0F5D19029B6D1001331B18AB4200D902
:402080001D00530510D52900380000F041FB061E14D0029A216900F0D0FAA289194B134080221343A38112E02A00380000F090FB061E0CD12169380000F0DEFA0C23402268
:4020C00001203B60A38940421343A38117E0029B2661F61826606561019EED1AA560019BB34200D21E0032000399206800F0AEFA0020A3689B1BA36023689E19266005B00C
:40210000F0BDC0467FFBFFFFF0B59FB0029005938B890F0016001B0610D50B69002B0DD1402100F0F5FA38603861002804D10C23029A01381360D8E040237B61002306ADE8
:402140006B6120336B761033AB7634002378002B03D1A31B049312D003E0252BF9D00134F4E7A31B320039000298FFF76BFF431C00D1B4E06A69049B944663446B612378A9
:40218000002B00D1ABE00122002352426A6002A95432521801342B60EB60AB601370AB65534E21780522300000F03CFA002807D00123801B83402A68013413432B60EFE7FA
:4021C0002B68DA0604D55322202102A8121811701A0704D553222B2102A81218117022782A2A03D0099B00200A210EE0059A111D12680591002A01DB099204E05242EA609A
:40220000022213432B6001340BE02278303A092A04D84B4301349B180120F6E7002800D0099323782E2B1ED163782A2B0AD1059B02341A1D1B680592002B01DA01235B4282
:40224000079310E000230A201A0001346B6021783039092904D84243013452180123F6E7002B00D00792234E21780322300000F0D9F9002806D04023801B83402A680134FD
:4022800013432B60217806221B48661C297600F0C9F9002812D0194B002B06D10722059B073393430833059314E005AB00933A00134B2900029800E000BF07E005AB0093CF
:4022C0003A000F4B2900029800F08AF80390039B013304D06B69039A9B186B6135E7BB890B985B0601D5012040421FB0F0BDC0466E310000743100007831000000000000A0
:4023000045200000F7B5170001938A680B6900900C00934200DA130022003B6043321278002A01D001333B6023689B0602D53B6802333B60062523681D401ED02300433387
:402340001B785A1E9341226892061CD53020E1184331087021005A1C45310978A2184332023311700FE022000123193201990098089EB047431C0ED00135E3683A689B1A5F
:402380009D42F0DBDAE72200019943320098089DA847431C02D10120404220E006232068E1683A6803400025042B03D18D1AEB43DB171D40A3682269934201DD9B1AED1852
:4023C0000027BD420AD0220001231A3201990098089EB047431CDED00137F2E70020FEBDF0B58BB006920A0043320793059004920A7E0C00109B6E2A00D1ABE011D8632A1E
:4024000022D009D8002A00D1B5E0582A00D0C5E045310A70814A4FE0642A1DD0692A1BD0BCE0732A00D1AAE009D86F2A29D0702A00D0B3E0202209680A43226037E0752A23
:402440001FD0782A33D0A9E00E001A684236111D196013683370A4E021681A68080606D4490604D5111D19600023D55E02E0111D19601568002D3BDA2D23049A6D4213706E
:4024800036E021681A68080606D4490604D51568111D1960ADB202E0111D196015685F4B227E039308276F2A1DD00A271BE022007821453211705A4A19680392081D226885
:4024C00018600D68100602D4500600D5ADB2D30702D520231A4322601027002D03D1202322689A4322602300002243331A7002E00A274A4B03936368A360002B09DB0422BC
:40250000216891432160002D05D1049E002B11D07BE0002D79D0049E28003900FEF710FE039B013E5B5C280033703900FEF782FD051EF1D1082F09D12368DB0706D5636820
:402540002269934202DC3023013E3370049B9B1B23612BE009681A68080607D4490605D5111D19601368A28A1A8004E0111D1960136862691A600023049E236116E01A680B
:40258000111D1960166800216268300000F04AF8002801D0801B6060636803E0260042363270012323610023049A1370079B09AA00932100069B0598FFF7A4FE431C02D16A
:4025C0000120404227E02369320006990598079DA847431CF4D0236800259B070FD4099BE068984217DA180015E022000123193206990598079EB047431CE1D00135E3688E
:40260000099A9B1A9D42F0DBE9E72600039B42361B7833708EE70BB0F0BDC0467F31000090310000C9B28218904204D003788B4202D00130F8E700207047002310B59A4282
:4026400003D0CC5CC4540133F9E710BD10B5884202D98B18984201D3002305E09B1A013A08D3995C8154FAE7934203D0CC5CC4540133F9E710BD000070B50500002944D0FD
:402680000C1F2368002B00DAE418280000F0D8F81E4A13681100002B02D16360146031E0A3420DD92268A018834203D118685B688218226063600C6024E0A24203D8130037
:4026C0005A68002AF9D11E689819A0420BD12168711858181960824214D110685268411819605A600EE0A04202D90C232B6009E021686018824203D11068526841182160DA
:4027000062605C60280000F09CF870BD94010020032370B5CD1C9D43083506000C2D01D20C2501E0002D01DBA94202D90C23336048E0300000F084F8234B1C681A00210096
:40274000002913D00B685B1B0DD40B2B02D90B60CC181EE08C4202D1636813601AE04B6863600C0016E00C004968E9E7174C2368002B03D1300000F051F820602900300018
:4027800000F04CF8431C18D00323C41C9C43A0420DD12560300000F054F8200007220B30231D9043C31A0ED05A42E2500BE0211A300000F033F8431CEBD10C23300033606A
:4027C00000F03FF8002070BD9401002090010020F8B506000C001500002904D11100FFF797FF040018E0002A03D1FFF745FF2C0012E000F027F885420ED929003000FFF732
:4028000087FF071E07D021002A00FFF716FF21003000FFF731FF3C002000F8BD002370B5064C050008002360FDF7E0FD431C03D12368002B00D02B6070BDC046A401002001
:40284000704770470B1F1A68101F002A04DA891804390B68D01804387047000000000000526174653A2025346420487A2000000000300F40000400400F4000048311040A7E
:40288000051006100768080709010A380B060C040D6C1060116C1404156817041801196C1C561D6C1E0920042117234024042511272629082A042B132C0430023378347F65
:4028C000350738203B283E015409580459045B045F018405860A8803890E8A0C9320980299139A0D9B049C099E06A104A339A505A73AB40FB50FB730B920BA20D804D9048E
:40290000DF0100800128052809820A240D800E08102A13011A041B011C041E08213422102510270229282B802D082F80302A334035203702388039283D2058045A825B206E
:4029400063028D10C067C2CFC40FCAC7CCAFCE2ED60FD808E6100406060108010A021C04200436073A80402141064250450D46FC470E481D49FF4AFF4BFF4C024E704F08E0
:402980005004544058045A045B045F0162C0644065016610671168C069016B116C406D016E406F018008840586608701884C8A118C6A8D019070920D930195019860990189
:4029C0009C6A9D01A462A608A80AAA60AC60AE0AB001B23CB301B44CB602BA08BE41BF04C021C106C250C7B0C820C901CAFFCBFFCC23CE80CF08D004D602D724D804D90486
:402A0000DA04DB04DF01E2C0E440E501E610E711E8C0E901EB11EC40ED01EE40EF010080012802400310052809200B810D80102A168019A81A821B401D801FC023102804C9
:402A40002B04302A334038803904418043104580471049A04D244F80510256D057046004640266106710686A6B4070407301860488028904900492049480968297019C04B1
:402A80009D289E809F40A120A46AA582A780AA80AB20AF02C06FC28BC417CC0FCE0AD03CD23CD874E002EC0262028E02D8405F04674087049340AF40D601D801010110012B
:402AC00001000F4042300F402A310F4064320F4045330F4003400F4007430F4002600F40081010000000000000000000000000000810100000000000000000000000000043
:402B0000000000000000000000000000000000000000183C3C3C181818001818000000000063636322000000000000000000000000000036367F3636367F3636000000008E
:402B40000C0C3E6361603E030343633E0C0C000000000000006163060C183363000000000000001C36361C3B6E66663B0000000000303030600000000000000000000000D3
:402B800000000C18183030303018180C000000000000180C0C060606060C0C18000000000000000042663CFF3C6642000000000000000000181818FF18181800000000000F
:402BC0000000000000000000000018181830000000000000000000FF00000000000000000000000000000000000018180000000000000103070E1C3870E0C0800000000031
:402C000000003E6363636B6B6363633E0000000000000C1C3C0C0C0C0C0C0C3F0000000000003E6303060C183061637F0000000000003E6303031E030303633E0000000055
:402C40000000060E1E3666667F06060F0000000000007F6060607E030363733E0000000000001C3060607E636363633E0000000000007F630306060C0C18181800000000AA
:402C800000003E6363633E636363633E0000000000003E636363633F0303063C0000000000000000001818000000181800000000000000000018180000001818183000004C
:402CC000000000060C18306030180C06000000000000000000007E00007E0000000000000000006030180C060C1830600000000000003E6363060C0C0C000C0C0000000010
:402D000000003E63636F6B6B6E60603E000000000000081C366363637F6363630000000000007E3333333E333333337E0000000000001E33616060606061331E0000000030
:402D400000007C36333333333333367C0000000000007F3331343C343031337F0000000000007F3331343C34303030780000000000001E336160606F6363371D0000000099
:402D80000000636363637F63636363630000000000003C18181818181818183C0000000000000F06060606060666663C000000000000733336363C36363333730000000013
:402DC00000007830303030303031337F00000000000063777F6B6363636363630000000000006363737B7F6F676363630000000000001C36636363636363361C000000001A
:402E000000007E3333333E30303030780000000000003E6363636363636B6F3E0607000000007E3333333E36363333730000000000003E6363301C060363633E0000000059
:402E40000000FFDB991818181818183C0000000000006363636363636363633E00000000000063636363636363361C0800000000000063636363636B6B7F3636000000009B
:402E80000000C3C3663C18183C66C3C3000000000000C3C3C3663C181818183C0000000000007F6343060C183061637F0000000000003C30303030303030303C0000000051
:402EC000000080C0E070381C0E0703010000000000003C0C0C0C0C0C0C0C0C3C00000000081C3663000000000000000000000000000000000000000000000000FF00000041
:402F000018180C0000000000000000000000000000000000003C46063E66663B0000000000007030303C36333333336E0000000000000000003E63606060633E00000000AA
:402F400000000E06061E36666666663B0000000000000000003E63637E60633E0000000000001C3632307C30303030780000000000000000003B666666663E06663C00006C
:402F80000000703030363B33333333730000000000000C0C001C0C0C0C0C0C1E0000000000000606000E060606060666663C000000007030303333363C363373000000003F
:402FC00000001C0C0C0C0C0C0C0C0C1E0000000000000000006E7F6B6B6B6B6B0000000000000000006E3333333333330000000000000000003E63636363633E0000000028
:4030000000000000006E333333333E303078000000000000003B666666663E06060F000000000000006E3B33303030780000000000000000003E63380E03633E00000000A5
:4030400000000818187E181818181B0E0000000000000000006666666666663B000000000000000000636336361C1C080000000000000000006363636B6B7F36000000004C
:40308000000000000063361C1C1C366300000000000000000063636363633F03063C000000000000007F660C1830637F0000000000000E18181870181818180E00000000C8
:4030C000000018181818180018181818180000000000701818180E18181818700000000000003B6E000000000000000000000000030405060708090A0B0C0E0F10111213F3
:403100001415161718191B1C1D1E1F2021222325262728292A2B2E2F3031323334350000000000000000000000010000681B0000281A0000281A0000261A0000401B0000AA
:40314000401B0000321B0000261A0000401B0000321B0000401B0000261A0000481B0000481B0000481B0000481D00004300232D302B2000686C4C00656667454647003034
:40318000313233343536373839414243444546003031323334353637383961626364656600000000F8B5C046F8BC08BC9E467047FD01000065040000F8B5C046F8BC08BCE3
:4031C0009E467047D5010000D8310000C0000020880000006000000000000000A8010020010000000000E02EC05D00001800000000366E01040404000000000000000000CF
:403200000000000000000000000000000000000000000000000000006C310000000000000000000000000000000000000000000000000000000000000000000000000000F1
:40324000000000000000000000000000000000000000000000000000E00000200000000000000000000000000000000000000000000000000000000000000000000000004E
:40328000000000000000000000000000000000000000000000000000000000000000000000000000000000000000000000000000000000000000000000000000000000000E
:4032C00000000000000000000000000000000000000000000000000000000000000000000000000000000000000000000000000000000000000000000000000000000000CE
:40330000000000000000000000000000000000000000000000000000000000000000000000000000000000000000000000000000000000000000000000000000000000008D
:40334000000000000000000000000000000000000000000000000000000000000000000000000000000000000000000000000000000000000000000000000000000000004D
:0200000490303A
:020000002F00CF
:0200000490402A
:200000000000000000000000000000000000000000000000000000000000000000000000E0
:0200000490501A
:0C000000000204C81193110104D74093C2
:0200000490600A
:0100000001FE
:00000001FF