:400000000010002011000000950400009504000010B500F047FAC04670B51F4C23688022D20213432360182000F0C0FA22681B4B134023601A4A1B4B1A6020221A4B1A60DA
:40004000103A1A4B1A601123194A1360194A1360194A1360194A13603022194B1A6080221206184B1A6000252560174A174B1A60174A184B1A60184A184B1A60184A194BDA
:400080001A601949092000F05DFA092000F04EFA164B1D6070BDC04600010B40FFFFFBFF0600008004010B4014020240180202402002024024020240280202402C0202400C
:4000C0003002024008010B40FE00008000000240FE0000C0400002400B000080800002401700008004000240BD0700000C020B4070B572B60122424B1A7000240FE04148CE
:400100006200131959000B00411889881A5AC31858880004104300F08DF90134E4B2022CEDD9002411E0374EA2001319590071188D8AC88A000428430A8B498B09041143BC
:40014000802200F07DF90134E4B2002CEBD02D4920312D48303000F053F92C4A2C4B1A60C02292042B4B1A602B4A2C4B1A6099231B042B4A1360872109042A4A11602A4AE7
:4001800013602A4A1360C0218905294A1160294A1360294A294B1A600122294B1A600132284B1A60284803783C218B4314221343DBB20370254A107816230343DBB21370F2
:4001C0008D22234B1A60234A234B1A60234B19603E22234B1A600232224B1A60D8221204214B1A601122214B1A60214A214B1A600422214B1A60FFF70FFF00F045F970BDFE
:400200001C700F400C2600008C27000003330000000001400800014003EE03000C00014000500F4008500F4010500F4020500F4028500F4030500F400000017438500F4067
:400240002000004000800F4001700F4000700F4000000440860D4000080004400001044018010440000204400802044000030440B66D0000080304401804044010B5064C07
:400280002378002B07D1054B002B02D0044800E000BF0123237010BD5001002000000000F8250000084B10B5002B03D00749084800E000BF07480368002B00D110BD064B2D
:4002C000002BFBD09847F9E70000000054010020F8250000C00000200000000010B5114B1B68002B08D10F4C04336360042001F079FD0123236007E00A4C08236360082055
:4003000001F070FD0023236001F060FD0307FBD5002001F0C3FD012001F0C0FD002001F0B1FD10BD6C01002010B5012001F0AAFD0B4A93689B000B495B5850681843C0B2E3
:4003400001F050FD01F042FD0307FBD5002001F0A5FD012001F0A2FD002001F093FD10BD6C010020FC25000010B562B600F0FCFA00F0D6FA01F0D6FB01F046FC01F072FDDD
:4003800001F0BAFD01F09EFC01F0EAFC01F0F6FC00F0EEFCAF20800001F0E4FB00F0A8FD0028FBD100F0E2FD00F0F8FA002000F075FC114B98421CD0002000F06FFC0400FB
:4003C00000F05EFA200001F05DFBC820C0006043642101F0E7FFAF239B009C46604401F0C1FB642040426043044B9C46604401F023FC00F0BBFDD1E7FFFF0000E02E00000B
:40040000F0B50025002711E0BB00C658F3B2FF22964308E06A008A181478A419527822700135013BDBB2002BF4D10137082FEBD9F0BDC04610B50A00002102F0D4F810BD79
:4004400010B502F0C7F810BD0C4B1B68002803D080221206134301E05B005B08074A1360074B1B68002803D080229204134301E0044A1340024A13607047C04680031A40B8
:4004800008010B40FFFFFFFD10B50120FFF7DCFF10BDC04610B502F071F803680C2B00D1FEE7FEE770B50F4E0F4D13E029686B68AC68002202E001C901C30432A242FAD147
:4004C000E868002202E0002102C304328242FAD11035013E002EE9D102F056F8FFF744FFFEE7C046010000008C29000010B500230AE0032B03D89A000949505800E00948D7
:400500009900094A885001332F2BF2D9FFF7F0FD8022D205116801230B43136010BDC0460000000095040000000000201F2318401E3B8340014A13607047C04600E100E066
:4005400001BE704770B504000D001F2802D90020FFF7F6FF1034A40080239B059C4664442068256070BDC04610B5040006E0084B586801F0E9FC074B9C46644480231B0279
:400580009C42F4D8024B9868604301F0DDFC10BDC40000200080FFFF10B5034B1B7B584301F0D2FC10BDC046C4000020F0B557464E46C0B483B0040001F0D0FC0190E71E1A
:4005C0002D2F74D83F4B1B78DBB29C4208D83E4B1B78DBB29A463D4B1B78DBB2994631E03B4B1B78DBB29C4208D83A4B1B78DBB29A46394B1B78DBB2994623E0374B1B7846
:40060000DBB29C4208D8364B1B78DBB29A46354B1B78DBB2994615E0334B1B78DBB29C4208D8324B1B78DBB29A46314B1B78DBB2994607E02F4B1B78DBB29A462E4B1B78B9
:40064000DBB299462D4BDE5D2F2E09D92A2C07D919222B4B1A60052001F076FC192503E0274B1D683F231D40B54206D9234BDA5D234B1A60052001F067FC1F4B9C4664448C
:400680002378DBB21F4A13601F4B52461A601F4B4A461A600520FFF77FFFB5420AD2174BDA5D174B1A60052001F04EFC02E00020FFF746FF019801F055FC03B00CBC91469B
:4006C0009A46F0BDC0F1FF0FC1F1FF0FC2F1FF0FC3F1FF0FC4F1FF0FC5F1FF0FC6F1FF0FC7F1FF0FC8F1FF0FC9F1FF0FCAF1FF0FCBF1FF0FCCF1FF0FCDF1FF0F6028000018
:400700002CFF0B4028FF0B401CFF0B4020FF0B40034B1868C0231B02184000D00120704700010B4010B501F019FC044A1368C02109020B43136001F015FC10BD00010B408B
:4007400010B501F00BFC08490A68084B1A408024E40122430A600A6813408022120213430B6001F0FFFB10BD00010B40FF3FFFFF70B5050001F0F2FB0400FFF7C9FF002886
:4007800003D0FFF7DDFF012100E0002108482840084A1568084B2B40184310601368012901D1FFF7BFFF200001F0DCFB70BDC0460404040010020B40FBFBFBFF10B5244B8E
:4007C0001B685B0715D5234B1B685B070ED5224BD969042001401F4C22688A432260DA698243DA611B69002B00D098470420FFF7BFFF174B1B685B0518D5164B1B685B05AD
:4008000010D5154BD9698022D2001140114802688A430260D969114A0A40DA615B69002B00D098478020C000FFF7A2FF084B1B685B030CD5074B1B685B0304D5064B9B694D
:40084000002B00D098478020C002FFF791FF10BD10020B40D80000207C010020FFFBFFFF0004000C014B18607047C046880105400004000C014B18607047C0469401054035
:400880000004000C014B18607047C0468C01054070B504000D0001F061FBAC40024B1C6001F060FB70BDC0460800054010B501F055FB064A116804230B43136001F052FBDC
:4008C00018210420FFF7E4FF10BDC04600000540014B18607047C046B801054010B50D4C8023DB042360236823600020FFF7B8FF236823600C22084B1A600320FFF7E8FF24
:400900003122064B1A606420FFF7B2FF3220FFF7B7FF10BD80010540A4010540A801054010B5064B1B78002B04D1FFF7D7FF0122024B1A70FFF7BAFF10BDC0469C01002057
:4009400010B5084B1B78002B06D100F071F900F0BFF90122034B1A7000F042F800F084FC10BDC0469D01002010B5FFF7E9FF041E02D100F0C5FB0400002C02D100F0F6FA77
:400980000400002C03D100F0B3FA0028FBD100F029FA00F0EDF9200010BDC04670B50E4E0025002413E0630904339B000B4A9B581F222240D340DB0707D5300000F06EF889
:4009C00005003100200000F005F92C360134002CE9D0280070BDC046982800000002002030B5002309E018491A1D92008818002444600120404250500133002BF3D0134AB5
:400A000001231DE05568937E0F48401800240476023BDBB2012B11D81369002B01D0E87918705468002307E0180008304000201801256D4245800133002BF5D02C320B0085
:400A4000591E002BDED130BD000200209828000010B582B0040008001300628869460A80228A01F0A1FB6B461B8863806B469B7823716B46DB7863716B461B79A37102B072
:400A800010BDC04630B50B884A889C1A0025CD800079844200DDCC8030BDC046F0B5574680B482B0824684684568837E0193476A00260023009316E0298A20883A0001F0EF
:400AC000A0FB320039002800FFF7C2FF0C37019A2100280000F094F9009021002800FFF7D1FF0A34013653461B8B9E42E4D3009802B004BC9246F0BDF0B5474680B482B05C
:400B000084460F000B8B8A684D6809698846002803D16888A979401802E06988A879081A0024012109E0D388984201D3002300E00B001C430A32490033005E1E002BF2D11C
:400B4000002C0CD043461B78002B02D0013B4246137043461B78002B04D0644602E0EB7942461370002C0AD06B88AA799A1A3E8B3100B86800F092FE002802D123E000206F
:400B800021E0BB7E022B1ED1396A0023320001A800F0F0FE00220BE0530002A98C466344043B1988130008335B00EB18598001329042F1D807E0030008335B00EB18012203
:400BC00052425A8001300028F5D0200002B004BC9046F0BD70B504008B7E144A1218157E023BDBB2012B04D82800FFF785FF050002E00020FFF7A4FC0C4B1B191D7663096C
:400C00001F2214401E3AA240002D07D104339B000649CB1859689143596006E004339B000249CB1859680A435A6070BD0002002070B5164D6C220021280001F0D4FC144B12
:400C40002B808023DB006B80124BAB8002232B77114C28001E3021003431142201F0BAFC2200083401230CE0A168238B04E013784B7201320A310300581E002BF7D12C3450
:400C80002B005D1E002BEFD170BDC04600020020364D0000B80B00009028000000280FD12C234343084AD31822331B78023BDBB2012B07D82C2358431018C368588A02E078
:400CC000024800E00148704790280000FFFF00000023024AD380024A1360704700020020E0010020FF231940062902D08318002119715300195AC31859808218002313723B
:400D00007047C04670B506000D00012305E0220029003000FFF7E6FF23005C1E002BF6D170BDC04610B52C235843064B1B188A00511848009A6894466044997EFFF7E2FFC1
:400D400010BDC0469828000070B505002C234343064AD3181B8B04E021002800FFF7E2FF23005C1E002BF7D170BDC0469828000010B5012303E02000FFF7E6FF23005C1E15
:400D8000002BF8D110BDC046F8B505002C2343430D4AD3185E681B8B11E02C236B430A4AD3189F68A20012195000596A63001B199A008A18318A385A01F017FA23005C1E64
:400DC000002BEAD1F8BDC0469828000010B5012303E02000FFF7D8FF23005C1E002BF8D110BDC04610B5FFF7F1FF10BD9840504380235B009A1A51434018000A7047C0462D
:400E0000F0B5474680B482B007000E00019201233EE06300985BF3185988884205D3431A321900251572012201E00B1A0022002A11D17D79AB420ED933191B7A3A7A93426D
:400E400005D3220001993000FFF74CFF1FE03219013313721BE03D79AB4204D97D79AB4215D2002A13D1FF23019A1340062B0ED00902331998461B79194308230122FFF78F
:400E8000B5FF020A6300F3185A804346187123005C1E002BBDD1002002B004BC9046F0BD30B5084803680F24A3431900064D2B780F2213400B43E13293432A78A24313434D
:400EC000036030BD00FF084062F1FF0F10B5FFF7E7FF10BD10B5044A1168044B0B40136000F068FB10BDC04610000140FFF0FFFF024BDB68802018407047C0460002002028
:400F000010B50E4BDB68DB030DD400280DD1430904339B00094A9B581F220240D340DB0705D4012404E0112402E0012400E00024002C01D100F050FB200010BD0002002045
:400F400010B5084BDB68DB0307D4074B1B78012B05D100F0C5FA002003E0112001E00120404210BD00020020E401002010B50C4BDB681B0612D40024012040420BE02000E3
:400F8000FFF7BEFF002805D10022064B5A70FFF7D7FF04E00134002CF1D000E0112010BD00020020E401002010B504000C4B1B78834214D0012B01D1FFF78CFF012C05D18E
:400FC00000F0AEF90122064B1A7008E0022C06D0042C04D0032C02D00022014B1A7010BDE401002030B500200D4B16E019680A681C69A2430A605C6822689D7E0721A9400D
:401000008A4311000622AA400A43226099680A685C69A2430A601C3301300428E6D930BDD82800007047C046084B1A68520052081A601A68120C12040138104318601A681E
:40104000802109060A431A607047C04600000240084B1A68520052081A601A68120C12040138104318601A68802109060A431A607047C0464000024070B5002514E02C2380
:401080006B430B4A9E58002406E0E3001B1B9800301800F06FFA01342C236B43044AD3181B7E9C42F1D30135002DE8D070BDC046982800002C235843024B18184368588934
:4010C0007047C046982800000203121A01238B40013B9A4205D90202101A834203D3402002E0C02000E00020C0B2704710B50C00FFF7E0FF40002188FFF7E6FF207310BD7F
:4011000070B58AB0FA239B0002AA1380C83353809380434B197F434801F0BAF8400802AB9881002600253DE02C2373433E4AD3185C680C2323800023237302AB98893B4995
:4011400001F0A6F860815521300000F01FFB23000A330693364B1B7802AA1376354B1888FA239B005843344901F092F802ABD881180000F0B1FF314B984203D9062501E0A6
:401180005B00638102AB998963892D4A5A439142F6D8002BF4D0B3000AAA94466344043B18600136002EBFD0002422E02C2363431D4AD3185E685521200000F0E7FA05431C
:4011C00033000A330693A3000AAA94466344043B1B6801930493164B1B7802AA1376F389D380330010330793100000F0A5FF30800134002CDAD000240DE02C2363430A4A60
:40120000D31859682000FFF771FF5521200000F0BDFA05430134002CEFD028000AB070BD00020020C05D000098280000DC050000E4000020E6000020FF0F0000870D01003B
:401240003831000010B5002408E02C236343054AD31859682000FFF749FF0134002CF4D010BDC0469828000010B5FFF72FFEFFF7E9FFFFF7B7FE00F053F80120FFF794FED9
:40128000002010BD014A024B1A6070470002000108000840044A1168044B0B40802189000B4313607047C04608000840FFFCFFFC014A024B1A6070470002000108000840BA
:4012C00070B50E001500038801249C40013CA3001B195800642100F0DBFF013083199C4200D22300B04201D8301A00E00020A84203D8AB4203D2062002E0062000E00020F5
:4013000070BDC04610B5054AC02314689C43204310600800FFF79CFE10BDC046DC00002010B5FFF7A9FEFFF7ADFF074A1168074B0B40C021C9000B431360054B1B68054AF6
:401340001343054A136010BD10000140FFF0FFFFDC0000202008E8810400084070B50930040000F0FBFD094D2968094B1940094B1A78A35C084C2468A218527A12041343DC
:401380000B432B6000F0EEFD70BDC0460800084000FF80FF642900006C02002010B5094B1B782C225343084AD3185B685989187B431FDBB2012B02D8490800D10131FFF719
:4013C000A1FF10BDE701002098280000028801239340013B1B04014A53607047DC00002070B500F0BBFD04001E4B1B681E4A13431E4A13601E4B187FFFF716FE1D4A1368E9
:401400005B005B0813601368802109060B431360194E3568272000F097FD184B2B40184A13433360E123DB0100E0013B154A1268120701D4002BF8D10F4B1D60094D124B66
:401440002A681343094A13600F20FFF76FF86F2000F07AFD6A680D4B1A60200000F082FD70BDC046DC0000202008E8810400084000020020400002400800084000E8FFBF63
:40148000F0060040100008402018E8810C00084010B5044AD36804490B43D360FFF7A0FF10BDC046000200208000010070B50400857E067E00F052FD23681B680F22B24062
:4014C00093431A000423B3401343666832680721A9408A4332602268136000F043FD70BDF8B5154F3B78154D2C267343EB185868134C002323703B787343EB18996823784C
:40150000DBB29A00D3185A008A180E4B1A60FFF725FF3B785E4370592278D2B2D3009A1A9300C018084B1860FFF7C0FF074800F08BFAFFF7ADFFF8BDE70100209828000020
:40154000E60100206C020020700200207D20000010B52C235843054BC058CB00591A8B00C018034B1860FFF7A1FF10BD982800007002002070B50400007EA57E21680B68AE
:401580000F22824093430B6000F0E8FC61680B680722AA4093431A000623AB4013430B6000F0E0FCA1680B68607E0122824093430B6070BD10B5064B1B78012B06D1054B9A
:4015C0001868FFF7D7FF0022014B1A7010BDC046E801002070020020F8B5114E2C273B004343F3185D68C0B20E4C20700120FFF7DBFCFFF7DFFF23787B439A590A4B1A6010
:401600000A4BDA687F218A43DA602178DA680A43DA602800FFF7DAFEFFF7C0FEF8BDC04698280000E7010020700200200002002070B52C234343134AD3185D68C9B2124C49
:40164000217099682378DBB29A00D3185A008A180E4B1A60FFF7C0FF2800FFF77FFE2378DBB20B49DA00D31A98000B689C4660440860FFF71BFF0122064B1A70064800F084
:40168000E3F970BD98280000E60100206C02002070020020E801002039200000F0B5474680B482B007000E009046304A13782C214B432F49CB185B68019300233370107875
:4016C000C0B22C4B1978C9B2FFF7B2FFFFF7E2FD002480256D00BC4202D23378AB4333706D0833782B4333700198FFF737FEFFF7CFFEE123DB0100E0013B1F4AD2681206C6
:4017000001D5002BF8D11D4B1B681C88002DE2D1164B1B782C225343154A9858154B1A78D2B2D3009A1A9300C018154B1860FFF721FF0022134B1A70FFF7BAFD22003900E1
:401740000198FFF7BDFD43461A7833789A4204D2424613700C4A13725481084B1B6832785A7202B004BC9046F0BDC046E701002098280000E6010020000200206C02002027
:4017800070020020E8010020DC000020F0B54F4680B484B0040089462C234343394AD3185F68012503AB1D703B882800984001384843642100F06CFD0190E2B2324B1A7021
:4017C000324800F041F93E000936314B1D725D810022304B1A7000250AE003AA31000198FFF75CFF05432B4A13780133DBB213702C236343234AD318DA7E264B1B78DBB21F
:401800009A42EAD803AB1B7801335B087B720022204B1A7023E02C2363431A4AD3189E681C4B1B78DBB29A00D3185A00B6181A4B1E60737A787A83420AD31B1AD8B27072A8
:401840004B4658436330642100F022FD707201E0002373720F4A13780133DBB213702C236343084AD318DA7E0A4B1B78DBB29A42D1D80022074B1A70280004B004BC91462D
:40188000F0BDC04698280000E701002039200000DC000020E60100206C020020F0B50024334B1C700400002600230BE0E588954206D9AE4204D22E4E3371012737702E00B2
:4018C0000A3401338B42F1D3294B1B78002B46D14AE0274FBB181B799E00F61874000519ED88AC465600B61875007D1966466E81002B12D18D006D186C000A3C0419E688C9
:401900005500AD186C003C19268101339D00EB185D004519EB88A3811FE04D1EEDB2AB420BD10A3C0419E5885400A4186300104CE3181D81C4889C810FE00A3C0419E688CC
:401940005500AD186C000A4D2C19268101339D00EB185D004519EB88A381013200E00022034B1B789A42B4D3014B1878F0BDC046EC010020F0B557464646C0B483B0824626
:401980000F000192984600252DE01B4B5B191C79002C07D16A0052195300174AD31800221A810AE0019B013B9C4206D16A0052195300114AD31800229A816E007219530063
:4019C0000D4AD3189A891989501A5B89C9185118784300F0E7FC7C43444400197F30000A534698530135044B18788542CDD303B00CBC90469A46F0BDEC010020014BD8672B
:401A00007047C0460000002010B5040000F0A6FA044A13689B009B08A4071C43146000F0A1FA10BD0CE400E080221202014B1A607047C04600E100E080221202014B1A604D
:401A40007047C04680E100E010B50400FFF7F4FF2000FFF7D3FF0020FFF7D6FFFFF7E4FF10BDC0460004000C014B18607047C046480105400004000C014B18607047C04687
:401A8000540105400004000C014B18607047C0464C01054070B504000D0000F05FFAAC40024B1C6000F05EFA70BDC0460800054010B500F053FA064A116802230B431360BC
:401AC00000F050FA18210220FFF7E4FF10BDC04600000540014B18607047C0467801054010B50D4C8023DB042360236823600020FFF7B8FF236823600C22084B1A600120F9
:401B0000FFF7E8FF3122064B1A606420FFF7B2FF0120FFF7B7FF10BD40010540640105406801054010B5064B1B78002B04D1FFF7D7FF0122024B1A70FFF7BAFF10BDC04616
:401B4000FA0100200004000C014B18607047C046C80105400004000C014B18607047C046D40105400004000C014B18607047C046CC01054070B504000D0000F0EFF9AC4063
:401B8000024B1C6000F0EEF970BDC0460800054010B500F0E3F9064A116808230B43136000F0E0F918210820FFF7E4FF10BDC04600000540014B18607047C046F8010540E5
:401BC00010B50D4C8023DB042360236823600020FFF7B8FF236823600C22084B1A600120FFF7E8FF3122064B1A600648FFF7B2FF0020FFF7B7FF10BDC0010540E401054004
:401C0000E80105401F4E000010B5064B1B78002B04D1FFF7D5FF0122024B1A70FFF7B8FF10BDC046FB0100200004000C014B18607047C046080105400004000C014B18604D
:401C40007047C0461401054070B504000D0000F085F9AC40024B1C6000F084F970BDC0460800054010B500F079F9064A116801230B43136000F076F918210120FFF7E4FFA0
:401C800010BDC04600000540014B18607047C0463801054010B580229204084B1A600C22074B1A600120FFF7EFFFFA20C000FFF7C3FF0020FFF7B8FF10BDC04600010540CC
:401CC0002401054010B5064B1B78002B04D1FFF7E1FF0122024B1A70FFF7C4FF10BDC046FC010020014B18607047C0463001054010B5FEF719FB064A136801331360032BF3
:401D000002DD0022024B1A600120FFF7EBFF10BD740100208023014AD05070470000002010B5040000F01AF9044A1368C0218B43A4011C43146000F015F910BD10E400E038
:401D400080225202014B1A607047C04600E100E080225202014B1A607047C04680E100E010B5FFF7F5FF0448FFF7D4FF0320FFF7D7FFFFF7E5FF10BDF11C00008022520212
:401D8000014B1A607047C04680E200E010B500F0E5F80B4A117820230B43DBB2137009490A7810231A43D2B20A70074A11780B43DBB2137000F0D6F800F0BCF810BDC0467E
:401DC00093000F4090000F4091000F40014B1878C0B2704760000F40014B1878C0B2704761000F40034B1B785B07FBD5024B18707047C04660000F4043000F4010B501E04D
:401E00000A4B1B780A4B1B789B06F9D400F0A6F8084A117801230B43DBB21370137801218B43137000F09EF810BDC04653000F4061000F4093000F4010B50F22064B1A701D
:401E4000FFF7DCFFFFF7C2FFFFF7C6FF0023034A1370034A137010BD83000F4080000F4081000F4010B5064B1B78002B04D1FFF7E3FF0122024B1A70FFF788FF10BDC04653
:401E8000FD01002004490A687F231A40C301D8B2104308607047C0460002044004490A68D2B202239A434000184010430860704700030440014B18647047C0460000002002
:401EC00010B5040000F04AF8044A1368C0218B43A4011C43146000F045F810BD00E400E00122014B1A60704700E100E00122014B1A60704780E100E010B5FFF7F7FF0448FA
:401F0000FFF7D8FF0320FFF7DBFFFFF7E9FF10BD211F00000122014B1A60704780E200E010B5FEF7DBF90A20FEF71EFBFFF7F2FF10BDC046034A1368802109060B4313605B
:401F40007047C046800002400230800804D0C0460138FDD1C046C046C0467047EFF3108072B6704780F310887047C046044B1A68044B1B78044909685B00D1527047C046B9
:401F80006C020020642900000C00084070B5234C227823492C235A438A18506822785343CB181A7E013A1F4B1B78DBB29A421DD91C4C23780133DBB22370184D2B782C22E3
:401FC0005343CB1899682378DBB29A00D3185A008A18154B1A60FFF7C1F92878C0B22178C9B2FFF7B5FAFFF7FBF916E000220D4B1A700E4AD1680E4B0B40D3600D4B1B7832
:40200000012B02D1FFF70EF807E0084BDA6880218A43DA601A8901321A8170BDE701002098280000E60100206C02002000020020FFFFFEFFE501002010B50122094B1A60AD
:40204000FFF794FF084B1B68084A1343084A1360084B1A8901321A81D968074A0A40DA6010BDC04614000840DC0000202008E88104000840000200207FFFFEFF10B50F4BF6
:402080001B782C2253430E4A9C580E4B1A78D2B2D1008A1A9300E41801220B4B1A60FFF765FF0A4B1B680A4A13430A4A13602000FFF760FAFFF76AFF10BDC046E7010020AA
:4020C00098280000E601002014000840DC0000202008E88104000840F7B5036986890193C3898588FA275D43019B04001988300000F0CEF8BF007D4381B2280000F0C8F85E
:40210000237E6188584300F0C3F8050020883900684300F0BDF80749704300F0B9F80123002802D040085B00FAE7019A28001380FEBDC04600E1F50570B504004088217ED1
:402140000304181AA388594300F0A2F8236905001988A08900F09CF880B26843104900F097F8E3880A21584300F092F800230D4AA16810258A425B410222D31A623253433B
:40218000984204D9013DEDB24008062DF8D14B236421584300F07CF864692080280070BDA0860100A761000010B50024A34200D00C880388101C9B009BB29A4200D2181CB1
:4021C00083B2221C9C4200D2021C93B20A805A08FF2A01D9FF2200E0D2B28A70CA70DB08FF2B00D9FF230B7110BD8B0813800F2393720023C90851809080D0801081D37208
:402200007047937A30B594885B00041B9080DBB2002C01DB937202E00133937264420F23957A1D4053889572A34203D9012B03D9013B00E0013353800F2D05D0002D03D077
:4022400053889D00AC4204D90023D0801081D3721DE0D488844201D9D08003E01489844200D21081D07A092802D80130D0720EE01089D488001B80B2834204D989088B42E8
:4022800003D9013B00E0013353805388138030BD002243088B4274D303098B425FD3030A8B4244D3030B8B4228D3030C8B420DD3FF22090212BA030C8B4202D312120902DD
:4022C00065D0030B8B4219D300E0090AC30B8B4201D3CB03C01A5241830B8B4201D38B03C01A5241430B8B4201D34B03C01A5241030B8B4201D30B03C01A5241C30A8B42AD
:4023000001D3CB02C01A5241830A8B4201D38B02C01A5241430A8B4201D34B02C01A5241030A8B4201D30B02C01A5241CDD2C3098B4201D3CB01C01A524183098B4201D325
:402340008B01C01A524143098B4201D34B01C01A524103098B4201D30B01C01A5241C3088B4201D3CB00C01A524183088B4201D38B00C01A524143088B4201D34B00C01ABF
:402380005241411A00D20146524110467047FFE701B5002000F0F0F802BDC0460029F7D076E7704703460B437FD4002243088B4274D303098B425FD3030A8B4244D3030BA4
:4023C0008B4228D3030C8B420DD3FF22090212BA030C8B4202D31212090265D0030B8B4219D300E0090AC30B8B4201D3CB03C01A5241830B8B4201D38B03C01A5241430B70
:402400008B4201D34B03C01A5241030B8B4201D30B03C01A5241C30A8B4201D3CB02C01A5241830A8B4201D38B02C01A5241430A8B4201D34B02C01A5241030A8B4201D3F0
:402440000B02C01A5241CDD2C3098B4201D3CB01C01A524183098B4201D38B01C01A524143098B4201D34B01C01A524103098B4201D30B01C01A5241C3088B4201D3CB0074
:40248000C01A524183088B4201D38B00C01A524143088B4201D34B00C01A5241411A00D201465241104670475DE0CA0F00D04942031000D34042534000229C4603098B428A
:4024C0002DD3030A8B4212D3FC22890112BA030A8B420CD3890192118B4208D3890192118B4204D389013AD0921100E08909C3098B4201D3CB01C01A524183098B4201D3CE
:402500008B01C01A524143098B4201D34B01C01A524103098B4201D30B01C01A5241C3088B4201D3CB00C01A524183088B4201D38B00C01A5241D9D243088B4201D34B002C
:40254000C01A5241411A00D20146634652415B10104601D34042002B00D54942704763465B1000D3404201B5002000F005F802BD0029F8D016E770477047C046014B1868CC
:402580007047C046480100200E4B70B500251E000D4CE41AA410A54204D0AB00F35898470135F8E700F0E0F9084B00251E00084CE41AA410A54204D0AB00F3589847013559
:4025C000F8E770BD7429000074290000742900007C290000002310B59A4203D0CC5CC4540133F9E710BD03008218934202D019700133FAE770470000000000008000000082
:4026000001000000200000004000000000300F40800200330F40000100400F400004000080320F40E027000080000000830F01010280050108020A0D0C100E60104D1280E4
:40264000148D1501164018CD1CCD20CD2401263228122A642C722E0830703280340F370138803A223E443F405409580459045B045F018503870488138A0C910493099402B7
:40268000960D99059B0A9D0E9E20A009A236A805AA3AB10FB20FB630B902BA08D440D804D904DB04DF01004001220240070809800A940D080E02110112021324150217209E
:4026C000184019681D081E02230127803204360237A039023B043F04581059045A416301650866508940C04BC2AFC45FCCB2CE43D60FD87800480120024009800A800B14FF
:4027000010211101120219601A4121112206233C28112A043020318032043301384039113B04411149464B1052546108682469116A946B01718085209040950396DD97041B
:402740009C109D069E109F28A108A580A602B601C00FC20FC40DCA0ACC0FCE0FD005D20CD802E281E402EA100E08530455015B806E08C280D4A0D620DA8083808B04970850
:402780009F80B501E28067406F8078487B808848D801DC03E00119401C21238054106001640883808740894097409808C607C802D402D602D801E2010101100101000F4050
:4027C0003C300F4027310F403A330F4009400F4006410F4008420F4011430F4002600F40601A0000803304440102001804180000041880020AC1103807183802841A00004C
:40280000840000008482000000000000569C090308E0000F7F1380002000000A000041006402500000DEFB0C1FFFFFFF2200F008040000000000022804040404000000018C
:402840000000C00040011011C00100114001400100000000000000000000000000000000030405060708090A0B0C0E0F101112131415161718191B1C1D1E1F202122232571
:40288000262728292A2B2E2F30313233343500002020202020000000D82800001E0200203202002000000000DC01002001280000050002056400000000190000A0010020F5
:4028C000800000000C00640028280A031E2004000000A0000000FFFF04000140080104400001044004010440F00000000200000004010300040001400801044000010440BA
:4029000004010440000F000004000000080206000400014008010440000104400401044000F00000080000000C0309000400014008010440000104400401044000000F00CC
:402940001000000010040C00040001400801044000010440040104400000F0002000000014050F0000430000F8B5C046F8BC08BC9E467047A5020000ED040000F8B5C0467B
:40298000F8BC08BC9E4670477D020000A0290000C000002090000000280100000000000000000000010000000000E02EC05D00001800000000366E01040404000008C00165
:4029C0000000FF0F01000100000000000000000000000000000000000000000000000000000000000000000065290000000000000000000000000000000000000000000039
:402A000000000000000000000000000000000000000000000000000000000000000000000000000000000000E800002000000000000000000000000000000000000000008E
:402A40000000000000000000000000000000000000000000000000000000000000000000000000000000000000000000000000000000000000000000000000000000000056
:402A80000000000000000000000000000000000000000000000000000000000000000000000000000000000000000000000000000000000000000000000000000000000016
:402AC00000000000000000000000000000000000000000000000000000000000000000000000000000000000000000000000000000000000000000000000000000000000D6
:402B00000000000000000000000000000000000000000000000000000000000000000000000000000000000000000000000000000000000000000000000000000000000095
:0200000490303A
:02000000EAD242
:0200000490402A
:200000000000000000000000000000000000000000000000000000000000000000000000E0
:0200000490501A
:0C000000000204C81193110104D5FC6536
:0200000490600A
:0100000001FE
:00000001FF