:400000000010002011000000A5050000A505000080B500AF00F0D0FA80B500AF124B124A12688021C9020A431A60182000F0C2FF0D4B0D4A12680D490A401A600C4B0D4A69
:400040001A600D4B10221A600C4B802212061A60054B00221A600A4B0A4A1A600A4B00221A60C046BD4680BD00010B40FFFFFBFF04010B40060000803002024008010B404F
:4000800000000240010000800C020B4080B586B000AF72B61723FB1800221A7025E01723FB181A7813005B009B185B005D4A9B183B613B691A78597809020A439978090416
:4000C0000A43DB781B06134318003B691A795B791B0213439BB2190000F0FCF91723FB181A781723FB1801321A701723FB181B78022BD4D91723FB1800221A7036E017231C
:40010000FB181A7813009B009B185B00464A9B18FB60FB681A78597809020A43997809040A43DB781B061343BB60FB681A79597909020A43997909040A43DB791B061343FB
:400140007B60BA1CFB68197A5B7A1B020B431380BB1C1A887968BB68180000F0CBF91723FB181A781723FB1801321A701723FB181B78002BC3D02D4A2D4B1100180000F02D
:40018000C9F92C4BC02292041A602B4B2B4A1A602B4B992212041A602A4B802292051A60294B992212041A60284B992212041A60274B992212041A60264B982212061A60CF
:4001C000254A254B1B78DBB23C218B43DBB214210B43DBB21370214A204B1B78DBB216210B43DBB213701E4BC3221A601D4B1E4A1A601E4BC02252031A601D4B40221A60BA
:400200001C4B802212031A601B4BF0221A601B4B1B4A1A60FFF700FF00F0BEF9C046BD4606B080BD5C14000070140000A01400007C140000000001400C00014000EE03039D
:4002400000500F4008500F4010500F4020500F4030500F4038500F4001700F4000700F400000044008000440920D58000801044000020440080204400003044008030440A7
:40028000B66D590010B5064C2378002B07D1054B002B02D0044800E000BF0123237010BD480100200000000048140000084B10B5002B03D00749084800E000BF074803687D
:4002C000002B00D110BD064B002BFBD09847F9E7000000004C01002048140000C80000200000000080B586B002AF78600023FB601AE0FB68981CFB689A1C7B680093130059
:400300007E22022100F08CFCFB687E22D01AFB687E22D21A7B680093130002227E2100F07FFCFB680533FB60FB687D2BE1DDC046BD4604B080BDC04690B585B002AF3B1DAD
:400340003E221A80BB1C3E221A8000F0E9F9012000F0E8FC012000F091FF012000F0B6FF012000F063FF574B180000F011FABB1D00221A8014E03B1D0020185EBB1C0021EE
:40038000595EBB1D00229A5E80231B0100F0A4FABB1D00229B5E9BB201339AB2BB1D1A80BB1D00229B5E272BE5DDBB1D23221A8013E03B1D0020185EBB1C0021595EBB1DEF
:4003C00000229A5E404B00F087FABB1D00229B5E9BB201339AB2BB1D1A80BB1D00229B5E252BE6DD3B1D00229B5E143B1900BB1C00229B5E1B3B1A00334C344880231B01B8
:400400000093230000F0D8FB3B1D0021595EBB1C00229B5E143B1A002B4C2D4880231B010093230000F0C8FB274B1800FFF75AFF012000F023FF012000F048FF012000F02F
:40044000F5FE00F079FF031E05D1002000F03EFFF020FFF747FF00F099FF031E0AD1002000F034FF002000F0E1FEFF231B011800FFF738FF00F06EFF031E05D1002000F0F4
:40048000FDFE0F20FFF72EFF00F072FF031E07D1002000F0CBFEF0231B011800FFF722FF00F03CFF031EC3D1002000F0E7FE002000F0BCFE002000F009FF034B1800FFF74B
:4004C00011FFB5E7130D0000FF0F00004C1400005414000080B582B000AF786039603A687B680021180000F0A6FFC046BD4602B080BDC04680B584B000AFF860B9607A601F
:400500007A68B968FB68180000F08CFFC046BD4604B080BD80B586B000AF7860396000233B6100237B612FE07B699B007A68D3181B68BB600F23FB18BA681A70BB68FF2251
:400540009343BB6018E03B695B003A68D3181B781A00BB68D31819003B695B003A68D3185B780B703B6901333B610F23FB181A780F23FB18013A1A700F23FB181B78002B00
:40058000E1D17B6901337B617B69082BCCD9C046BD4606B080BDC04680B500AFC046BD4680BDC04680B500AF00F010FF03001B680C2B00D1FEE7FEE780B586B000AF224BE5
:4005C0007B61224B3B61204B7B6135E03B691B68FB603B695B68BB603B699B683B6000237B600CE0FB681A68BB681A60BB680433BB60FB680433FB607B6804337B607A68C7
:400600003B689A42EED13B69DB683B6000237B6008E0BB6800221A60BB680433BB607B6804337B607A683B689A42F2D13B6910333B617B69013B7B617B69002BC6D100F0B2
:40064000CBFEFFF779FEFEE701000000181D000080B582B000AF00237B600FE07B68032B04D8104B7A689200D35800E00E4B0F4A796889008B507B6801337B607B682F2B39
:40068000ECD9FFF703FD0A4B00221A608023DB058022D205126801210A431A60C046BD4602B080BD00000000A505000000000020C000002080B582B000AF7860C04600F0A9
:4006C000EDFB03001A0011231340F8D07B689BB2180000F003FCC046BD4602B080BDC04680B584B000AF78607B681BB28022520013431AB20E23FB181A80C04600F0CEFB1E
:4007000003001A0011231340F8D00E23FB181B88180000F0E3FBC046BD4604B080BDC04680B500AF00F09CFB142000F06BFD002000F01EFBC82000F03FFDFF2000F018FB2A
:40074000C82000F039FD1120FFF7B4FF0320FFF7B1FF2920FFF7AEFF3A20FFF7ABFF0320FFF7BEFF3620FFF7A5FF2520FFF7A2FF3020FFF7B5FF0020FFF79CFF3C2000F049
:4007800053F8002000F004F8C046BD4680BDC04680B584B000AF78602B20FFF78BFF0020FFF79EFF8320FFF79BFF2A20FFF782FF0020FFF795FF8320FFF792FF2C20FFF71E
:4007C00079FF0023FB601AE07B681B111A00FF2313401800FFF784FF7B681B01FF221A407B681B1213431800FFF77AFF7B68FF2213401800FFF774FFFB680133FB60FB6846
:40080000064A9342E0D9064B00221A60054B00221A60C046BD4604B080BDC04683210000640100206801002080B582B000AF78607B687F2213407B602520FFF73BFF7B6857
:400840001800FFF74DFFC046BD4602B080BDC04680B584B000AFF860B9607A60BB688322D31ABB60FB688322D31AFB602B20FFF721FFFB68FF2213401800FFF731FFFB68C4
:40088000FF2213401800FFF72BFF2A20FFF712FFBB68FF2213401800FFF722FFBB68FF2213401800FFF71CFF2C20FFF703FF7B681B111A00FF2313401800FFF711FF7B68D2
:4008C0001B011A00FF2313401800FFF709FFC046BD4604B080BDC04680B58AB000AFF860B9607A603B607B680122D31A7B6200233B627A681300DB079B1A5B00FB6100233D
:40090000BB617B687B61BA687B68D1183A68FB681800FFF79DFFBA687B68D11A3A68FB681800FFF795FFFA687B68D3183A68B9681800FFF78DFFFA687B68D31A3A68B96826
:400940001800FFF785FF67E07B6A002B09DB7B69013B7B61FB690233FB617A6AFB69D3187B62BB690133BB613B6A02333B623B6A01337A6AD3187B62FA68BB69D018BA68A9
:400980007B69D3183A681900FFF762FFFA68BB69D01ABA687B69D3183A681900FFF758FFFA68BB69D018BA687B69D31A3A681900FFF74EFFFA68BB69D01ABA687B69D31A2B
:4009C0003A681900FFF744FFFA687B69D018BA68BB69D3183A681900FFF73AFFFA687B69D01ABA68BB69D3183A681900FFF730FFFA687B69D018BA68BB69D31A3A6819005D
:400A0000FFF726FFFA687B69D01ABA68BB69D31A3A681900FFF71CFFBA697B699A4293DBC046BD460AB080BD80B590B000AFB9607A603B600F23FB18021C1A707B688322F4
:400A4000D31A7B60BB688222D31ABB60594B7B627B6A1B783B627B6A01331B78FB617B6A02331B78BB610F23FB181B781F3BBA6953431A00BB69D318013B7A6AD318BB623C
:400A80002B20FFF717FEBB68FF2213401800FFF727FEBB68DAB2FB69DBB2D318DBB2013BDBB21800FFF71CFE2A20FFF703FE7B68FF2213401800FFF713FE7B68DAB23B6A42
:400AC000DBB2D318DBB2013BDBB21800FFF708FE2C20FFF7EFFDBB69013BBA6AD318BB62FB69013BFB635DE0BB6A5A1EBA621722BA181B7813703723FB1801221A70002308
:400B0000BB6348E01723FB183722BA181B7812781340DBB2002B02D1BB6C3B6301E03B683B633723FA183723FB181B78DB1813701723FB183722BA181B7812781340DBB2BE
:400B4000002B02D1BB6CFB6201E03B68FB623723FA183723FB181B78DB1813703B6B1B111A00FF2313401800FFF7BAFD3B6B1B01FF221A40FB6A1B120F210B401343180052
:400B8000FFF7AEFDFB6AFF2213401800FFF7A8FDBB6B0233BB63BA6B3B6A9A42B2DBFB6B013BFB63FB6B002B9EDAC046BD4610B080BDC046B416000090B589B002AFF860F6
:400BC000B9607A603B60BB681033BB607B6808337B607B687B6119E0FB685A1CFA6018783C687A68B968BB6A00932300FFF71CFF7B6808337B607B68832B04DDBB6810330E
:400C0000BB607B697B60BB68832B04DCFB681B78002BE1D100E0C046C046BD4607B090BD80B58AB000AFF860B9607A603B603A68BB68D31A7B627A68FB68D31A3B627B6A1C
:400C4000002B06DA7B6A5B427B6201235B42BB6101E00123BB613B6A002B06DA3B6A5B423B6201235B42FB6101E00123FB617B6A5B007B623B6A5B003B623A6BB968FB681C
:400C80001800FFF7E5FD3A6A7B6A9A4223DD3B6A5B107A6AD31A7B6118E07B69002B07DBBA68BB69D318BB607A693B6AD31A7B61FA68FB69D318FB607A697B6AD3187B6101
:400CC0003A6BB968FB681800FFF7C2FDFA687B689A42E2D122E07B6A5B103A6AD31A3B6118E03B69002B07DBFA68FB69D318FB603A697B6AD31A3B61BA68BB69D318BB6099
:400D00003A693B6AD3183B613A6BB968FB681800FFF79EFDBA683B689A42E2D1C046BD460AB080BD80B584B000AF0200FB1D1A700E4B1B68DAB20F23FB1801218A431A70DC
:400D4000FB1D1B7801221340D9B20F23FB180F22BA1812780A431A70044B0F22BA1812781A60C046BD4604B080BDC0460003044080B584B000AF0200FB1D1A700F4B1B68E8
:400D8000DAB20F23FB1802218A431A70FB1D1B78DB18DBB202221340D9B20F23FB180F22BA1812780A431A70044B0F22BA1812781A60C046BD4604B080BDC0460003044075
:400DC00080B500AF084B11221A7000F0A1F800F065F800F073F8054B00221A70044B00221A70C046BD4680BD81000F4082000F4080000F4090B583B000AFFC1D00F0DEFA19
:400E000003002370134A134B1B78DBB220210B43DBB21370104A104B1B78DBB210210B43DBB213700D4A0D4B1B78DBB210210B43DBB21370FB1D1B78180000F0C3FA00F080
:400E4000ABF800F01FF800F023F8C046BD4603B090BDC04691000F4092000F4090000F4080B500AF064B1B78002B04D1FFF7A8FF034B01221A70FFF7BDFFC046BD4680BDB6
:400E80006C01002080B500AFC046BD4680BDC04680B500AFC046BD4680BDC04680B582B000AF054AFB1D12781A70FB1D1B781800BD4602B080BDC04662000F4080B582B0E1
:400EC00000AF054AFB1D12781A70FB1D1B781800BD4602B080BDC04660000F4080B582B000AF0200BB1D1A80C046074B1B78DBB21A0004231340F8D0044ABB1D1B881380A4
:400F0000C046BD4602B080BD62000F4084100F4090B583B000AF01E01B4B1B881B4B1B78DBB21A0020231340F6D1FC1D00F046FA03002370164A164B1B78DBB201210B43E7
:400F4000DBB21370124A124B1B78DBB201218B43DBB213700F4A0F4B1B78DBB201210B43DBB213700B4A0B4B1B78DBB201218B43DBB21370FB1D1B78180000F023FAC04694
:400F8000BD4603B090BDC046A4100F4060000F4092000F4093000F4080B500AF044B044A1268802109060A431A60C046BD4680BD0000024090B585B000AF78600C23FC1875
:400FC00000F0FCF9030023707B68022B00D8B3E07B68302B00D9AFE05E4B1B78DBB21A007B689A420AD35C4A0F23FB1812781A705A4A0E23FB1812781A703FE0584B1B7886
:40100000DBB21A007B689A420AD3564A0F23FB1812781A70544A0E23FB1812781A702DE0524B1B78DBB21A007B689A420AD3504A0F23FB1812781A704E4A0E23FB181278A5
:401040001A701BE04C4B1B78DBB21A007B689A420AD34A4A0F23FB1812781A70484A0E23FB1812781A7009E0464A0F23FB1812781A70454A0E23FB1812781A707B68DA1E13
:401080000B23FB1841498A5C1A700B23FB181B782F2B0DD97B682A2B0AD93D4B19221A60052000F081F90D23FB1819221A7007E0374B1B68DAB20D23FB183F210A401A7003
:4010C0000B23FA180D23FB1812781B789A4208D22F4B7A68033A2D498A5C1A60052000F063F97B68284A9A180A23FB1812781A70284B0A22BA1812781A60274B0F22BA1875
:4011000012781A60254B0E22BA1812781A60052000F078F80B23FA180D23FB1812781B789A420CD91A4B7A68033A18498A5C1A60052000F039F902E0002000F031F80C2379
:40114000FB181B78180000F03DF9C046BD4605B090BDC046C0F1FF0FC1F1FF0FC2F1FF0FC3F1FF0FC4F1FF0FC5F1FF0FC6F1FF0FC7F1FF0FC8F1FF0FC9F1FF0FCAF1FF0F0E
:40118000CBF1FF0FCCF1FF0FCDF1FF0FC41C00002CFF0B4028FF0B401CFF0B4020FF0B4080B582B000AF0200FB1D1A7001BEC046BD4602B080BDC04680B582B000AF7860D1
:4011C00009E00D4B1B68180000F0EEF87B680B4A944663447B607A6880231B029A42F0D8074B1B687A685343180000F0DDF8C046BD4602B080BDC046D80000200080FFFFC5
:40120000D000002080B582B000AF0200BB1D1A80BB1D1B88044A12785343180000F0C4F8C046BD4602B080BDD400002080B584B000AF0200FB1D1A700F4B1B68DAB20F2344
:40124000FB1840218A431A70FB1D1B789B01DBB240221340D9B20F23FB180F22BA1812780A431A70044B0F22BA1812781A60C046BD4604B080BDC0460001044080B584B0E2
:4012800000AF0200FB1D1A700F4B1B68DAB20F23FB1808218A431A70FB1D1B78DB00DBB208221340D9B20F23FB180F22BA1812780A431A70044B0F22BA1812781A60C0468D
:4012C000BD4604B080BDC0460000044080B584B000AF0200FB1D1A700F4B1B68DAB20F23FB1804218A431A70FB1D1B789B00DBB204221340D9B20F23FB180F22BA18127821
:401300000A431A70044B0F22BA1812781A60C046BD4604B080BDC0460000044080B500AF044B1B68402213409B09DBB21800BD4680BDC0460402044080B500AF044B1B6842
:4013400080221340DB09DBB21800BD4680BDC0460400044080B500AF044B1B68DBB201221340DBB21800BD4680BDC0460400044080B500AF044B1B68202213405B09DBB239
:401380001800BD4680BDC0460403044080B500AF044B1B6880221340DB09DBB21800BD4680BDC046040304400230800804D0C0460138FDD1C046C046C0467047EFF31080E9
:4013C00072B6704780F310887047C046014B18687047C046400100200E4B70B500251E000D4CE41AA410A54204D0AB00F35898470135F8E700F07EFC084B00251E00084C97
:40140000E41AA410A54204D0AB00F35898470135F8E770BD001D0000001D0000001D0000081D0000002310B59A4203D0CC5CC4540133F9E710BD03008218934202D0197027
:401440000133FAE770470000000000005175696E746F6E00436C696E6500000000300F40000280320F40800100400F400004000000320F40341600008000000001000F4096
:401480003F300F4028310F4020320F4036330F4003400F4001420F4006430F4002600F4081110405060A0C0E1C031E0428042A09360F3880544058045B045F0181078201E4
:4014C0008338842E85048680882289808A4C8B048C208D048ED08F8090D89184920194D195849608980299569A0C9B099C109D019E26A0D9A184A50AA710A8D9ACD9AD600A
:40150000B17FB201B380B40EB6F0B780B902BAA0BE04BF44D602D724D804D904DB04DF0101800320055006C007200A010E55132015011602171019801C101D401E04260883
:4015400027822E022F21360537A03E556010625067086D016E5A6F51760287808980C0F5C2F1C4D2CAD0CCF0CEF0D82EE002E680860296039A039C01B403C023C101C26055
:40158000C7B0C820C901CAFFCBFFCC23CE80CF08D004D804DA04DF01E2C0E440E501E610E711E8C0E901EB11EC40ED01EE40EF01000405120602072009A80E1617511804EA
:4015C0001DB01E431F202408254827282F203502372838083B083E0141A845A84A084D0A4E08530156905D185E405F026401880189528C0492149601970A9A029B539D10FE
:401600009E909F20A208A720C0F4C2E7C4D0CA40CCE0CE80D07ED224D6F0D81061208920D84087015B015F088F089B01D603E40201011001029900621C002300210018005E
:401640001A000000000400000210186818CC0030130024001800020000AE0051180002001A000000200000070F78138000002028000001402301600000CEFD000FFFFFFFFD
:4016800002007008040000000900000004040404000000010000C00040011011C00100114001400100000000000000000000000000000000081010000000000000000000F4
:4016C0000000000008101000000000000000000000000000000000000000000000000000000000000000183C3C3C1818180018180000000000636363220000000000000033
:401700000000000000000036367F3636367F3636000000000C0C3E6361603E030343633E0C0C000000000000006163060C183363000000000000001C36361C3B6E66663B9F
:40174000000000000030303060000000000000000000000000000C18183030303018180C000000000000180C0C060606060C0C18000000000000000042663CFF3C66420002
:401780000000000000000000181818FF18181800000000000000000000000000000018181830000000000000000000FF0000000000000000000000000000000000001818F3
:4017C0000000000000000103070E1C3870E0C0800000000000003E6363636B6B6363633E0000000000000C1C3C0C0C0C0C0C0C3F0000000000003E6303060C183061637F1C
:401800000000000000003E6303031E030303633E000000000000060E1E3666667F06060F0000000000007F6060607E030363733E0000000000001C3060607E636363633EE0
:401840000000000000007F630306060C0C1818180000000000003E6363633E636363633E0000000000003E636363633F0303063C00000000000000000018180000001818F7
:401880000000000000000000001818000000181818300000000000060C18306030180C06000000000000000000007E00007E0000000000000000006030180C060C18306002
:4018C0000000000000003E6363060C0C0C000C0C0000000000003E63636F6B6B6E60603E000000000000081C366363637F6363630000000000007E3333333E333333337E23
:401900000000000000001E33616060606061331E0000000000007C36333333333333367C0000000000007F3331343C343031337F0000000000007F3331343C343030307804
:401940000000000000001E336160606F6363371D000000000000636363637F63636363630000000000003C18181818181818183C0000000000000F06060606060666663CFF
:40198000000000000000733336363C36363333730000000000007830303030303031337F00000000000063777F6B6363636363630000000000006363737B7F6F67636363D1
:4019C0000000000000001C36636363636363361C0000000000007E3333333E30303030780000000000003E6363636363636B6F3E0607000000007E3333333E363633337315
:401A00000000000000003E6363301C060363633E000000000000FFDB991818181818183C0000000000006363636363636363633E00000000000063636363636363361C0842
:401A400000000000000063636363636B6B7F3636000000000000C3C3663C18183C66C3C3000000000000C3C3C3663C181818183C0000000000007F6343060C183061637FED
:401A80000000000000003C30303030303030303C00000000000080C0E070381C0E0703010000000000003C0C0C0C0C0C0C0C0C3C00000000081C366300000000000000009C
:401AC00000000000000000000000000000000000FF00000018180C0000000000000000000000000000000000003C46063E66663B0000000000007030303C36333333336E62
:401B00000000000000000000003E63606060633E0000000000000E06061E36666666663B0000000000000000003E63637E60633E0000000000001C3632307C303030307817
:401B40000000000000000000003B666666663E06663C00000000703030363B33333333730000000000000C0C001C0C0C0C0C0C1E0000000000000606000E06060606066600
:401B8000663C000000007030303333363C3633730000000000001C0C0C0C0C0C0C0C0C1E0000000000000000006E7F6B6B6B6B6B0000000000000000006E333333333333C1
:401BC0000000000000000000003E63636363633E0000000000000000006E333333333E303078000000000000003B666666663E06060F000000000000006E3B33303030781A
:401C00000000000000000000003E63380E03633E0000000000000818187E181818181B0E0000000000000000006666666666663B000000000000000000636336361C1C08C9
:401C40000000000000000000006363636B6B7F3600000000000000000063361C1C1C366300000000000000000063636363633F03063C000000000000007F660C1830637F9C
:401C80000000000000000E18181870181818180E00000000000018181818180018181818180000000000701818180E18181818700000000000003B6E0000000000000000C1
:401CC00000000000030405060708090A0B0C0E0F101112131415161718191B1C1D1E1F2021222325262728292A2B2E2F3031323334354300F8B5C046F8BC08BC9E467047EB
:401D0000AD02000051060000F8B5C046F8BC08BC9E46704785020000281D0000C800002080000000280000000000000000366E01C05D0000180000000000E02E0100000092
:401D40000000000000000000000000000000000000000000000000000000000000000000F21C00000000000000000000000000000000000000000000000000000000000055
:401D80000000000000000000000000000000000000000000000000000000000000000000E00000200000000000000000000000000000000000000000000000000000000023
:401DC00000000000000000000000000000000000000000000000000000000000000000000000000000000000000000000000000000000000000000000000000000000000E3
:401E000000000000000000000000000000000000000000000000000000000000000000000000000000000000000000000000000000000000000000000000000000000000A2
:401E40000000000000000000000000000000000000000000000000000000000000000000000000000000000000000000000000000000000000000000000000000000000062
:401E80000000000000000000000000000000000000000000000000000000000000000000000000000000000000000000000000000000000000000000000000000000000022
:0200000490303A
:020000006A0B89
:0200000490402A
:200000000000000000000000000000000000000000000000000000000000000000000000E0
:0200000490501A
:0C000000000204C81193110104D17B9E82
:0200000490600A
:0100000001FE
:00000001FF