:400000000010002011000000210500002105000010B500F0A5FAC04670B5194C23688022D20213432360182000F07AFD2268154B13402360144A154B1A602022144B1A60C3
:400040001032144B1A60203A134B1A6080221206124B1A6000252560114A124B1A60124A124B1A60124A134B1A601349092000F0FDFC092000F0E4FC104B1D6070BDC046ED
:4000800000010B40FFFFFBFF0600008004010B4008020240200202403002024008010B4001000080000002400E000080400002405F09008080000240310D00000C020B409A
:4000C00070B572B601223B4B1A7000240FE03A486200131959000B00411889881A5AC31858880004104300F011FA0134E4B2022CEDD9002411E0304EA2001319590071180C
:400100008D8AC88A000428430A8B498B09041143802200F001FA0134E4B2002CEBD0264920312648043000F0D7F9C0229204244B1A60244A244B1A60EE22244B1A6099234F
:400140001B04234A136080218905224A1160224A1360224A1360224A224B1A600122224B1A600132214B1A6021490B783A32934314221343DBB20B701E4A117816230B4305
:40018000DBB2137040221C4B1A601C4A1C4B1A601C4A1D4B1A6051221C4B1A601C4A1D4B1A6003221C4B1A6021321C4B1A60FFF733FF70BD1C700F408C1E00008C20000001
:4001C0000000014003EE03030C0001401000014000500F4008500F4010500F4030500F400000023138500F402000004000800F4001700F4000700F4000000440800D1800C4
:4002000008000440010018000801044000030440B66D180008030440000404400804044010B5064C2378002B07D1054B002B02D0044800E000BF0123237010BD60010020B1
:4002400000000000881E0000084B10B5002B03D00749084800E000BF07480368002B00D110BD064B002BFBD09847F9E70000000064010020881E0000C000002000000000EF
:4002800030B583B0050072B600240CE06300585F631C5B00595F074B00930B00020000F0D1FA013424B22C23FF339C42EEDD62B603B030BDFF0F000070B582B005000C002D
:4002C000160072B61300082200F03EFA28000F382A000F3200962300210000F0B3FA21000F3923000F3300962A00280000F0AAFA62B602B070BDC046F0B583B000900E004D
:400300001500019372B6002407E0019B22003100009800F019FA013424B22F002837BC42F3DB002407E0002322003100009800F00BFA013424B2A742F5DC0898FFF7A0FFEA
:40034000FF22120131000098FFF7B6FF62B603B0F0BDC04670B50D001400C0B200F03AFDE8B200F043FDE0B200F04CFD70BDC04670B504000D0000F03BFE00232A002100E3
:40038000532000F0A7FE00F01BFE8307FBD570BD70B504000D0000F02BFE01232A002100532000F013FF00F00BFEC307FBD570BDF8B562B600F0DCFF00F046FD00F0EEFF12
:4003C00000F066F9012000F093FA002000F026F93D48FFF755FF3D4D0023E95E0223E85EFF221201FFF768FF002201210120FFF7B1FF374C2B79237008236370022120001C
:40040000FFF7B6FF6B7923700323637002212000FFF7AEFFAB7923707023637002212000FFF7A6FFEB7923700026667002212000FFF79EFF2B7A2370C023637002212000C6
:40044000FFF796FF6B7A23700723637002212000FFF78EFFAB7A23702027677002212000FFF786FFEB7A2370677002212000FFF77FFF2B7B23708023637002212000FFF7B4
:4004800077FF01F00FF900F0EFFF01F019F95823104AD6520CE001F011FC842101F0CAFB6400094BE1520B4958228B5A01338B525823084AD45E2C23FF339C42EBDD02488B
:4004C000FFF7DEFE62B6FEE77C010020C4000020140400207C030020F0B50025002711E0BB00C658F3B2FF22964308E06A008A181478A419527822700135013BDBB2002BB8
:40050000F4D10137082FEBD9F0BDC04610B50A00002101F0CAFB10BD10B501F0BDFB10BD10B501F08DFB03680C2B00D1FEE7FEE710B50300084A1068C318084A9A1A802ACA
:4005400002DC054A136005E001F07AFB0C2303600120404210BDC046E00000207804002070B50F4E0F4D13E029686B68AC68002202E001C901C30432A242FAD1E8680022BA
:4005800002E0002102C304328242FAD11035013E002EE9D101F05AFBFFF70AFFFEE7C046010000008821000010B500230AE0032B03D89A000949505800E009489900094ADC
:4005C000885001332F2BF2D9FFF77AFD8022D205116801230B43136010BDC04600000000210500000000002010B5040000F0B8F911230342FAD0A0B200F0BEF910BDC046F4
:4006000010B580246400204384B200F0A9F911230342FAD0200000F0AFF910BD70B505002B20FFF7E1FF0020FFF7EAFF8320FFF7E7FF2A20FFF7D8FF0020FFF7E1FF832081
:40064000FFF7DEFF2C20FFF7CFFF00260FE02811FF242040FFF7D4FF280120402B121843FFF7CEFF20002840FFF7CAFF0136024B9E42ECD970BDC0468321000010B57F246A
:4006800004402520FFF7B0FF2000FFF7B9FF10BD10B500F0BBF9142000F038FA002000F033F9C82000F01AFAFF2000F02DF9C82000F014FA1120FFF797FF0320FFF794FF06
:4006C0002920FFF791FF3A20FFF78EFF0320FFF797FF3620FFF788FF2520FFF785FF3020FFF78EFF0020FFF77FFF3C20FFF7C6FF0020FFF793FF10BDF8B5150083235E1A3A
:400700001C1A2B20FFF770FFFF273C402000FFF777FF2000FFF774FF2A20FFF765FF34003C402000FFF76CFF2000FFF769FF2C20FFF75AFF28113840FFF762FF2801384085
:40074000FFF75EFFF8BDC046F0B55F4656464D464446F0B485B08346884614001D00019301239B1A9946D3079B1A5A00924661182A00FFF7C1FF4346191B2A005846FFF7E6
:40078000BBFF5B46E0182A004146FFF7B5FF5B46181B2A004146FFF7AFFF0026002348E04A46002A04DB013C02229446E244D14401369A1C02920333994459468F19414680
:4007C0006318019A039319003800FFF795FF5846851B019A03992800FFF78EFF41460B1B019A039319003800FFF786FF019A03992800FFF781FF5946671841468D19019AED
:4008000029003800FFF778FF59460B1B019A290003931800FFF770FF41468D1B019A29003800FFF769FF019A29000398FFF764FF029BA642B4DB05B03CBC90469946A246AF
:40084000AB46F0BDF0B55F4656464D464446F0B483B004000D0001929B465B1A171A002B04DA5B4201225242924601E001229246002F04DA7F4201225242914601E0012264
:4008800091465B0098467F000C9A29002000FFF733FFB84512DA7B104246D61A0AE0002E01DB5544F61B4C4446440C9A29002000FFF722FF019B9C42F1D111E043465E10C4
:4008C000BE1B0BE0002E02DB4C444346F61A5544F6190C9A29002000FFF70EFF5D45F1D103B03CBC90469946A246AB46F0BDC046044A1368DBB201218B43084018431060BD
:400900007047C0460003044004490A68D2B202239A43400018401043086070470003044010B500F0FBFE0B4A117820230B43DBB2137009490A7810231A43D2B20A70074A3D
:4009400011780B43DBB2137000F0ECFE00F06EF810BDC04692000F4090000F4091000F40014B1878C0B2704760000F40014B1878C0B2704761000F40034B1B785B07FBD571
:40098000024B18807047C04660000F4084100F4010B501E00E4B1B880E4B1B789B06F9D400F0BCFE0C490A78012401231A43D2B20A700A78A2430A70084A11780B43DBB24B
:4009C00013701378A343137000F0ACFE10BDC046A4100F4061000F4092000F4093000F4010B51122064B1A70FFF7D2FFFFF7B8FFFFF7BCFF0023034A1370034A137010BD15
:400A000082000F4080000F4081000F4010B5064B1B78002B04D1FFF7E3FF0122024B1A70FFF77EFF10BDC046DE030020034A1368802109060B4313607047C046000002404C
:400A40001F2318401E3B8340014A13607047C04600E100E01F2318401E3B8340014A13607047C04680E100E001BE704770B504000D001F2802D90020FFF7F6FF1034A40051
:400A800080239B059C4664442068256070BDC04670B504000E00032902D90020FFF7E4FF1F2C02D90020FFF7DFFF03252540ED00063500F033FEA408A400074B9C466444D6
:400AC00021680323AB4099430B003100A9401943216000F027FE70BD00E400E010B5040006E0084B586800F00FFE074B9C46644480231B029C42F4D8024B9868604300F093
:400B000003FE10BDE40000200080FFFF10B5034B1B7B584300F0F8FD10BDC046E4000020F0B557464E46C0B483B0040000F0F6FD0190E71E2D2F74D83F4B1B78DBB29C423B
:400B400008D83E4B1B78DBB29A463D4B1B78DBB2994631E03B4B1B78DBB29C4208D83A4B1B78DBB29A46394B1B78DBB2994623E0374B1B78DBB29C4208D8364B1B78DBB204
:400B80009A46354B1B78DBB2994615E0334B1B78DBB29C4208D8324B1B78DBB29A46314B1B78DBB2994607E02F4B1B78DBB29A462E4B1B78DBB299462D4BDE5D2F2E09D9C2
:400BC0002A2C07D919222B4B1A60052000F09CFD192503E0274B1D683F231D40B54206D9234BDA5D234B1A60052000F08DFD1F4B9C4664442378DBB21F4A13601F4B524613
:400C00001A601F4B4A461A600520FFF77FFFB5420AD2174BDA5D174B1A60052000F074FD02E00020FFF720FF019800F07BFD03B00CBC91469A46F0BDC0F1FF0FC1F1FF0FE9
:400C4000C2F1FF0FC3F1FF0FC4F1FF0FC5F1FF0FC6F1FF0FC7F1FF0FC8F1FF0FC9F1FF0FCAF1FF0FCBF1FF0FCCF1FF0FCDF1FF0F342100002CFF0B4028FF0B401CFF0B4083
:400C800020FF0B40034B1868C0231B02184000D00120704700010B4010B500F03FFD044A1368C02109020B43136000F03BFD10BD00010B4010B500F031FD08490A68084B0F
:400CC0001A408024E40122430A600A6813408022120213430B6000F025FD10BD00010B40FF3FFFFF70B5050000F018FD0400FFF7C9FF002803D0FFF7DDFF012100E00021BE
:400D000008482840084A1568084B2B40184310601368012901D1FFF7BFFF200000F002FD70BDC0460404040010020B40FBFBFBFF10B5244B1B685B0715D5234B1B685B0787
:400D40000ED5224BD969042001401F4C22688A432260DA698243DA611B69002B00D098470420FFF7BFFF174B1B685B0518D5164B1B685B0510D5154BD9698022D2001140FD
:400D8000114802688A430260D969114A0A40DA615B69002B00D098478020C000FFF7A2FF084B1B685B030CD5074B1B685B0304D5064B9B69002B00D098478020C002FFF7E2
:400DC00091FF10BD10020B40F8000020E0030020FFFBFFFF04490A68D2B240239A43800118401043086070470001044004490A68D2B204239A438000184010430860704782
:400E00000000044004490A68D2B208239A43C00018401043086070470000044010B50A20FFF70EFE10BDC04610B500F01DF810BD10B5044A1368802109060B431360FFF705
:400E4000EDFF10BD0000064010B5064B1B78002B04D1FFF7E9FF0122024B1A70FFF7E8FF10BDC0460004002010B51B4A11680C230B4313600024194B1C60194A194B1A6046
:400E8000194B1A4A13601A4A14601A4A14601A4A13601A4B1C600A20FFF7DCFD00210A20FFF7F6FD16490A20FFF7E0FD154B1C60154B1C60154B1C60154B1C60154B1C60BA
:400EC000154B1C601022154B1A70154B1C80154B1C60154B1C6010BD70000640000006407708008060000640070100800003064004030640100306400002064004020640CD
:400F00002D170000C80E0640880E0640480F0640080F0640C80F0640880F06404E0400205C0400206C0400205404002010B5144A13685B005B081360002312490B60124974
:400F40000B601248046812492140016011490B6011490B601149124B19601249124B19601249134B19601349134B19601021134B19701368802109060B43136010BDC046FC
:400F800000000640680006406C00064060000640FF5CFFFF880F0640C80F0640F3070000800F0640ED0F0000C00F0640FF0F0000400F064017030000000F06404E0400202E
:400FC00010B50A20FFF746FD074B1C88A2B21400064B1B789B0602D504231A4394B20A20FFF72EFD200010BD5C0400204E04002010B50A20FFF72EFD044B1C88A4B20022A0
:401000001A800A20FFF71CFD200010BD5C04002070B52B4B1B6820251D402A4C03E00120FFF774FD013C00F053FB002801D1002CF5D1002C43D0002000F052FB224A1368E5
:401040000F218B431360214A13685B005B081360002D18D0002000F043FB0A20FFF756FD012000F03DFB0A20FFF750FD154C03E00120FFF74BFD013C00F03EFB002803D157
:40108000002CF5D100E00F4C002C08D0002000F027FB0A20FFF73AFD01220D4B1A600B4A1368802109060B43136007490B680F229343013A13430B60012000F011FB70BD30
:4010C00064000640204E0000100001400000064068000640F0B583B001900C0017001D00002917D02A4B1B78102B08D10A20FFF7B1FC284B1B68DB070ED508260FE0244BAA
:401100001B78602B0AD1244A138808218B431380002604E0042602E0002600E00426002E2FD128221A4B1A7000231C4A13601C4A13601C4B1F601C4B1C60EAB21B4B1A704C
:40114000019B5C00FF231C40134A138802218B4313804023164A13601649174A11601421FF31164A1160164A1360EB0704D5FFF74FFF144B1C6004E0124B1C600222124BE5
:401180001A600A20FFF75CFC300003B0F0BDC0464E040020640006405C0400205004002054040020580400207004002064040020800F064017030000000F0640080F0640E6
:4011C000880F06404002064068000640F0B583B001900C0017001D00002917D02F4B1B78102B08D10A20FFF735FC2D4B1B68DB070ED508260FE0294B1B78602B0AD1294AF4
:40120000138808218B431380002604E0042602E0002600E00426002E39D129221F4B1A700022214B1A60214A1760214B1C60EBB220490B70019B5C00FF231C40012004439B
:4012400018490B8883430B801B491C4B19601421FF311B4B19601368072B03D80422194B1A6008E0184A1368802149000B4313600822144B1A60EB0704D5FFF7C9FE134BBC
:401280001C6004E0114B1C600222114B1A600A20FFF7D6FB300003B0F0BDC0464E040020640006405C0400206C04002068040020600400206404002017030000000F064042
:4012C000080F0640C80F06406000064040020640680006400004000C014B18607047C046080105400004000C014B18607047C0461401054070B504000D0000F00FFAAC40B3
:40130000024B1C6000F00EFA70BDC0460800054010B500F003FA064A116801230B43136000F000FA18210120FFF7E4FF10BDC04600000540014B18607047C04638010540D8
:4013400010B580229204084B1A600C22074B1A600120FFF7EFFFFA204000FFF7C3FF0020FFF7B8FF10BDC046000105402401054010B5064B1B78002B04D1FFF7E1FF0122A0
:40138000024B1A70FFF7C4FF10BDC04608040020014B18607047C04630010540034A1368802109060B4313607047C0468000024010B582B01648302303700121FEF7D8FFE6
:4013C000144C01212000FEF7E3FF2478640903231C40022C0BD1104B0021595E0F4B0020185E0F4B0093F0230022FEF785FF032C0BD1094B0021595E084B0020185E084BAE
:4014000000930F230A22FEF777FF02B010BDC0461404002020040020C4000020C60000207C010020014B18647047C0460000002010B5040000F072F9044A1368C0218B43A7
:40144000A4011C43146000F06DF910BD00E400E00122014B1A60704700E100E00122014B1A60704780E100E010B5FFF7F7FF0448FFF7D8FF0120FFF7DBFFFFF7E9FF10BD65
:40148000B113000070B56D48322303700121FEF76FFF6B4E06213000FEF77AFF7478240233781C43644224B2F5782D02B3781D432DB272B662B6022C04DD624B00229B5E0E
:4014C0009C4204D1604B00229B5E9D4250D05F4B0021595E5E4E0023F05E0022FEF7ECFE5C48FEF7CDFE0022B35E092B03DC0A22574B1A8005E0E20F121952109B1A544A0C
:401500001380002D14DD504B00229B5E9D420FD04E4B00229B5E782B03DD78224B4B1A801CE0EA0F52195210D318484A138015E0002D13DA444B00229B5E9D420ED0434BAF
:4015400000229B5E092B03DC0A22404B1A8005E0EA0F52195210D3183C4A13803B4B0021595E3B4B0020185EFF221201FEF7A4FE012C04DC334B00229B5E9C4204D1324B22
:4015800000229B5E9D4250D0304B0021595E304E0023F05E0022FEF78FFE2E48FEF770FE0022B35E782B03DD7822294B1A8005E0E20F121952109B1A254A1380002D14DDBC
:4015C000214B00229B5E9D420FD0204B00229B5E782B03DD78221D4B1A801CE0EA0F52195210D318194A138015E0002D13DA164B00229B5E9D420ED0144B00229B5E092B68
:4016000003DC0A22114B1A8005E0EA0F52195210D3180E4A13800D4B0021595E0C4B0020185EFF221201FEF747FE074B1D80054B1C8062B60120FFF7ABFE70BD1404002085
:4016400020040020DC000020DA000020C4000020C60000207C0100208023014AD05070470000002010B5040000F058F8044A1368C0218B43A4011C43146000F053F810BDE3
:4016800010E400E080225202014B1A607047C04600E100E080225202014B1A607047C04680E100E010B5FFF7F5FF0448FFF7D4FF0120FFF7D7FFFFF7E5FF10BD8514000071
:4016C00080225202014B1A607047C04680E200E0024B1868400801231840704704040440044A1368DBB201218B430840184310607047C04600040440024B1B6801201840F4
:401700007047C046040404400230800804D0C0460138FDD1C046C046C0467047EFF3108072B6704780F310887047C04610B5AD4B1B68002B00D09847AB4B1B68DB0702D5D7
:401740000022AA4B1A60AA4B1B789B0628D5A94B1B68DB0507D5A84A1188C0239B000B431380012300E00023A24A1268D20706D5A14A118890239B000B4313800123002B52
:401780000FD09B4A1278D20701D5012200E002229949088802430A800021954A117000E00023934A1278920600D414E1914A1268D20611D51022914B1A608D4B1B78DB0790
:4017C00001D5012300E002238B4A11880B4313801022874B1A7004E1854A1278120720D5844A126892070AD50222844B1A60824A118888239B000B431380012311E07C4A2D
:401800001278D20703D52521794A117009E02421774A11707A4A1268002A02D01439794A1160734A1278520700D4ABE0704A1278D20749D5744A1268120727D5734A1268FA
:40184000734909680F240C40724909686418141B082C09D8002C16D16F4A11686F4B0B401360012308340EE008240CE0694A11686B48006841186B480068C0B2087011688F
:4018800001311160013C002CF0D119E05E4A1268520715D55F4A116861480068411861480068C0B208701168013111601168574A1268914203D204215B4A116000E00123DF
:4018C0005A495B4A11605DE04A4A1268920726D502224A4B1A6057490B680D321A40096880231B020B4000D001239B18524A1168CB1A13601268514B1A603F4A1188842388
:401900009B000B4313804E4B1A68802149020A431A6019684B4A0A401A60012332E04A4A1268D20612D424E0434A1168344A1268914211D2404A11684448006841180978F8
:40194000C9B243480160116801311160394A12680F210A40082AE7D1374A1168284A1268914202D14021274A11603A493A4A116008E0354A1268520604D52F4B1A682F4BB4
:401980001A600123002B2CD0234A1168234B0B4013600023314A13601A4A1360304B1B789B070ED5124B1B78DB0701D5092300E00A23114A11880B43138060220C4B1A70BC
:4019C0000FE0284B1B689B0601D5182200E01022154B1A6005E0064B1B78DB0601D4FFF7A5FA10BD040400208C0E0640880E06404E0400200C0F06405C040020000F0640F8
:401A000058040020880F0640CC0F064068040020080306406C04002060000640FFFEFFFF600400204003064068000640ED0F0000C00F064008020640500400205404002016
:401A400004020640FFFFFEFF8C0F06407004002040020640F3070000800F0640C80F0640640400206400064003460B437FD4002243088B4274D303098B425FD3030A8B42B4
:401A800044D3030B8B4228D3030C8B420DD3FF22090212BA030C8B4202D31212090265D0030B8B4219D300E0090AC30B8B4201D3CB03C01A5241830B8B4201D38B03C01A75
:401AC0005241430B8B4201D34B03C01A5241030B8B4201D30B03C01A5241C30A8B4201D3CB02C01A5241830A8B4201D38B02C01A5241430A8B4201D34B02C01A5241030AFA
:401B00008B4201D30B02C01A5241CDD2C3098B4201D3CB01C01A524183098B4201D38B01C01A524143098B4201D34B01C01A524103098B4201D30B01C01A5241C3088B42BB
:401B400001D3CB00C01A524183088B4201D38B00C01A524143088B4201D34B00C01A5241411A00D201465241104670475DE0CA0F00D04942031000D34042534000229C460D
:401B800003098B422DD3030A8B4212D3FC22890112BA030A8B420CD3890192118B4208D3890192118B4204D389013AD0921100E08909C3098B4201D3CB01C01A52418309DF
:401BC0008B4201D38B01C01A524143098B4201D34B01C01A524103098B4201D30B01C01A5241C3088B4201D3CB00C01A524183088B4201D38B00C01A5241D9D243088B42F4
:401C000001D34B00C01A5241411A00D20146634652415B10104601D34042002B00D54942704763465B1000D3404201B5002000F005F802BD0029F8D016E770477047C046C2
:401C4000014B18687047C0465C0100200E4B70B500251E000D4CE41AA410A54204D0AB00F35898470135F8E700F07CFA084B00251E00084CE41AA410A54204D0AB00F3583A
:401C800098470135F8E770BD70210000702100007021000078210000002310B59A4203D0CC5CC4540133F9E710BD03008218934202D019700133FAE770470000154B10B541
:401CC0001C68A36B002B15D1182000F033F8124BA0630380114B01224380114B8380114BC380114B03810523438106338381002302614361A46B0D4A206961690C4B00F098
:401D000097F80122002380185941206161614800400810BD5C0100200E330000CDABFFFF341200006DE6FFFFECDEFFFF2D7F954C2DF4515810B5034B0100186800F004F892
:401D400010BDC0465C010020032370B5CD1C9D43083506000C2D01D20C2501E0002D01DBA94202D90C23336048E0300000F05EF8234B1C681A002100002913D00B685B1B4D
:401D80000DD40B2B02D90B60CC181EE08C4202D1636813601AE04B6863600C0016E00C004968E9E7174C2368002B03D1300000F02BF820602900300000F026F8431C18D0A8
:401DC0000323C41C9C43A0420DD12560300000F02EF8200007220B30231D9043C31A0ED05A42E2500BE0211A300000F00DF8431CEBD10C233000336000F019F8002070BDAD
:401E0000100400200C040020002370B5064C050008002360FEF78CFB431C03D12368002B00D02B6070BDC0467404002070477047F0B54F464646C0B41604360C9946330073
:401E400005042C0C070C150C63437E436F4365431C0CAD1964199C46A64203D980235B02984647446346250CEF191D044B464A4343432D0C240464199918C91920000CBCB2
:401E800090469946F0BDC0460000000000300F40000280320F40800100400F400004000000320F40B42000008000000082110002020D0493062C0C4018C91A0628E52A1A44
:401EC000300F347036803A223E40540958045B045F01806A81508204840285408710880F89058A908B4A8C048D0E906A914092049310941095409668981299139AC59B24A6
:401F00009C6EA150A491A564A622A719A86CA910AA02AB40AC6EAD10B278B407B571B680B70FB802B980BA08BB20BE41D440D804D904DB04DF010008010202010402051456
:401F400006010A040E260F801120151016021704180119021A041B101C481D701E20255027042D102E062F02351437013DAA580459405A015B106001640166206720854057
:401F8000C0FDC2F2C4E2CAF0CCE0CEF0D60FD878C032C106C210C5B0C802C901CAFFCBFFCC23CE80CF08D004DA04DF01E2C0E440E501E610E711E8C0E901EB11EC40ED01A2
:401FC000EE40EF010412060207100E420F181510168017041C101D841E411F1027402D012E042F08350437513C883D103E0241804204430C45A04704484049104B104F2C99
:4020000054805621570265026C016D1B6E026F1176028104834088018B048E408F409204940295109601972099129A809B049C019D049E239F01A004A120A310A480A50533
:40204000A601A742AE84B084B440B712C0F0C2F0C470CAE0CCF0CEF0D07ED224D88061026F208502D840DA80E2400320A720C01050015F0266018E018F029002B401D4013B
:40208000D601D801E008E402E80201011001000001000F4044300F402D310F401A320F404D330F4006400F4003410F400D430F4002600F401004030013070038040018047A
:4020C000136000000004400020040C0000040100130100001C04600004567809030A101000000000607F1C0001000200000208000000500036021000000DFEC02DFFFFFFC3
:4021000002007008040000000000022C04040404000000010000C00040011011C00100114001400100000000000000000000000000000000030405060708090A0B0C0E0F04
:40214000101112131415161718191B1C1D1E1F2021222325262728292A2B2E2F3031323334354300F8B5C046F8BC08BC9E46704749020000A9050000F8B5C046F8BC08BCAA
:402180009E4670472102000098210000C0000020A000000018030000000000003E003E002D312E2F1D2A2122233736353433323001013E003E0000007804002001000000A3
:4021C0000000E02EC05D00001800000000366E0104040400000000000000000000000000000000000000000000000000000000000000000062210000000000000000000068
:4022000000000000000000000000000000000000000000000000000000000000000000000000000000000000000000000000000000000000FC000020000000000000000082
:40224000000000000000000000000000000000000000000000000000000000000000000000000000000000000000000000000000000000000000000000000000000000005E
:40228000000000000000000000000000000000000000000000000000000000000000000000000000000000000000000000000000000000000000000000000000000000001E
:4022C00000000000000000000000000000000000000000000000000000000000000000000000000000000000000000000000000000000000000000000000000000000000DE
:40230000000000000000000000000000000000000000000000000000000000000000000000000000000000000000000000000000000000000000000000000000000000009D
:0200000490303A
:020000001804E2
:0200000490402A
:200000000000000000000000000000000000000000000000000000000000000000000000E0
:0200000490501A
:0C000000000204C81193110104D32997D9
:0200000490600A
:0100000001FE
:00000001FF