:400000000010002011000000850200008502000010B500F057F9C04670B5134C23688022D20213432360182000F08EFB22680F4B134023600E4A0F4B1A6010220E4B1A606C
:40004000802212060D4B1A60002525600C4A0D4B1A600D49092000F043FB092000F034FB0A4B1D6070BDC04600010B40FFFFFBFF0600008004010B403002024008010B4046
:400080000100008000000240590900000C020B4010B572B601222E4B1A7000240FE02D486200131959000B00411889881A5AC31858880004104300F0DFF80134E4B2012C86
:4000C000EDD924490C312448443000F0BBF8C0229204224B1A60224A224B1A6099231B04214A1360C0218905204A1160204A1360204A1360204A214B1A603D22204B1A600A
:40010000133A204B1A6020490B781232934314221343DBB20B701D4A117816230B43DBB21370C1221A4B1A601A4A1B4B1A6040221A4B1A6080221203194B1A60F122194B19
:400140001A60194A194B1A60FFF766FF10BDC0461C700F40A4170000241A00000000014003EE03030C00014000500F4008500F4020500F4030500F400000033138500F405E
:400180002000004000800F4001700F4000700F40000004400200580008000440000204400802044000030440B66D59000803044010B5064C2378002B07D1054B002B02D0FF
:4001C000044800E000BF0123237010BD4801002000000000A0170000084B10B5002B03D00749084800E000BF07480368002B00D110BD064B002BFBD09847F9E70000000092
:400200004C010020A0170000C00000200000000010B562B600F0EEF800F020FC00F010FC00F07EFC00F06EFC00F0DCFC00F0CCFC00F024FD00F014FD00F06EFD00F05EFD03
:40024000FEE7C046F0B50025002711E0BB00C658F3B2FF22964308E06A008A181478A419527822700135013BDBB2002BF4D10137092FEBD9F0BDC04610B50A00002100F0EA
:4002800059FE10BD10B500F029FE03680C2B00D1FEE7FEE710B50300084A1068C318084A9A1A802A02DC054A136005E000F016FE0C2303600120404210BDC046C40000206F
:4002C000B001002070B50F4E0F4D13E029686B68AC68002202E001C901C30432A242FAD1E868002202E0002102C304328242FAD11035013E002EE9D100F0F6FDFFF788FFA2
:40030000FEE7C046010000003021000010B500230AE0032B03D89A000949505800E009489900094A885001332F2BF2D9FFF7B0FE8022D205116801230B43136010BDC04675
:4003400000000000850200000000002010B5040000F04AF911230342FAD0A0B200F050F910BDC04610B580246400204384B200F03BF911230342FAD0200000F041F910BD55
:4003800070B505002B20FFF7E1FF0020FFF7EAFF8320FFF7E7FF2A20FFF7D8FF0020FFF7E1FF8320FFF7DEFF2C20FFF7CFFF00260FE02811FF242040FFF7D4FF28012040BE
:4003C0002B121843FFF7CEFF20002840FFF7CAFF0136024B9E42ECD970BDC0468321000010B57F2404402520FFF7B0FF2000FFF7B9FF10BD10B500F04DF9142000F09AF978
:40040000002000F0C5F8C82000F07CF9FF2000F0BFF8C82000F076F91120FFF797FF0320FFF794FF2920FFF791FF3A20FFF78EFF0320FFF797FF3620FFF788FF2520FFF7C3
:4004400085FF3020FFF78EFF0020FFF77FFF3C20FFF7C6FF0020FFF793FF10BDF0B55F4656464D464446F0B483B000938325AD1A8226761A364C23789A4663789B46A77819
:400480001F387843C019431E99462B20FFF75EFFFF23984618003040FFF764FF5E44013EF0B2FFF75FFF2A20FFF750FF40462840FFF758FF5544013DE8B2FFF753FF2C20EC
:4004C000FFF744FF013F4F443C1901235B429C46E34432E0631E01932378994601240023984623E04B46234201D10C9D00E0009D6400E4B24B461C4201D10C9E00E0009E36
:400500006400E4B22811FF273840FFF72BFF2D013D4033120F2018402843FFF723FF38003040FFF71FFF02239C46E044D045D9DB01235B429C46E344019C5B46002BC9DA4A
:4005400003B03CBC90469946A246AB46F0BDC046901A0000F0B585B0070002930A9E10310D000832039214000DE001370096029B22002900FFF772FF0834832C01DD10357E
:40058000039C832D02DC38780028EED105B0F0BD04490A68D2B202239A43400018401043086070470003044010B500F0DBFB0B4A117820230B43DBB2137009490A7810236E
:4005C0001A43D2B20A70074A11780B43DBB2137000F0CCFB00F06EF810BDC04692000F4093000F4090000F40014B1878C0B2704763000F40014B1878C0B2704760000F407B
:40060000034B1B785B07FBD5024B18807047C04663000F4080100F4010B501E00E4B1B880E4B1B789B06F9D400F09CFB0C490A78012401231A43D2B20A700A78A2430A7095
:40064000084A11780B43DBB213701378A343137000F08CFB10BDC046A0100F4060000F4090000F4091000F4010B51122064B1A70FFF7D2FFFFF7B8FFFFF7BCFF0023034A2E
:400680001370034A137010BD82000F4083000F4080000F4010B5064B1B78002B04D1FFF7E3FF0122024B1A70FFF77EFF10BDC0466C010020034A1368802109060B43136021
:4006C0007047C046000002401F2318401E3B8340014A13607047C04600E100E001BE704770B504000D001F2802D90020FFF7F6FF1034A40080239B059C466444206825606E
:4007000070BDC04610B5040006E0084B586800F01FFB074B9C46644480231B029C42F4D8024B9868604300F013FB10BDC80000200080FFFF10B5034B1B7B584300F008FB1C
:4007400010BDC046C8000020F0B557464E46C0B483B0040000F006FB0190E71E2D2F74D83F4B1B78DBB29C4208D83E4B1B78DBB29A463D4B1B78DBB2994631E03B4B1B786C
:40078000DBB29C4208D83A4B1B78DBB29A46394B1B78DBB2994623E0374B1B78DBB29C4208D8364B1B78DBB29A46354B1B78DBB2994615E0334B1B78DBB29C4208D8324BB5
:4007C0001B78DBB29A46314B1B78DBB2994607E02F4B1B78DBB29A462E4B1B78DBB299462D4BDE5D2F2E09D92A2C07D919222B4B1A60052000F0ACFA192503E0274B1D687F
:400800003F231D40B54206D9234BDA5D234B1A60052000F09DFA1F4B9C4664442378DBB21F4A13601F4B52461A601F4B4A461A600520FFF77FFFB5420AD2174BDA5D174B9B
:400840001A60052000F084FA02E00020FFF746FF019800F08BFA03B00CBC91469A46F0BDC0F1FF0FC1F1FF0FC2F1FF0FC3F1FF0FC4F1FF0FC5F1FF0FC6F1FF0FC7F1FF0F2D
:40088000C8F1FF0FC9F1FF0FCAF1FF0FCBF1FF0FCCF1FF0FCDF1FF0FA02000002CFF0B4028FF0B401CFF0B4020FF0B40034B1868C0231B02184000D00120704700010B40ED
:4008C00010B500F04FFA044A1368C02109020B43136000F04BFA10BD00010B4010B500F041FA08490A68084B1A408024E40122430A600A6813408022120213430B6000F052
:4009000035FA10BD00010B40FF3FFFFF70B5050000F028FA0400FFF7C9FF002803D0FFF7DDFF012100E0002108482840084A1568084B2B40184310601368012901D1FFF7C8
:40094000BFFF200000F012FA70BDC0460404040010020B40FBFBFBFF10B5244B1B685B0715D5234B1B685B070ED5224BD969042001401F4C22688A432260DA698243DA613D
:400980001B69002B00D098470420FFF7BFFF174B1B685B0518D5164B1B685B0510D5154BD9698022D2001140114802688A430260D969114A0A40DA615B69002B00D098478D
:4009C0008020C000FFF7A2FF084B1B685B030CD5074B1B685B0304D5064B9B69002B00D098478020C002FFF791FF10BD10020B40DC00002070010020FFFBFFFF014B186451
:400A00007047C0460000002010B5040000F0AAF9044A1368C0218B43A4011C43146000F0A5F910BD00E400E00122014B1A60704700E100E00122014B1A60704780E100E02C
:400A400010B5FFF7F7FF0448FFF7D8FF0320FFF7DBFFFFF7E9FF10BD690A00000122014B1A60704780E200E010B582B000F082F90128FBD00D4B1A6801321A600C4C0D492E
:400A8000200000F05FFA002300930B4B0A220A212000FFF75FFD00F06DF90028FBD01920FFF730FEFFF7DAFF02B010BD6801002098010020D0200000FF0F0000014B98647C
:400AC0007047C0460000002010B5040000F04AF9044A1168044B0B40A4051C43146000F045F910BD00E400E0FFFF3FFF0422014B1A60704700E100E00422014B1A6070473E
:400B000080E100E010B5FFF7F7FF0448FFF7D6FF0320FFF7D9FFFFF7E9FF10BD2D0B00000422014B1A60704780E200E010B582B000F028F90128FBD013E00E4B1A680132F6
:400B40001A600D4C0D49200000F0FCF9002300930B4B0A220A212000FFF7FCFC0A20FFF7D1FD00F00FF90028E7D0FFF7D9FF02B010BDC0466801002098010020D02000008C
:400B8000FF0F0000014BD8647047C0460000002010B5040000F0E6F8044A13689B009B08A4071C43146000F0E1F810BD00E400E00822014B1A60704700E100E00822014B6E
:400BC0001A60704780E100E010B5FFF7F7FF0448FFF7D8FF0320FFF7DBFFFFF7E9FF10BDF10B00000822014B1A60704780E200E010B500F0CFF80128FBD0074A1368013BBE
:400C0000136000F0C7F80028FBD01920FFF77AFDFFF7E8FF10BDC04668010020014B18657047C0460000002010B5040000F09AF8044A1368C0218B43A4011C43146000F0EF
:400C400095F810BD04E400E01022014B1A60704700E100E01022014B1A60704780E100E010B5FFF7F7FF0448FFF7D8FF0320FFF7DBFFFFF7E9FF10BD890C00001022014B77
:400C80001A60704780E200E010B500F08BF80128FBD006E0064A1368013B13600A20FFF731FD00F07FF80028F4D0FFF7E7FF10BD68010020014B58657047C046000000207C
:400CC00010B5040000F04EF8044A1168044B0B40A4031C43146000F049F810BD04E400E0FF3FFFFF2022014B1A60704700E100E02022014B1A60704780E100E010B5FFF7DD
:400D0000F7FF0448FFF7D6FF0320FFF7D9FFFFF7E9FF10BD250D00002022014B1A60704780E200E010B500F045F80128FBD00022054B1A6000F03EF80028FBD01920FFF7BD
:400D4000E1FCFFF7E9FF10BD68010020000000000230800804D0C0460138FDD1C046C046C0467047EFF3108072B6704780F310887047C046024B1868C0090123184070471C
:400D800004000440024B1868C00901231840704704030440024B1B68012018407047C04604000440024B1868400901231840704704030440024B186880090123184070476C
:400DC00004020440002243088B4274D303098B425FD3030A8B4244D3030B8B4228D3030C8B420DD3FF22090212BA030C8B4202D31212090265D0030B8B4219D300E0090AD3
:400E0000C30B8B4201D3CB03C01A5241830B8B4201D38B03C01A5241430B8B4201D34B03C01A5241030B8B4201D30B03C01A5241C30A8B4201D3CB02C01A5241830A8B4208
:400E400001D38B02C01A5241430A8B4201D34B02C01A5241030A8B4201D30B02C01A5241CDD2C3098B4201D3CB01C01A524183098B4201D38B01C01A524143098B4201D37C
:400E80004B01C01A524103098B4201D30B01C01A5241C3088B4201D3CB00C01A524183088B4201D38B00C01A524143088B4201D34B00C01A5241411A00D20146524110468A
:400EC0007047FFE701B5002000F006F802BDC0460029F7D076E770477047C046014B18687047C046400100200E4B70B500251E000D4CE41AA410A54204D0AB00F3589847C5
:400F00000135F8E701F002F9084B00251E00084CE41AA410A54204D0AB00F35898470135F8E770BD1821000018210000182100002021000003008218934202D01970013355
:400F4000FAE770470EB410B59DB002A9029008610B48822488604861012040421FABC881084804CBA400006801938C8100F06EF80023029A13701DB010BC08BC03B018474C
:400F8000FFFFFF7F40010020F0B58E6885B007000C00039201939E4243D890238A89DB001A423ED003250969236801985B1A029363695D43EB0F5D19029B6D1001331B181D
:400FC000AB4200D91D00530510D52900380000F041FB061E14D0029A216900F0D0FAA289194B134080221343A38112E02A00380000F090FB061E0CD12169380000F0DEFA04
:401000000C23402201203B60A38940421343A38117E0029B2661F61826606561019EED1AA560019BB34200D21E0032000399206800F0AEFA0020A3689B1BA36023689E1986
:40104000266005B0F0BDC0467FFBFFFFF0B59FB0029005938B890F0016001B0610D50B69002B0DD1402100F0F5FA38603861002804D10C23029A01381360D8E040237B6154
:40108000002306AD6B6120336B761033AB7634002378002B03D1A31B049312D003E0252BF9D00134F4E7A31B320039000298FFF76BFF431C00D1B4E06A69049B944663440B
:4010C0006B612378002B00D1ABE00122002352426A6002A95432521801342B60EB60AB601370AB65534E21780522300000F03CFA002807D00123801B83402A6801341343C5
:401100002B60EFE72B68DA0604D55322202102A8121811701A0704D553222B2102A81218117022782A2A03D0099B00200A210EE0059A111D12680591002A01DB099204E0E7
:401140005242EA60022213432B6001340BE02278303A092A04D84B4301349B180120F6E7002800D0099323782E2B1ED163782A2B0AD1059B02341A1D1B680592002B01DA36
:4011800001235B42079310E000230A201A0001346B6021783039092904D84243013452180123F6E7002B00D00792234E21780322300000F0D9F9002806D04023801B8340D4
:4011C0002A68013413432B60217806221B48661C297600F0C9F9002812D0194B002B06D10722059B073393430833059314E005AB00933A00134B2900029800E000BF07E01C
:4012000005AB00933A000F4B2900029800F08AF80390039B013304D06B69039A9B186B6135E7BB890B985B0601D5012040421FB0F0BDC046D6200000DC200000E020000028
:4012400000000000890F0000F7B5170001938A680B6900900C00934200DA130022003B6043321278002A01D001333B6023689B0602D53B6802333B60062523681D401ED0BE
:40128000230043331B785A1E9341226892061CD53020E1184331087021005A1C45310978A2184332023311700FE022000123193201990098089EB047431C0ED00135E368EE
:4012C0003A689B1A9D42F0DBDAE72200019943320098089DA847431C02D10120404220E006232068E1683A6803400025042B03D18D1AEB43DB171D40A3682269934201DD86
:401300009B1AED180027BD420AD0220001231A3201990098089EB047431CDED00137F2E70020FEBDF0B58BB006920A0043320793059004920A7E0C00109B6E2A00D1ABE0AA
:4013400011D8632A22D009D8002A00D1B5E0582A00D0C5E045310A70814A4FE0642A1DD0692A1BD0BCE0732A00D1AAE009D86F2A29D0702A00D0B3E0202209680A43226034
:4013800037E0752A1FD0782A33D0A9E00E001A684236111D196013683370A4E021681A68080606D4490604D5111D19600023D55E02E0111D19601568002D3BDA2D23049ABB
:4013C0006D42137036E021681A68080606D4490604D51568111D1960ADB202E0111D196015685F4B227E039308276F2A1DD00A271BE022007821453211705A4A19680392D3
:40140000081D226818600D68100602D4500600D5ADB2D30702D520231A4322601027002D03D1202322689A4322602300002243331A7002E00A274A4B03936368A360002BE7
:4014400009DB0422216891432160002D05D1049E002B11D07BE0002D79D0049E28003900FFF736FD039B013E5B5C280033703900FFF7A8FC051EF1D1082F09D12368DB0741
:4014800006D563682269934202DC3023013E3370049B9B1B23612BE009681A68080607D4490605D5111D19601368A28A1A8004E0111D1960136862691A600023049E2361AE
:4014C00016E01A68111D1960166800216268300000F04AF8002801D0801B6060636803E0260042363270012323610023049A1370079B09AA00932100069B0598FFF7A4FEF5
:40150000431C02D10120404227E02369320006990598079DA847431CF4D0236800259B070FD4099BE068984217DA180015E022000123193206990598079EB047431CE1D0AD
:401540000135E368099A9B1A9D42F0DBE9E72600039B42361B7833708EE70BB0F0BDC046E7200000F8200000C9B28218904204D003788B4202D00130F8E7002070470023C5
:4015800010B59A4203D0CC5CC4540133F9E710BD10B5884202D98B18984201D3002305E09B1A013A08D3995C8154FAE7934203D0CC5CC4540133F9E710BD000070B505006A
:4015C000002944D00C1F2368002B00DAE418280000F0D8F81E4A13681100002B02D16360146031E0A3420DD92268A018834203D118685B688218226063600C6024E0A242B9
:4016000003D813005A68002AF9D11E689819A0420BD12168711858181960824214D110685268411819605A600EE0A04202D90C232B6009E021686018824203D11068526896
:401640004118216062605C60280000F09CF870BD94010020032370B5CD1C9D43083506000C2D01D20C2501E0002D01DBA94202D90C23336048E0300000F084F8234B1C68C8
:401680001A002100002913D00B685B1B0DD40B2B02D90B60CC181EE08C4202D1636813601AE04B6863600C0016E00C004968E9E7174C2368002B03D1300000F051F8206007
:4016C0002900300000F04CF8431C18D00323C41C9C43A0420DD12560300000F054F8200007220B30231D9043C31A0ED05A42E2500BE0211A300000F033F8431CEBD10C23A5
:401700003000336000F03FF8002070BD9401002090010020F8B506000C001500002904D11100FFF797FF040018E0002A03D1FFF745FF2C0012E000F027F885420ED9290065
:401740003000FFF787FF071E07D021002A00FFF716FF21003000FFF731FF3C002000F8BD002370B5064C050008002360FEF792FD431C03D12368002B00D02B6070BDC046BE
:40178000AC010020704770470B1F1A68101F002A04DA891804390B68D0180438704700000000000000300F40000400400F40000482110113036404010598070208010902FC
:4017C0000B980C010D980F0210011402152117D819381BC01D9A1E01219A250229FC2B032E0130023201330F35E037133B283E0540634105421045DE46F047DC483B49FFA3
:401800004AFF4BFF4C024E704F0850045440580459045A045B045F0162C0644065016610671168C069016B116C406D016E406F019424950196C898709C199EA2A4AEA651A2
:40184000A804B101B207B478B680B820B920BA08BE40BF11C063C104C210C60BC804C901CAFFCBFFCC23CE80CF08D004D804D904DA04DF01E2C0E440E501E610E711E8C059
:40188000E901EB11EC40ED01EE40EF0101140301080809410E280F01100215081604171018901D481E281F08200A210422182303240427802A052B083218334037083954FE
:4018C0003B01418845884702480149044A884E0850025214564060106290820487808C40C007C2EDC461CA07CC4ECE0FD0DAD22CD80EE6100034020204010A800C361008FE
:4019000011031234130C1408150516E0170A183619091B061C361D021F0D20442208240826D02836303C310F32C03401350F36023A023B223E5056025724580459045B0444
:401940005F018060840488018C049004945696099A049C049D01A007A238A404A80AAA10AC80B101B280B47FB602B820BE44BF01D409D804D904DB04DF01000801200241A2
:401980000412072109590D080E4A1104120A130215181702182119301C101D801E411F10210227843280361837824620470459445A015B10600166206C016DF66E0A6F403C
:4019C0007601770180108320850287108A828C108D109108955499449A409B129E019F41A004A108A218A5C1AF08B008B404C0FFC2FFC47FCCF8D60FD82802400C20660227
:401A000068806F08738077017E02820287018E02C010C280D880DA80DCE0DE20E240E62080A087889F80A020A480A708AE40E080E260E640E8100B08C2020D100E20540213
:401A40005D08648089108A108C808D08A002B304B402C205D605D801E00AE201E604EA01EC0201011001000001000F406D300F4034310F4043320F4040330F4013400F4004
:401A80000B410F4002420F4014430F4002600F4008101000000000000000000000000000081010000000000000000000000000000000000000000000000000000000000051
:401AC0000000183C3C3C181818001818000000000063636322000000000000000000000000000036367F3636367F3636000000000C0C3E6361603E030343633E0C0C000025
:401B000000000000006163060C183363000000000000001C36361C3B6E66663B000000000030303060000000000000000000000000000C18183030303018180C00000000A5
:401B40000000180C0C060606060C0C18000000000000000042663CFF3C6642000000000000000000181818FF1818180000000000000000000000000000001818183000001F
:401B800000000000000000FF00000000000000000000000000000000000018180000000000000103070E1C3870E0C0800000000000003E6363636B6B6363633E0000000055
:401BC00000000C1C3C0C0C0C0C0C0C3F0000000000003E6303060C183061637F0000000000003E6303031E030303633E000000000000060E1E3666667F06060F000000007C
:401C000000007F6060607E030363733E0000000000001C3060607E636363633E0000000000007F630306060C0C1818180000000000003E6363633E636363633E0000000059
:401C400000003E636363633F0303063C000000000000000000181800000018180000000000000000001818000000181818300000000000060C18306030180C0600000000F7
:401C80000000000000007E00007E0000000000000000006030180C060C1830600000000000003E6363060C0C0C000C0C0000000000003E63636F6B6B6E60603E00000000BF
:401CC0000000081C366363637F6363630000000000007E3333333E333333337E0000000000001E33616060606061331E0000000000007C36333333333333367C00000000A0
:401D000000007F3331343C343031337F0000000000007F3331343C34303030780000000000001E336160606F6363371D000000000000636363637F63636363630000000085
:401D400000003C18181818181818183C0000000000000F06060606060666663C000000000000733336363C36363333730000000000007830303030303031337F00000000E2
:401D8000000063777F6B6363636363630000000000006363737B7F6F676363630000000000001C36636363636363361C0000000000007E3333333E30303030780000000058
:401DC00000003E6363636363636B6F3E0607000000007E3333333E36363333730000000000003E6363301C060363633E000000000000FFDB991818181818183C00000000F8
:401E000000006363636363636363633E00000000000063636363636363361C0800000000000063636363636B6B7F3636000000000000C3C3663C18183C66C3C300000000AA
:401E40000000C3C3C3663C181818183C0000000000007F6343060C183061637F0000000000003C30303030303030303C00000000000080C0E070381C0E0703010000000024
:401E800000003C0C0C0C0C0C0C0C0C3C00000000081C3663000000000000000000000000000000000000000000000000FF00000018180C0000000000000000000000000052
:401EC00000000000003C46063E66663B0000000000007030303C36333333336E0000000000000000003E63606060633E0000000000000E06061E36666666663B00000000F6
:401F000000000000003E63637E60633E0000000000001C3632307C30303030780000000000000000003B666666663E06663C00000000703030363B3333333373000000007D
:401F400000000C0C001C0C0C0C0C0C1E0000000000000606000E060606060666663C000000007030303333363C3633730000000000001C0C0C0C0C0C0C0C0C1E0000000075
:401F800000000000006E7F6B6B6B6B6B0000000000000000006E3333333333330000000000000000003E63636363633E0000000000000000006E333333333E3030780000C2
:401FC00000000000003B666666663E06060F000000000000006E3B33303030780000000000000000003E63380E03633E0000000000000818187E181818181B0E0000000007
:4020000000000000006666666666663B000000000000000000636336361C1C080000000000000000006363636B6B7F3600000000000000000063361C1C1C36630000000055
:40204000000000000063636363633F03063C000000000000007F660C1830637F0000000000000E18181870181818180E0000000000001818181818001818181818000000AE
:402080000000701818180E18181818700000000000003B6E000000000000000000000000030405060708090A0B0C0E0F101112131415161718191B1C1D1E1F202122232570
:4020C000262728292A2B2E2F3031323334350000253564004300232D302B2000686C4C00656667454647003031323334353637383941424344454600303132333435363733
:40210000383961626364656600000000F8B5C046F8BC08BC9E467047D90100000D030000F8B5C046F8BC08BC9E467047B101000040210000C0000020880000006800000080
:4021400000000000B0010020010000000000E02EC05D00001800000000366E0104040400000000000000000000000000000000000000000000000000000000000000000099
:40218000D42000000000000000000000000000000000000000000000000000000000000000000000000000000000000000000000000000000000000000000000000000002B
:4021C000E0000020000000000000000000000000000000000000000000000000000000000000000000000000000000000000000000000000000000000000000000000000DF
:40220000000000000000000000000000000000000000000000000000000000000000000000000000000000000000000000000000000000000000000000000000000000009E
:40224000000000000000000000000000000000000000000000000000000000000000000000000000000000000000000000000000000000000000000000000000000000005E
:40228000000000000000000000000000000000000000000000000000000000000000000000000000000000000000000000000000000000000000000000000000000000001E
:4022C00000000000000000000000000000000000000000000000000000000000000000000000000000000000000000000000000000000000000000000000000000000000DE
:0200000490303A
:020000004514A5
:0200000490402A
:200000000000000000000000000000000000000000000000000000000000000000000000E0
:0200000490501A
:0C000000000204C81193110104D256A79D
:0200000490600A
:0100000001FE
:00000001FF